:020000040000FA
:10000000902800204D030000550300005703000016
:10001000590300005B0300005D03000000000000C6
:100020000000000000000000000000005F0300006E
:10003000610300000000000063030000650300008E
:10004000DD0B000067030000E910000067030000FB
:100050006703000067030000670300003D0C000019
:10006000D110000067030000670300006703000071
:1000700067030000670300006703000067030000D8
:1000800067030000670300006703000067030000C8
:1000900067030000670300006703000067030000B8
:1000A00067030000670300006703000067030000A8
:1000B000670300006703000000000000000000006C
:1000C0006703000067030000670300006703000088
:1000D00067030000670300006703000000000000E2
:1000E0000000000000000000000000000000000010
:1000F0000000000000000000000000000000000000
:1001000000000000000000000000000000000000EF
:1001100000000000000000000000000000000000DF
:1001200000000000000000000000000000000000CF
:1001300000000000000000000000000000000000BF
:1001400000000000000000000000000000000000AF
:10015000000000000000000000000000000000009F
:10016000000000000000000000000000000000008F
:10017000000000000000000000000000000000007F
:10018000000000000000000000000000000000006F
:10019000000000000000000000000000000000005F
:1001A000000000000000000000000000000000004F
:1001B000000000000000000000000000000000003F
:1001C000000000000000000000000000000000002F
:1001D000000000000000000000000000000000001F
:1001E000000000000000000000000000000000000F
:1001F00000000000000000000000000000000000FF
:10020000DFF80CD000F0C8FB00480047D522000002
:100210009028002030B4044654E8000F0D4644E80E
:100220000053002BF8D1156030BC704730B4044641
:1002300054E8000F40EA010544E80053002BF7D1D1
:10024000156030BC704730B4044654E8000F00EA33
:10025000010544E80053002BF7D1156030BC70470E
:1002600030B4044654E8000F80EA010544E8005326
:10027000002BF7D1156030BC704730B4044654E809
:10028000000F00EB010544E80053002BF7D1156087
:1002900030BC704730B4044654E8000FA0EB0105B1
:1002A00044E80053002BF7D1156030BC70470000C4
:1002B00030B4044654E8000F0D4644E80053002BC8
:1002C000F8D1156030BC704730B4044654E8000FD4
:1002D00040EA010544E80053002BF7D1156030BC1B
:1002E000704730B4044654E8000F00EA010544E8C2
:1002F0000053002BF7D1156030BC704730B4044672
:1003000054E8000F80EA010544E80053002BF7D1C0
:10031000156030BC704730B4044654E8000F00EB61
:10032000010544E80053002BF7D1156030BC70473D
:1003300030B4044654E8000FA0EB010544E8005334
:10034000002BF7D1156030BC70470000064880478D
:1003500006480047FEE7FEE7FEE7FEE7FEE7FEE7AA
:10036000FEE7FEE7FEE7FEE74D0E0000010200009B
:1003700040EA01039B0703D009E008C9121F08C027
:10038000042AFAD203E011F8013B00F8013B521EA7
:10039000F9D27047D2B201E000F8012B491EFBD21E
:1003A00070470022F6E710B513460A460446194680
:1003B000FFF7F0FF204610BD2DE9FE4F804681EA91
:1003C0000300C00F0C46009021F0004123F00045CF
:1003D000B8EB0200A94105D24046214690461C4692
:1003E0000B46024623F00040104347D0270DC7F3C9
:1003F0000A00C3F30A510290401A019040286BDAB8
:10040000C3F3130040F4801B0098924620B10023F0
:10041000D2EB030A63EB0B0B01985946C0F1400283
:10042000504600F0D4F906460D4650465946019A0A
:1004300000F0DCF910EB08006141002487EA11525A
:1004400084EAE7731A4340D0009A62B3019A012A02
:100450004FEA075215DC001B61EB02014FF000422E
:1004600002EA0752CDE90042001C41F580113246F4
:100470002B4600F013FA03B0BDE8F08F404621464A
:10048000F9E7001B61EB0201001C41F58013001825
:100490005B412018A2F5001747EB030140EAD57035
:1004A000B6196D4111E06D084FEA360645EAC07590
:1004B0004FEA0752001B61EB0201001C41F580115D
:1004C00049084FEA30000019514132462B4603B02B
:1004D000BDE8F04F00F0D3B900980122400000239E
:1004E000D0EB020263EBE073009821464FEAE07420
:1004F000B8EB000061EB0401E9E783F000435BE740
:1005000081F0004158E72DE9FE4F81EA030404F031
:10051000004421F0004100944FF0000B23F0004311
:1005200050EA01045ED052EA03045BD0C3F30A54DC
:10053000C1F30A552C44A4F2F3340194A0FB0254F5
:10054000C1F3130141F48011C3F3130343F4801387
:1005500001FB024400FB034E840A970A44EA8154DB
:1005600047EA8357A4FB076802958D0A05FB0785B8
:100570004FEA932C04FB0C542705029D4FEA0658C2
:1005800047EA1637B5EB08056EEB070C870E920E9F
:1005900047EA811742EA8312A7FB0201B6EB0B017F
:1005A00064EB00042B0D43EA0C335E1844EB1C5043
:1005B000DA465146E7FB0201C5F313044FEA0B3359
:1005C00043EA14534FEA0432019C43EA0603A4F1C0
:1005D0000C040294009CCDE900B400F05FF903B074
:1005E000BDE8F08F00200146F9E72DE9F04D81EAE2
:1005F000030404F0004B21F0004514464FF0000ABC
:1006000023F0004150EA050220D054EA01021DD037
:10061000C5F30A570246C5F31303C1F31300C1F330
:100620000A5640F4801543F48013A7EB0608101B0C
:10063000D64608F2FD3873EB050002D308F1010835
:1006400001E092185B41B8F1000F03DA0020014687
:10065000BDE8F08D00204FF48011064684460EE080
:10066000171B73EB050705D3121B63EB050306434A
:100670004CEA010C49084FEA300092185B4150EAFD
:100680000107EDD152EA030012D082EA040083EAA6
:100690000501084305D0101BAB4106D201220023FF
:1006A00006E000224FF0004302E06FF00102531019
:1006B0001AEB06004CEB085110EB0A0041EB0B0162
:1006C000BDE8F04D00F0DBB80EB540F233410291C9
:1006D0000021CDE900110A460B4600F0DFF803B017
:1006E00000BD00F0004230F000400AD0C10D01F51D
:1006F0006071C0F3160042EA0151C208400711437D
:10070000704700200146704701F0004330B421F0EB
:10071000004150EA010206D00A0DA2F56072C1F351
:100720001301002A02DC30BC00207047440F44EA69
:10073000C104C100E01830BC00EBC25000F068B842
:1007400030B50B46014600202022012409E021FAA1
:1007500002F59D4205D303FA02F5491B04FA02F59E
:100760002844151EA2F10102F1DC30BD2DE9F05F35
:100770000546002092469B46884606468146402410
:100780001BE0284641464746224600F017F95346EB
:100790005A46C01A914110D311461846224600F01D
:1007A00016F82D1A67EB01084F462246012000215A
:1007B00000F00DF817EB00094E41201EA4F10104D2
:1007C000DFDC484631462A464346BDE8F09F202AF2
:1007D00004DB203A00FA02F1002070479140C2F198
:1007E000200320FA03F3194390407047202A06DBC8
:1007F000CB17203A41FA02F043EAE07306E041FAEF
:1008000002F3D040C2F120029140084319467047DC
:100810000029A8BF7047401C490008BF20F0010014
:10082000704710B4B0FA80FC00FA0CF050EA0104F2
:1008300004BF10BC704749B1CCF1200421FA04F484
:1008400011FA0CF118BF012121430843A3EB0C015D
:10085000CB1D4FEA00614FEA102042BF002010BCC0
:10086000704700EBC35010440029A4BF10BC704770
:10087000401C490008BF20F0010010BC704710B5B3
:10088000141E73F1000408DA401C41F100019218B3
:100890005B411A4301D120F0010010BD2DE9F04D5C
:1008A00092469B4611B1B1FA81F202E0B0FA80F2B1
:1008B00020329046FFF78BFF04460F4640EA0A00BD
:1008C00041EA0B0153465A46084313D0114653EAF6
:1008D000010019D0C8F14002504600F06FF80546FB
:1008E0000E46504659464246FFF771FF084305D071
:1008F000012004E020463946BDE8F08D0020054384
:1009000046EAE0762C4337430A986305E40AA0EBF5
:1009100008000022FD0A44EA47540A3002D50020AC
:100920000146E9E7010510196941DDE908450019AB
:100930006941BDE8F04DA2E7C1F30A52C1F31301CA
:1009400040F2FF3341F480119A4202DA002001465E
:10095000704740F233439A42A2F2334202DC5242E1
:1009600000F02CB8FFF733BF30B5041E71F100045E
:1009700004DB4FF00044404264EB0101141E73F1AC
:10098000000405DB1C464FF00043524263EB0403B6
:10099000994208BF904230BD064C074D06E0E06822
:1009A00040F0010394E8070098471034AC42F6D3B6
:1009B000FFF72AFC6840000088400000202A04DB82
:1009C000203A21FA02F00021704721FA02F3D040C8
:1009D000C2F12002914008431946704710B5044601
:1009E000082C75D2DFE804F00414243444546475F0
:1009F0000E2002F005FB0B2002F0F7FA0C2002F0AB
:100A0000F4FA0D2002F0F1FA0E2002F0EEFA80E086
:100A10000E2002F0F5FA0B2002F0F2FA0C2002F0A0
:100A2000E4FA0D2002F0E1FA0E2002F0DEFA70E0A6
:100A30000E2002F0E5FA0B2002F0D7FA0C2002F0AB
:100A4000DFFA0D2002F0D1FA0E2002F0CEFA60E0BB
:100A50000E2002F0D5FA0B2002F0D2FA0C2002F0A0
:100A6000CFFA0D2002F0C1FA0E2002F0BEFA50E0DB
:100A70000E2002F0C5FA0B2002F0B7FA0C2002F0AB
:100A8000B4FA0D2002F0BCFA0E2002F0AEFA40E0FB
:100A90000E2002F0B5FA0B2002F0B2FA0C2002F0A0
:100AA000A4FA0D2002F0ACFA0E2002F09EFA30E01B
:100AB0000E2002F0A5FA0B2002F097FA0C2002F0AB
:100AC0009FFA0D2002F09CFA0E2002F08EFA20E030
:100AD0000FE00E2002F094FA0B2002F091FA0C20A5
:100AE00002F08EFA0D2002F08BFA0E2002F07DFA51
:100AF0000FE00E2002F084FA0B2002F076FA0C20B0
:100B000002F073FA0D2002F070FA0E2002F06DFA76
:100B100000BF00BF10BD000010B52DED048B0446D2
:100B20002046FFF7D1FD41EC190B9FED070B53EC6D
:100B3000102BFFF7E8FC41EC180BFFF7E5FD00EE8A
:100B4000100ABDEC048B10BDCDCCCCCCCCCC4C3F32
:100B500010B52DED0C8BB0EE408A18EE100AFFF7A1
:100B6000C0FD41EC1D0B9FED180B53EC102BFFF754
:100B70003CFD41EC1C0B9FED160B53EC102BFFF7CB
:100B8000BFFC41EC1A0B9FED140A28EE000A10EE90
:100B9000101A0846FFF7A5FD41EC1C0B9FED0A0B50
:100BA00053EC102BFFF721FD41EC1B0B53EC1A2BE0
:100BB000FFF71BFD41EC190BFFF7A6FD00EE100A35
:100BC000BDEC0C8B10BD00009A99999999D92140E0
:100BD000000000000000F43F0060A94410B500BF11
:100BE00013480068044604F0040038B14FF48470E0
:100BF00002F012FC10B10F480068804704F020009A
:100C000040B14FF48A7002F007FC18B100200A4985
:100C10000968884704F0400040B14FF48C7002F03E
:100C2000FBFB18B1012004490968884710BD00008A
:100C3000040300401C00002020000020FEB54FF4FB
:100C4000827002F069FC002837D04FF4827002F005
:100C50006DFC6C4890F82E0018B16A4890F82F008F
:100C600058B300208DF80000664840680190654840
:100C70000189ADF80810C06818B9002061490874EE
:100C800012E06048008B5F4948830846C0684860AE
:100C90000846008B08810020C860084690F82E00A6
:100CA00010B9002002F05AFC56480168684688478F
:100CB0000020544981F82F0000BF524890F82E00C0
:100CC000002852D04FF4807002F026FC00284CD04F
:100CD0004FF4807002F02AFC4A48408B494991F851
:100CE0002D10884216DD4748408B464991F82D105B
:100CF000401A444948830A4612890B465B8BD21A34
:100D00000B465B6803EB42000A4692F82D1002F096
:100D1000B7FB23E03B48408B3A4991F82D108842BD
:100D20000FD13848C06860B10120364981F82F00E2
:100D3000002048830A4692F82D10D06802F0A0FBEC
:100D40000CE03048408B2F4991F82D10884205D196
:100D500001202C4981F82F00002048834FF4827035
:100D600002F0E4FB042002F0F9FB4FF4887002F07B
:100D7000D3FB70B14FF4887002F0D8FB00202149FA
:100D8000087402208DF8000008460168684688470C
:100D900000BF4FF48A7002F0BFFB38B14FF48A7085
:100DA00002F0C4FB0020174908742AE01548456981
:100DB00024E0B5FA85F64FF00040F0408543B000DE
:100DC00000F58C74204602F0A7FBB8B1204602F073
:100DD000ADFB01208DF80000A4F58C70C0F3C700B6
:100DE0008DF80400A4F58C70012121EA90018DF8A2
:100DF0000510044801686846884700BF002DD8D117
:100E000000BFFEBD2403002010B50B2002F0C9F87E
:100E10000C2002F0C6F80D2002F0C3F80E2002F0FC
:100E2000C0F80B2002F0E1F80C2002F0DEF80D20F3
:100E300002F0DBF80E2002F0E3F810BD0148024991
:100E4000086070470090D0036000002010B501F0EA
:100E500001F828B18E480088C0F304208D4908604D
:100E600001F04CF810B18C488C49486701F05EF8ED
:100E700030B18748E0380068C0F3423088490860E4
:100E800001F07EF828B18748006820F0807085491D
:100E9000086001F08DF848B10020834908604FF0E8
:100EA0008041C1F810017E49091F086001F0AAF8CD
:100EB00018B103207A496431086001F0BBF868B1C9
:100EC00005207A49086001207849783108600020BF
:100ED0007649083108603F20091F086001F0C2F818
:100EE000002855D06A48E0300068714908606848B9
:100EF000E4300068091D08606548E8300068091D95
:100F000008606348EC300068091D08606048F030F4
:100F10000068091D08605E48F4300068091D08601B
:100F20005B48F83000686249203108605848FC305E
:100F30000068091D08605F480068091D08605D4879
:100F4000001D0068091D08605A4808300068091D26
:100F5000086058480C300068091D0860554810307A
:100F60000068534940310860524814300068091D38
:100F70000860504818300068091D08604D481C3052
:100F80000068091D08604B4820300068091D086092
:100F900000F036FF30B13E48CC38006800F04F001A
:100FA0004549086000F080FF40B14448006800F007
:100FB000010018B16FF001004049086039487438E9
:100FC000006840F4700037497439086000BF00BF02
:100FD00000BFBFF34F8F00BF00BF00BF00BF00BF07
:100FE00000BFBFF36F8F00BF00BF00BF3448006871
:100FF00000F0004028B93248001D006800F00040B1
:10100000F0B301202F49086000BF2F480068002876
:10101000FBD015202A49086000BF2B480068002833
:10102000FBD015212648001D016000BF264800683E
:101030000028FBD000202349086000BF2248006838
:101040000028FBD000BF00BF00BF00BF00BFBFF340
:101050004F8F00BF00BF00BF1248F038006800F497
:10106000E0601A490843001D0E49F039086000BFCE
:1010700000BF00BFBFF34F8F00BF00BF00BF00E045
:1010800002E000BF00BFFDE7FFF7D8FE10BD000083
:1010900024030010403501400DF0ADBA00C00740F8
:1010A0003C050040FCED00E00C0100401056004003
:1010B00020C5004024040010E40E0040000400405D
:1010C0000012001004E5014000E401400000FA05B0
:1010D00010B504220249034801F052F810BD000087
:1010E000540300200080004010B50648007F20B166
:1010F0000449054802F06CFE03E00249024802F090
:10110000C6FD10BD60030020002000400FB4054B59
:1011100010B503A9044A029800F0DAF810BC5DF893
:1011200014FB0000E52000004400002002E008C895
:10113000121F08C1002AFAD170477047002001E051
:1011400001C1121F002AFBD1704700002DE9FF5F8B
:1011500082B00021DDE90430020DDDF840B0034328
:1011600018D044F61050A2F2FF32424315141198E1
:1011700001281FD0A5EB0B00401C5FEA000A4FF0CE
:1011800000064E4FDFF83891B046504615D5CAF1EB
:10119000000413E0119801244AA3012801D16FEA49
:1011A0000B010298119AC0E90031C0E9024206B071
:1011B000BDE8F09FCBF10000DFE704460021404A84
:1011C000491842EB0450CDE9001012E0E00707D0C7
:1011D00032463B4640464946FFF795F980468946E8
:1011E00032463B4610461946FFF78DF906460F4634
:1011F0006410002CEAD1DDE90401DDE90023BAF135
:10120000000F06DAFFF77FF942464B46FFF77BF9FE
:1012100005E0FFF7EAF942464B46FFF7E6F90446D8
:101220000E460022284BFFF79FFB03D84FF0FF30FC
:10123000014607E00022254B20463146FFF7BCF867
:10124000FFF77AFB102409E0002C0ADB0A220023B6
:10125000FFF78CFA039B30321A55641E50EA0102E4
:10126000F2D1641C039AC4F111031444119A012AA7
:1012700003D0012208430DD10AE0084304D0002026
:101280004FF0110B119072E7A3EB0B056D1E0DE0F3
:101290005B4504DD4FF0000205F1010504E003DACF
:1012A0004FF00002A5F10105002AECD00298119937
:1012B000C0E90231C0E9004579E7000000001440B0
:1012C0000000F03F300000000000F0430000E03F6D
:1012D0002DE9FF4F95B09B468946064600250FE253
:1012E000252877D100242746F84A0121059400E0FB
:1012F000044316F8013F203B01FA03F01042F7D1F6
:1013000030782A2811D06FF02F033078A0F1300206
:10131000092A16D8059A44F0020402EB820203EB74
:1013200042021044761C0590EFE759F8042B059211
:10133000002A03DA504244F40054059044F00204B9
:10134000761C30782E2816D116F8010F44F00404CC
:101350002A280DD06FF02F023078A0F13003092B2E
:1013600009D807EB870302EB4303C718761CF3E7A2
:1013700059F8047B761C30786C280FD006DC4C289A
:1013800017D068280DD06A2814D104E0742810D032
:101390007A280FD10DE044F400140AE044F48014DC
:1013A00001E044F440147278824202D104F58014C2
:1013B000761C761C307866280BD013DC582877D042
:1013C00009DC002875D04528F6D04628F4D04728F7
:1013D0001AD19DE118E0632835D0642879D06528BA
:1013E00012D195E1702873D008DC6728F1D0692804
:1013F0006FD06E280DD06F2806D1B5E073282CD0A1
:10140000752875D0782874D05A46179990476D1C66
:1014100075E1C4F30250022809D003280DD0D9F891
:10142000001004280DD00D6009F1040967E1D9F816
:101430000010EA17C1E90052F6E7D9F800100D8054
:10144000F2E70D70F0E719F8041B8DF8001000208A
:101450008DF80100EA46012003E059F804AB4FF093
:10146000FF3061074FF0000102D40DE008F10101E7
:101470008846B9420FDA8045F8DB1AF808100029CF
:10148000F4D108E008F1010188468142FADB1AF83C
:1014900008100029F6D105985B46A0EB0807214605
:1014A0003846179A00F094FA284400EB080507E044
:1014B0004DE029E10DE01AF8010B5A4617999047C3
:1014C000B8F10108F7D25B4621463846179A13E176
:1014D00042E00A220092C4F302524FF0000A022AAC
:1014E00008D059F804CB032A4FEAEC710AD00DE07A
:1014F00029E02AE009F1070121F00702F2E802C120
:10150000914609E00FFA8CFC4FEAEC71042A03D1F2
:101510004FFA8CFC4FEAEC71002907DA0A460021E9
:10152000DCF1000C61EB02012D2202E0220504D562
:101530002B228DF80420012203E0E20701D02022B3
:10154000F7E7904659E00A2102E010220DE0102151
:101550004FF0000A00910BE010224FF0000A44F017
:1015600004040827009203E008224FF0000A0092CA
:10157000C4F30252022A05D059F804CB0021032AF1
:1015800008D009E009F1070121F00702F2E802C1E1
:10159000914605E01FFA8CFC042A01D10CF0FF0CE7
:1015A0004FF00008220728D5702806D0009B83F052
:1015B000100353EA0A0305D00EE040228DF8042000
:1015C000012208E05CEA010206D030228DF80420F6
:1015D0008DF8050002229046009B83F0080353EA31
:1015E0000A030AD15CEA010201D1620705D5302263
:1015F0008DF804204FF001087F1E582804D034A035
:1016000003900EA802900DE036A0F9E7534660461D
:10161000009AFFF7ABF884460398825C0298401E5C
:10162000029002705CEA0100F0D1029806A9081A43
:1016300000F1200A600702D524F4803400E001277D
:10164000574502DDA7EB0A0000E0002000EB0A018D
:10165000009005984144401A0590E00306D45B468B
:101660002146179A059800F0B3F90544002706E0D3
:1016700001A85A46C05D179990476D1C7F1C4745CD
:10168000F6DBE0030CD55B462146179A059800F07F
:101690009FF9054404E030205A46179990476D1C85
:1016A0000099481E00900029F5DC08E00298029994
:1016B0005A460078491C0291179990476D1CBAF15F
:1016C0000001AAF1010AF1DC65E10000092801002E
:1016D00030313233343536373839616263646566A8
:1016E000000000003031323334353637383941426A
:1016F000434445460000000000F058F90544761CBC
:10170000307800287FF4ECAD19B02846BDE8F08FA2
:10171000620700D4062709F1070222F0070CFCE853
:101720000223E14603F000485FEA080C02D00FF202
:10173000702C0DE05FEA045C02D50FF2682C07E024
:101740005FEAC47C02D00FF2602C01E0AFF2700CB3
:101750004FF0FF3823F00043CDF850C065280CD07F
:1017600006DC452809D046281DD047283DD13DE05C
:10177000662818D067287ED138E00021112F01DBC0
:10178000112000E0781CCDE9000106A90EA8FFF7A2
:10179000DDFCDDE90F010E9A03910021009207F1B3
:1017A000010A04914DE04FF000400097CDE901108F
:1017B00006A90EA8FFF7CAFCDDE90F0203920E9BF3
:1017C00011990022DDF80CA00093049211B9791C44
:1017D00000EB010AB7EB0A0004D4C0F1FF3007F1B7
:1017E000010A0490AAEB0700019044E0012F00DAFF
:1017F00001270021112F01DD112000E03846CDE93D
:10180000000106A90EA8FFF7A1FCDDE90F010E9A61
:101810000391002104910092BA4621070CD4039948
:10182000514500DA8A46BAF1010F05DD009AAAF1A6
:101830000101515C302908D0B84202DA10F1040FDE
:1018400006DA0121CDE9011015E0AAF10101E9E76D
:10185000002805DC049901440491AAEB000102E090
:10186000411C514500DD8A460499401A401C0190F4
:101870004FF000400290200704D40198504501DB4E
:10188000CDF8048000208DF84F0002980DF14F072D
:10189000B0F1004F25D02B200E9002984FF0020897
:1018A00000280CDA404202902D200E9007E00A2119
:1018B0000298FEF745FF3031029007F8011DB8F19C
:1018C0000001A8F10108F2DC02980028EFD1791E8E
:1018D0000E980870307800F0200040F0450007F8BE
:1018E000020D12A8C01B00F107081498007800B17F
:1018F000012000EB0A01019801EBE07105984144D9
:10190000401A401E0590E00306D45B462146179A14
:10191000059800F05DF805441498007818B15A460F
:10192000179990476D1CE00324D55B462146179A12
:10193000059800F04DF805441CE00498002807DBEA
:10194000DDE90301884203DD0098405C179901E05E
:10195000179930205A469047049805F10105401C1C
:1019600004900198401E019004D12E205A461799E8
:1019700090476D1CBAF10001AAF1010ADDDC05E017
:1019800017F8010B5A46179990476D1CB8F10001E2
:10199000A8F10108F4DC5B462146179A0598ABE6EE
:1019A0002D0000002B000000200000002DE9F04178
:1019B000044600251E461746880404D405E039462F
:1019C0002020B0476D1C641EF9D52846BDE8F08183
:1019D0002DE9F041044600251E469046C80301D576
:1019E000302700E02027880404D505E0414638462A
:1019F000B0476D1C641EF9D52846BDE8F081000093
:101A000021490988012242EA014020A101F048FC55
:101A100000BF01F04FFC00BF00BF01F007FB002832
:101A2000FBD100BF00BF00BF1A48006800F00100F2
:101A300000B100BE00BF14490988032242EA0140F8
:101A400015A101F02DFC00BF00BF00BF00BF00BF0B
:101A5000BFF34F8F00BF00BF00BF0E48E4380068DF
:101A600000F4E06011490843001D0A49E4390860A8
:101A700000BF00BF00BFBFF34F8F00BF00BF00BF5C
:101A800000BF00BFFDE70000AC00002046617461AC
:101A90006C000000F0ED00E0486974207765616B30
:101AA0002068616E646C6572000000000000FA0539
:101AB0003EB50446002000900190029002946A46D0
:101AC000002144F20100FFF79BFF3EBD70B50446C4
:101AD0000D46204600F0EFFA28B12946204600F0D6
:101AE000D9FA002070BD0520FCE7034609B90E2095
:101AF000704712B1501E104008B10920F8E7196074
:101B0000501E988000209860D86000BFF0E770B544
:101B100004460D46204600F0CEFAA188884205D83A
:101B20002946204600F0D5FA002070BD0420FCE7CD
:101B30002DE9F04188B004460D46174698462E48D8
:101B400007601DB9072008B0BDE8F081A88882B2FF
:101B50002A482968FFF7C9FF064600BF0EB1304684
:101B6000F1E700BFA88982B22548A968FFF7BDFF49
:101B7000064600BF0EB13046E5E700BF20222149EE
:101B80006846FEF7F5FB60690690207C08B10120ED
:101B900000E000208DF814008DF81C80607C08B1F6
:101BA0000E2000E000208DF81500E0680290A0688B
:101BB00003902068019060680090134A69461348BA
:101BC00000F07AFF064600BF0EB13046BBE700BF0B
:101BD00000200F4908702068401C58B19DF81D0076
:101BE00010B90A4801F014F801220A49074800F028
:101BF000A5FFA8E70020A6E73C0000208C030020FA
:101C00009C030020F43F0000B93B0000340000209A
:101C1000420000204100002070B5044621460B48D8
:101C2000FFF775FF054675B9094801F08BF950B902
:101C300008490648FFF74AFF28B901220549044828
:101C400001F0CAF80546284670BD00009C0300203C
:101C5000340000204000002000B5024600F006F8E5
:101C600000BD00B5024600F00BF800BD72B6034897
:101C70000068401C014908607047000024000020F3
:101C800004480068401E034908600846006800B91F
:101C900062B670472400002070B505460C462068E7
:101CA000401C28B1206801F0B6F9206801F091F9D4
:101CB0006068401C18B10021606801F065F928795E
:101CC0002D4901EB4010007F50B32868A169C0F88E
:101CD000241500BF617D227D286841EA0203C0F817
:101CE0006C3500BFD4E90012286801F0D8FC207DD3
:101CF00001283FD1A068401C18B10021A06801F064
:101D000043F9E068401C28B1E06801F084F9E0681C
:101D100001F05FF9D4E90221286801F0ACFC29E068
:101D20002868A169C0F8241500BF617D227D28685C
:101D300041EA0203C0F86C3500BFD4E900122868FC
:101D400001F080FC207D012814D1A068401C18B14E
:101D50000021A06801F018F9E068401C28B1E06893
:101D600001F059F9E06801F034F9D4E9022128685A
:101D700001F051FC70BD0000600300202DE9F04728
:101D800004460D46A61C02274FF001080020FFF76D
:101D900063FF1448006828601248006811494968C8
:101DA000411A10488068401CA0EB010906EB070AA5
:101DB0000BE000F037FA0B4800680A494968411AFD
:101DC00008488068401CA0EB0109CA45F1D80548C5
:101DD00000683044034908600020FFF742FF404696
:101DE000BDE8F0876C040020044840680349096896
:101DF000884201D1012070470020FCE76C040020DC
:101E000013480078062820D11148001D007800F002
:101E10000F00D0B90E480830007800F0F0003028EC
:101E200001D1012070470A480830007800F0F00026
:101E3000402801D10120F5E705480830007800F07E
:101E4000F000502801D10120ECE70020EAE7000073
:101E5000E00F00F013480078062820D11148001D3B
:101E6000007800F00F00D0B90E480830007800F07C
:101E7000F000302801D1012070470A48083000786E
:101E800000F0F000402801D10120F5E705480830B6
:101E9000007800F0F000502801D10120ECE700208C
:101EA000EAE70000E00F00F013480078062820D190
:101EB0001148001D007800F00F00D0B90E4808301E
:101EC000007800F0F000302801D1012070470A4866
:101ED0000830007800F0F000402801D10120F5E73B
:101EE00005480830007800F0F000502801D10120AA
:101EF000ECE70020EAE70000E00F00F00A48007875
:101F000006280ED10848001D007800F00F0040B9E7
:101F100005480830007800F0F000302801D1012099
:101F200070470020FCE70000E00F00F01348007845
:101F3000062820D11148001D007800F00F00D0B90C
:101F40000E480830007800F0F000302801D1012060
:101F500070470A480830007800F0F000402801D1AE
:101F60000120F5E705480830007800F0F00050281F
:101F700001D10120ECE70020EAE70000E00F00F0CB
:101F80000A48007806280ED10848001D007800F0A5
:101F90000F0040B905480830007800F0F000302804
:101FA00001D1012070470020FCE70000E00F00F0A5
:101FB00013480078062820D11148001D007800F051
:101FC0000F00D0B90E480830007800F0F00030283B
:101FD00001D1012070470A480830007800F0F00075
:101FE000402801D10120F5E705480830007800F0CD
:101FF000F000502801D10120ECE70020EAE70000C2
:10200000E00F00F00A48007806280ED10848001DAD
:10201000007800F00F0040B905480830007800F063
:10202000F000302801D1012070470020FCE70000BB
:10203000E00F00F00A48007806280ED10848001D7D
:10204000007800F00F0040B905480830007800F033
:10205000F000302801D1012070470020FCE700008B
:10206000E00F00F00A48007806280ED10848001D4D
:10207000007800F00F0040B905480830007800F003
:10208000F000502801D1012070470020FCE700003B
:10209000E00F00F070B504460D462A4600212046A8
:1020A00000F00EF8A068401CA06070BD01468A6870
:1020B000C868801A704701468A68C868801A7047E5
:1020C00010B583680B44848823400468E35C137074
:1020D00010BDC26883881A4003689954C268521CB4
:1020E000C260704770B504460D46E0B2FFF794FD3C
:1020F000204670BD70B504460D4620791D4901EBA0
:102100004010007FF8B14FF48871206801F0ACFAFC
:102110004FF49071206801F0A7FA4FF49271206893
:1021200001F0A2FA4FF4A271206801F09DFA124961
:10213000206801F0A9FA206800F043FA0646294613
:1021400000F00AFA14E04FF48E71206801F05CFA96
:102150004FF4A271206801F057FA0849206801F095
:1021600062FA206800F02DFA0646294600F0F4F9DC
:1021700070BD000060030020100302008000020018
:102180002DE9F04704460E469046002722E03846E7
:1021900001F00BFA0546384601F00EFA814620465A
:1021A000294642580AB1012200E0002282B1484685
:1021B000D4F80413014009B1012100E0002139B134
:1021C0002946204601F0FDF92846D6E9002190472E
:1021D000781CC7B24745DADBBDE8F08710B5044686
:1021E000204600F0ADFA04490968084008B1012012
:1021F00010BD0020FCE700001000002070B5044670
:10220000204600F09DFA0546012070BD10B5044639
:10221000204600F095FAC0F3130008B1012010BD6C
:102220000020FCE72DE9FE4328484468866804EA5C
:10223000060026490C3101EB800701F20C4000F04A
:10224000E9F8234800F0E6F80DE0641C3888C0F394
:102250008910396800EB9150044404EA06001B49D8
:102260000C3101EB8007387800F003000028ECD037
:10227000002509E02046641C304014490C3151F817
:1022800020004DF825006D1C022DF3D3009800F0BE
:10229000030002280AD10422009902EB9151481E42
:1022A000C11700EB917104EBA10403E00098C0F3A7
:1022B00083100444064800F0A2F88046B8F1000FED
:1022C00001D002484460BDE8FE8300006C04002099
:1022D00080080020002000F083F9054600BF2E464C
:1022E00026B100BF3046FFF7E3FB00BF00BF01F09F
:1022F000A7F8044600BF264626B100BF3046FFF7C8
:10230000D7FB00BF00BFFEF77FFD01F027FC0BA04D
:10231000FEF7FCFE01F0BEFA01F024FB4FF4FA7662
:10232000710016FB01F000F0C9F800BF0020FEF7B5
:1023300055FB01F005FB00BFFEE700000D0A20522F
:102340006561646F7574205632200D0A000000002C
:102350002DE9FF5F07468B46144698460397039F77
:10236000FD88B94608F10400B0FBF5F0029008F1D1
:102370000400B0FBF5F105FB1100019008F1040029
:1023800020442844401EB0FBF5F0C0B2009004E0A9
:10239000D9F800900298401E029002980028F7D1C8
:1023A000824601982E1AA64201D9204600E0304606
:1023B000064620E00E9848B109F10402019BD118AD
:1023C0000BEB0A003246FDF7D3FF08E00BEB0A01E6
:1023D00009F10402019BD0183246FDF7C9FF002025
:1023E0000190D9F80090A41BB244A54201D920461F
:1023F00000E028460646002CDCD1BDE8FF9FF8B57A
:10240000044600256A4629462046FDF76AFF06462F
:102410003046F8BDF8B5044601256A4629462046EF
:10242000FDF752FF06460098F8BD70B50446002639
:102430000020FFF711FC206800686168884215D908
:1024400020680068401E226810600178204600F075
:102450002FF80646207A21680978401AC5B220680C
:102460000079A84201DA2068057100BF0020FFF75B
:10247000F8FB304670BD0246D068081A138AB0FBDC
:10248000F3F0C0B2704770B504460D462E460020EA
:10249000FFF7E2FB31462046FFF7EDFF21680A68AF
:1024A000511C2368196010700020FFF7DAFB70BD23
:1024B0000246138AD06801FB0300704700B97047D9
:1024C00000BF00BF00BF00BF00BF00BF00BF00BF14
:1024D00000BF1F4909681F4A914200D130E000BF88
:1024E00000BF00BF00BF00BF00BF00BF00BF00BFF4
:1024F00000BF00BF00BF00BF00BF00BF00BF00BFE4
:1025000000BF00BF00BF00BF00BF00BF00BF00BFD3
:1025100000BF00BF00BF00BF00BF00BF00BF00BFC3
:1025200000BF00BF00BF00BF00BF00BF00BF00BFB3
:1025300000BF00BF00BF00BF00BF00BF00BF00BFA3
:1025400001460139084600D0BBE700BFB7E70000ED
:10255000600000200024F40070B50B4601461A46C6
:10256000002907DA5407260E104C01F00F052D1F25
:10257000665503E05407250E0D4C655400BF00BF9F
:1025800000F01F02012191400A4A440942F8241038
:1025900000BF00BF00F01F020121914042099200DC
:1025A00002F1E022C2F8001100BF70BD18ED00E09A
:1025B00000E400E080E200E00146C1F3073250B2DF
:1025C00070470146C1F3073250B27047014601F02F
:1025D0006040B0F1005F01D1012070470020FCE7AE
:1025E00070B504461448007808B1852070BD0CB160
:1025F000204600E011480546297801F00100104905
:10260000086000BF00BF00204109890001F1E021FE
:10261000D1F8001101228240114009B1012100E0EE
:10262000002119B907210020FFF796FF00BF012004
:10263000014908700020D9E718000020113F000070
:10264000780500402DE9F0410646002700250427C3
:10265000154D002422E00020FFF7FEFA204600F08E
:102660006FF8284078B12046FFF7B8FD58B900BF91
:10267000204600F065F80D49096808430B490860D9
:1026800000BF347000270020FFF7EBFA07B907E01E
:10269000204600F055F88543601CC4B2002DDAD105
:1026A00000BF3846BDE8F081FFFF0F00100000209A
:1026B0002DE9F04106460C46154600BF14B90E2020
:1026C000BDE8F08100BF00BF0DB90E20F8E700BFE4
:1026D00000273046FFF79AFD08B907270EE030467D
:1026E000FFF77CFD08B9082708E000BF044840F860
:1026F000364000EBC600456000BF00BF3846DFE74C
:1027000010F5014070B5044600252046FFF776FD20
:1027100008B9072510E02046FFF778FD28B12046CC
:10272000FFF75CFD08B9082506E000BF0120A040C6
:102730000249086000BF00BF284670BD04F5014093
:1027400001460120884070470449097821B90121D8
:10275000024A1170002000E0852070470C00002024
:1027600070B506460D46122000F0ECFE2B48007CAA
:10277000022805D1122000F0EBFE1124204670BD86
:102780002648007C012823D12448C06828B10220B3
:1027900000F0DEFE11242046F1E72048C6600583E4
:1027A00090F82E0070B900BF4FF4807000F0B4FEB6
:1027B0000028F9D04FF4807000F0B8FE294630466A
:1027C00000F05EFE022000F0C3FE00242046D6E7A3
:1027D000022000F0BDFE0120104908740846466042
:1027E00005810020C860084690F82E0038B10846E0
:1027F000458390F82D10304600F042FE0AE029464D
:10280000304600F03DFE4FF4807000F08FFE002057
:1028100000F0A4FE00242046B1E7000024030020BD
:1028200070B505460C461E48007C10B11126304696
:1028300070BD207910B12079012805D100BF00209A
:102840001849086000BF00BF15481C3010F815007B
:1028500030B9134890F82D00401C114981F82D0023
:10286000E1790F481C3000F81510217A00EB450083
:1028700041702146284600F00BFE227AE179284675
:1028800000F03EFE207910B12079012805D100BF6B
:1028900001200449086000BF00BF00263046C7E79A
:1028A000240300200075004070B504460E462448FD
:1028B00090F82C0010B10825284670BD16B90725E0
:1028C0002846FAE704B91F4C1D48066020781E49C7
:1028D000086000BF6078091D086000BFE0781849F3
:1028E00081F82E00012081F82C000020087481F866
:1028F0002D00486181F82F006FF0004000F022FEAB
:102900004FF4827000F012FE4FF4807000F00EFE63
:10291000A1780720FFF720FE022000F019FE0848EA
:1029200090F82E0010B1012000F012FE00BF01202F
:102930000549F039086000BF00252846BDE70000C2
:1029400024030020123F0000F0750040054991F873
:102950002E1009B1002100E004210846024901447B
:102960000846704724030020007000402DE9F04124
:1029700005460C4616461F46204600F01DFE8046C2
:1029800027B14146286800F026FE03E0414628684A
:1029900000F01EFE286800F5A86141F8246000BF21
:1029A000BDE8F08110B504460021206800F01CFE4F
:1029B0000220217901EB4101024A02EB81010872F8
:1029C00010BD0000540300202DE9F04105460E46DD
:1029D00017461C46DDF818804FF48072B240012380
:1029E000B34042EA0301286800F0F8FD2868D0F8F7
:1029F00000122143C0F8001200BF43463A46314658
:102A00002846FFF7B3FFBDE8F08100002DE9F0474D
:102A100004460D469146207900EB4000254901EB24
:102A20008006307A18B108273846BDE8F087B9F13A
:102A3000000F02D107273846F7E7C6F8009068680C
:102A400070604FF000080BE0404600F0AEFD82469B
:102A50005146206800F0B5FD08F1010000F0FF08C4
:102A600060794045F0DC2068FFF7A6FD8246E978F2
:102A7000FFF772FD69782068D0F8042561F3010240
:102A8000C0F8042500BFA9782068D0F8082561F3B4
:102A90000102C0F8082500BF29782068D0F8102569
:102AA00061F30302C0F8102500BF01203072002737
:102AB0003846BAE7540300202DE9F04105460E469A
:102AC000174628791C4901EB40144FF00008E07EBE
:102AD00020B14FF008084046BDE8F081707F2077B4
:102AE00031462846FFF7D8F8676030692060606893
:102AF00018B1317F2846FFF7FDFA00BF28790E494B
:102B000001EB4010007F28B128680821C0F80015AB
:102B100000BF05E028680421C0F8001500BF00BF11
:102B200000BF0020E0752076A0750120E07600202F
:102B3000A0764046D0E70000600300202DE9F04772
:102B400004460E4617462079304901EB401520799E
:102B500001EB4010007F40B13046FFF737FD20B950
:102B60004FF010084046BDE8F0874FF00009686854
:102B700080B12079254901EB4010007F28B14FF446
:102B80000471206800F07DFD04E04FF401712068BD
:102B900000F046FDE87DD0B1287EB0B1686880B114
:102BA00020791A4901EB4010007F28B14FF40471DD
:102BB000206800F069FD04E04FF40171206800F026
:102BC00032FD4FF011084046CDE74FF00109B9F151
:102BD000000F05D1EF75EE6000206876287601E0E1
:102BE0002E612F762079094901EB4010007F30B12A
:102BF0004B463A463146204600F08AF8B3E74B464A
:102C00003A463146204600F01DF8ACE7600300204C
:102C100010B5044620790A4901EB4010007F68B9DD
:102C2000207901EB4010807E40B9204600F06CFD19
:102C300001202179024A02EB4111887610BD000083
:102C4000600300202DE9F05F04468B469946207909
:102C50002E4901EB4015A87E28B9B9F1000F02D129
:102C6000204600F051FD6868002846D14FF4A2715B
:102C7000206800F0C9FC00BF00BF4FF492712068CB
:102C800000F0BBFC80464FF48471206800F0B5FC76
:102C900082464FF4A271206800F0AFFC0646BAF1FC
:102CA000000F03D116B9B8F1000FE6D0B8F1000F4C
:102CB00000D106B107E02946206800F0F7FCE87D66
:102CC000697E8842D8DC00BF0020E875B8F1000FAB
:102CD00003D003273846BDE8F09F16B10F273846CA
:102CE000F9E7A87E20B10021206800F0A8FC03E0ED
:102CF0000421206800F0A3FC04E04FF40171206877
:102D000000F091FC00273846E5E700006003002052
:102D10002DE9F05F04460D46164699464FF0000A2D
:102D20004FF48871206800F09FFC4FF4A271206876
:102D300000F09AFC2068C0F834554FF4A7610E509B
:102D400000BFB9F1000F04D10021206800F0A4FCFD
:102D500008E020212068D0F800220A43C0F80022B1
:102D600000BF00BF20791B4901EB4010406848BB01
:102D700000BF4FF48871206800F06FFC83464FF469
:102D8000A271206800F069FC80464FF492712068BF
:102D900000F063FC0746BBF1000F04D1B8F1000F4F
:102DA00001D1002FE5D0002021790A4A02EB411120
:102DB000C8750FB14FF0030AB8F1000F01D04FF002
:102DC0000F0A04E04FF40471206800F05DFC5046E7
:102DD000BDE8F09F600300202DE9F04104460D4658
:102DE00090462079144901EB4016207901EB401000
:102DF000007F38B12846FFF7E9FB18B9102738469D
:102E0000BDE8F081204600F09DF810B1112738464A
:102E1000F6E786F81680B5600020B0822079064972
:102E200001EB4010007F18B1204600F04DF8E7E7B5
:102E3000204600F003F8E3E76003002070B5044685
:102E40002079204901EB401500264FF48E7120684F
:102E500000F0DAFB0821206800F0F1FB2946206829
:102E600000F057FE686858BB12E000BF4FF48E7147
:102E7000206800F0C2FB18B9A88AB0F5807FF5D1B0
:102E8000A88AB0F5807F03D02946206800F041FE73
:102E9000A88AA97D8842E8DBA88AB0F5807F01D1A5
:102EA0000F260BE000BF4FF48E71206800F0A5FBE9
:102EB0000028F8D00C21206800F0C1FB0020A87584
:102EC000304670BD600300202DE9F04104462079B2
:102ED0001B4901EB40154FF000084FF4907120683A
:102EE00000F0C2FB4FF4AC71206800F0BDFB20681D
:102EF000AA7DA968C0F844154FF4A9631A5000BF11
:102F00000821206800F0C8FB6868A8B900BF4FF42A
:102F10009071206800F0A1FB07464FF4AC71206867
:102F200000F09BFB06460FB9002EF0D00EB14FF01B
:102F30000F080020A87500BF4046BDE8F0810000E2
:102F40006003002001460879044A02EB4010807DAE
:102F500008B1012070470020FCE70000600300205A
:102F6000F0B5DDE9054500BF4FF0A0473E4641EA18
:102F7000420747EA830747EA042747EA054C06F574
:102F8000E06747F820C0F0BD7CB505460C46002040
:102F9000009023460246014601902846FFF7E0FFD5
:102FA0007CBDF0B501210A4600231C461D4600BF2A
:102FB0004FF0A0473E4641EA420747EA830747EA07
:102FC000042747EA054C06F5E06747F820C000BF34
:102FD000F0BD1CB5044600200090034601221146B6
:102FE00001902046FFF7BCFF1CBD00BF4FF0A04181
:102FF0000A46012303FA00F1C2F80C1500BF70471E
:1030000000BF4FF0A0410A46012303FA00F1C2F8C5
:10301000081500BF704700BF4FF0A0410A460123CA
:1030200003FA00F1C2F8081500BF70472DE9F04F10
:103030008BB0FEF7D9FE18B100200BB0BDE8F08FC1
:1030400000209449C1F8140408464468856804EADD
:1030500005000C3101EB800A00270FE0641CBAF870
:103060000000C0F38910DAF8001000EB915004441E
:1030700004EA050087490C3101EB800A9AF8000048
:1030800000F003000028E9D04FF000080BE02046D4
:10309000641C28407F490C3151F8200008A941F8F0
:1030A000280008F10108B8F1020FF0D3089800F0E9
:1030B000030002287CD10898800D069050210898C2
:1030C000B1EB905F02DD0898800D00E05020834650
:1030D00008986BF39F5008900BF108000590089832
:1030E000C0F3C20007906C48059900F0FDF8064651
:1030F000002E5BD0304600F054F93B46082208A968
:10310000304600F075F9083704EA0500691C081A12
:103110004FEA8009CB4536D9B9F1000F06D004EA51
:1031200005005C490C3101EB800001E059480C308E
:103130000490B9F1000F01D0484600E05846C0B2F3
:103140000390B9F1000F02D052480C3000E000208B
:103150000290B9F1000F02D0ABEB090000E00020B3
:10316000C0B201903B463046DDE9032100F040F952
:1031700003980744029828B13B463046DDE9012117
:1031800000F036F90DE004EA050042490C3101EB8C
:10319000800004903B465A463046049900F028F9D6
:1031A00000BF0698C01C04EB900400BF40E0FFE79E
:1031B0000898C0F38310062803DA0898C0F3831038
:1031C00000E00620089960F3891108910898C0F37F
:1031D000831000F102090898C0F3C20007904FEA7B
:1031E00089012D4800F080F8064606B3304600F00D
:1031F000D8F83B46082208A9304600F0F9F808370D
:103200004FF000080EE02046641C2840214A0C3292
:1032100002EB80013B460422304600F0E9F83F1DF6
:1032200008F101080898C0F383104045EBD800BFAF
:1032300056B31A48FFF7E3F806901648D0F81094F2
:1032400016E04FF0000B00BF99F80900012800D1EB
:103250008346BBF1000F08D000BFD9F8000031460B
:1032600002684846904700BF00BFD9F8049000BFED
:10327000B9F1000F02D006980028E2D0304600F0E5
:103280009FF80448446000BFFEF7AEFD80F00100E7
:10329000D3E600006C0400201440000080080020E9
:1032A00070B504460D4600231A462946204600F014
:1032B00001FC70BD70B50B48D0F8104401200949DD
:1032C00081F81C040AE000BF0120607200BF25469F
:1032D000286841682846884700BF6468002CF2D1FE
:1032E00070BD00006C0400202DE9F84F07468A46A7
:1032F000388AA0F104080AF104004044401EB0FBE3
:10330000F8F0C0B200903846FFF78FF8044614B9C1
:103310000020BDE8F88F0020207101216171A4F820
:10332000068025460098A0F1010B2C462F604FF037
:10333000000912E03846FFF778F8064636B16079A2
:10334000401C60712E603760354604E0204600F076
:1033500008F80020DDE709F10109D945EAD3204644
:10336000D7E72DE9F05F0446274697F80580264603
:10337000A8F1010B002501E036686D1C5D45FBD30B
:10338000D6F800A02646002507E0D6F80090314682
:103390005046FFF778F84E466D1C4545F5D3BDE81D
:1033A000F09F2DE9F843044627463D1D01266A4655
:1033B00031462846FCF761FF804600BFBDE8F88330
:1033C0002DE9FC47044627463D1D01266A46314645
:1033D0002846FCF75FFF8146009801900DF1040834
:1033E00098F8000010B92046FFF7BBFFBDE8FC8746
:1033F000F8B504460D4616461F4600203B463246A9
:10340000294600902046FEF7A3FFF8BD00BF00F15B
:10341000804100220A60704770B504462046044689
:1034200004F18041096809B1012100E000210D4645
:1034300000BF15B12046FFF7E9FF284670BD000028
:1034400010B500200A49087000BF0A49086000BF93
:1034500000BF00BF00BFBFF35F8F00BF00BF00BF52
:1034600000BF0549054800F07FF8002010BD0000AE
:10347000300000202C000020E83F000080030020E6
:10348000024A1060121D1160704700002C76004047
:1034900010B50A7802F003024B78302404EA0313D3
:1034A0001A438B784FF4E06404EA03231A43CB7881
:1034B0004FF4805404EA03331A430B794FF4E024A9
:1034C00004EA03431A434B794FF4801404EA03538C
:1034D0001A438B79240104EA03631343074A02EB7E
:1034E00000129360CA790B7A044C04EB00146360F9
:1034F000024C04EB0014226000BF10BD10750040A8
:10350000044B03EB00135A60024B03EB00131960EA
:10351000704700001075004001460348085808B184
:10352000012070470020FCE70070004008B5002132
:10353000034A815011464158009100BF08BD000068
:1035400000700040014908607047000008730040A7
:103550000149086070470000047300400121014ADE
:10356000815070470070004070B504460D462560DC
:1035700028686060204600F001F870BD14E0D0E9D2
:1035800000215268914202D1002181607047416858
:10359000096842685268914203D0416809688160B5
:1035A000F4E7416808314160E9E701464FF4A07053
:1035B00000EB810080B2704701464FF480308840B4
:1035C000704708B5002242504258009200BF08BD23
:1035D000C0F808137047C0F804137047D0F80022F1
:1035E0008A43C0F8002270470122425070470146CA
:1035F000D1F88004C1F8800470470246505808B1E1
:10360000012070470020FCE708B5002242504258D4
:10361000009200BF08BDC0F80815C0F8102570471B
:10362000C0F808137047C0F8041370470246D2F878
:103630000403084008B1012070470020FCE7012284
:1036400042507047C0F81425C0F80C157047014669
:10365000D1F88004C1F8800470470246505808B180
:10366000012070470020FCE708B500224250425874
:10367000009200BF08BDC0F808154FF4A2631A50AD
:103680007047C0F808137047C0F80413704701462C
:1036900040F23C504058704701224250704740F27F
:1036A0000C53195040F214531A50704770B5054628
:1036B0000C46E07D40B94FF484712846FFF7A4FF23
:1036C00000BFD5F8180570BD4FF484712846FFF788
:1036D0009BFF00BFD5F81805C0B2627EE168885430
:1036E000607E401C607600BFEDE77FB504460D4666
:1036F000164601208DF800008DF8085001966846A6
:10370000D4E9001290477FBD10B504464FF4927182
:103710002068FFF779FF4FF484712068FFF774FF8A
:1037200000212068FFF78BFF10BD00002DE9F0415C
:103730002DED048B04462078002878D103216068A1
:10374000FFF70EF8074600BF3D4625B100BF2846EB
:10375000FEF7AEF900BF00BF0026002015E00021F3
:10376000444A1268032303FB0206626832F9102000
:10377000002A02DD626832F910103F4A52F8262012
:103780000A443D4B43F82620401C0328E7D3394820
:103790000068072803D237480068401C00E000207A
:1037A0003449086008460068FDF718F9172E04D15F
:1037B00032480068401C31490860304800680328DE
:1037C00052D1002540E09FED2E0AB0EE408A9FEDD9
:1037D0002C0AF0EE408A9FED2A0A10EE108A264845
:1037E00050F825000321B0FBF1F000EE100AB8EE0E
:1037F000400AB0EE408ABCEEC80A10EE100AFDF78F
:103800008BF9F0EE408AB0EE680AFDF7A1F910EEF0
:10381000108A172D0CD24046FCF763FF41EC190BC0
:1038200053EC192B294617A0FDF770FC0BE01CE0A8
:103830004046FCF756FF41EC190B53EC192B294677
:1038400012A0FDF763FC6D1C182DBCD300200B49A2
:10385000086060210848FCF7A4FD002005490860C5
:1038600008460068FDF7BAF800BFBDEC048BBDE860
:10387000F081000004000020C400002008000020A7
:1038800000000000252E31662C000000252E316638
:103890000D0A00002DE9FF412648006803902649E3
:1038A00003A8FFF701F8044600BF264626B100BF73
:1038B0003046FEF7FDF800BF00BF0525002618E0E2
:1038C0001C4A121D07CA8DE807008DF80750691EB3
:1038D000C8B26946FEF7A4FF044600BF274627B1D9
:1038E00000BF3846FEF7E4F800BF00BF681CC5B251
:1038F000761C032EE4DB03211048FEF731FF04465B
:1039000000BF264626B100BF3046FEF7D1F800BF03
:1039100000BF03210948801DFEF722FF044600BFB7
:10392000264626B100BF3046FEF7C2F800BF00BFF2
:10393000BDE8FF81043F00002D370000B8000020E3
:1039400070B507480078FEF7DDFE044600BF254647
:1039500025B100BF2846FEF7ABF800BF00BF70BD21
:10396000010000202DE9FE43FEF7EEFE044600BFF5
:10397000A046B8F1000F04D000BF4046FEF798F80B
:1039800000BF00BF314903C9CDE9010103208DF813
:1039900006002F4A01A92F48FFF738F8044600BF58
:1039A000A046B8F1000F04D000BF4046FEF780F8F3
:1039B00000BF00BF0221274B1A68D2F8100500BFD4
:1039C00002464FF47A5311FB03F323FA02F500BFCA
:1039D00000BF002001232A46014600901D48FEF743
:1039E000F3FF1C48FEF7DEFF00201A4B1A684FF465
:1039F000A07303EB800100BF561800BF00BFFEF7A5
:103A0000A5FF07461448FEF71DFE044600BFA0466A
:103A1000B8F1000F04D000BF4046FEF749F800BFE0
:103A200000BF3A4631460C480078FEF741FE044696
:103A300000BFA046B8F1000F04D000BF4046FEF71B
:103A400037F800BF00BFBDE8FE830000FC3E000069
:103A5000113B0000DC3E000001000020F0B50446F0
:103A60000D46059E18465B1C3040114F07EB800148
:103A7000086820F00300401C08602709086867F305
:103A800082000860086864F3C5000860086862F393
:103A900089100860086865F39F2008604FEA144C9D
:103AA00018465B1C3040024F47F820C01846F0BD56
:103AB000780400202DE9FC478046894616461C46BE
:103AC0001248876890F81C0408B1BDE8FC8701A97A
:103AD0002046FEF753F9B8B10097224649464046C2
:103AE000019BFFF7BBFF019000250AE056F8252057
:103AF0000198411C3840019104490C3141F82020C3
:103B00006D1CA542F2D300BF00BFDEE76C040020AD
:103B1000704770B505460C464FF48E712846FFF786
:103B200073FDA18AA068465CA08A401CA082304632
:103B3000C5F81C0500BF70BD7FB504460D460020CA
:103B40008DF800008DF80850A06801900020A07545
:103B50006846D4E9001290477FBD000030B58BB0B5
:103B60001822114905A8FCF703FC00BF0F4801907B
:103B70004FF4807002900E4803904FF480700490D0
:103B800007230C4A01A905A8FDF7D2FF044600BF90
:103B900000BF254625B100BF2846FDF789FF00BFBD
:103BA00000BF0BB030BD0000E43E00002401002047
:103BB000240200208D3C00007CB504460E4620788F
:103BC00000283FD0012802D002284ED12BE06068A7
:103BD00001782748FDF79BFF054645B101208DF888
:103BE0000000019568462349096888470AE0204893
:103BF000FEF75CFA30B100208DF8000068461D49E0
:103C0000096888471A48FEF751FA19498988884295
:103C100005D8012218491948FEF790FF02E001205B
:103C20001749087022E002208DF80000E06801903A
:103C3000012211491148FEF781FF68460D490968C4
:103C4000884713E00F491048FDF740FF28B90122CB
:103C50000C490A48FFF7C0F806E003208DF8000081
:103C6000684604490968884700E000BF00BF7CBD82
:103C70008C0300203C000020410000203400002084
:103C800042000020400000209C03002070472DE9E6
:103C9000FF4105460C464FF400712846FFF7C6FC6D
:103CA00048B34FF492712846FFF7A7FC18B34FF4BE
:103CB00092712846FFF7A8FC4FF401712846FFF7E0
:103CC000AFFCA07E18B904212846FFF7B8FC0220FB
:103CD0008DF800002846FFF78AFC0390E17D8DF8FF
:103CE0000810E06801900020E07520766846D4E96D
:103CF0000012904736E004212846FFF797FC002881
:103D000030D04FF484712846FFF777FC50B321463A
:103D10002846FFF7CBFCE07D617E884222D1207EE1
:103D200070B1E668677E207EE0752069E060002063
:103D300020766076324639462046FFF7D6FC11E001
:103D4000A07E18B904212846FFF779FC4FF40171D1
:103D50002846FFF765FC0020E075617EE26820469A
:103D6000FFF7C3FC4FF48E712846FFF746FC98B16D
:103D7000A08AA17D884204DA21462846FFF7C9FEC1
:103D80000AE04FF48E712846FFF73EFCA07D18B183
:103D9000A17D2046FFF7D0FE4FF4A2712846FFF721
:103DA0002CFC98B14FF4A2712846FFF72DFCA07EA1
:103DB00018B100212846FFF742FCE07D30B1002019
:103DC000E075617EE2682046FFF78FFCBDE8FF8169
:103DD0002DE9FF4105460C464FF492712846FFF746
:103DE0003CFCD8B14FF492712846FFF73DFC02200D
:103DF0008DF800002846FFF72AFC03902846FFF7BD
:103E000046FCC1B28DF80810E06801900020E07512
:103E100020766846D4E9001290472FE04FF488716D
:103E20002846FFF71AFC48B34FF488712846FFF77D
:103E30001BFC2846FFF72BFCC6B2E07DB0421CD12C
:103E4000207E98B1E7682020D5F800128143C5F89C
:103E5000001200BF207EE0752069E060002020761F
:103E60003A4631462046FFF740FC06E00020E07568
:103E700031462046E268FFF738FC00BF4FF4A271DC
:103E80002846FFF7EAFB88B14FF4A2712846FFF7F6
:103E9000EBFBE07D50B10020E0752846FFF7F7FB13
:103EA000C6B231462046E268FFF71FFC4FF490711E
:103EB0002846FFF7D2FB78B14FF490712846FFF700
:103EC000D3FBA07D40B100BF40F24C504059C6B278
:103ED00031462046FFF730FEBDE8FF8100800040FC
:103EE00000040000080000000600000005000000BB
:103EF00007000000000000000000001000000007A4
:103F000000000000020007000000000002000000A6
:103F10000001010007006E72665F6472765F736174
:103F20006164635F696E6974006E72665F64727665
:103F30005F73616164635F6368616E6E656C5F6926
:103F40006E6974006E72665F6472765F736161643D
:103F5000635F6368616E6E656C5F756E696E6974D0
:103F6000006E72665F6472765F73616164635F7333
:103F7000616D706C655F636F6E76657274006E72F2
:103F8000665F6472765F73616164635F62756666C3
:103F900065725F636F6E76657274006E72665F64E1
:103FA00072765F73616164635F73616D706C6500ED
:103FB0006E72665F6472765F73616164635F636192
:103FC0006C6962726174655F6F6666736574000028
:103FD00000000000000000000000000000000000E1
:103FE0000000000000000000D03F0000E83F00009B
:103FF00004000000FFFFFFFFFFFFFFFFFFFFFFFFC9
:10400000FFFFFFFF00000000000000000000D601DD
:1040100007010000540000204C0000205400002044
:10402000AC030020180000004F766572666C6F7755
:10403000000000007070690073616164630000003B
:1040400074696D6572000000756172740000000093
:1040500062616C6C6F6300007077725F6D676D7486
:104060000000000061707000C040000000000020EF
:10407000B80000002C11000078410000B8000020BA
:10408000D82700003C110000344000000000000070
:104090003840000000000000404000000000000028
:1040A00048400000000000005040000000000000F8
:1040B00058400000000000006440000000000300C1
:1040C00001000000000000000000000000000000EF
:1040D00000000000000000000000000000000000E0
:1040E00000000000000000000000000000000000D0
:1040F0000000000000200040000000000000000060
:1041000000000000000000000000000000000000AF
:104110000000000000000000000000002840000037
:104120000090D0030000000000000000000000002C
:10413000000000000000000000000000000000007F
:10414000000000000000000000000000000000006F
:10415000000000000000000000000000000000005F
:10416000000000000000000000000000000000004F
:08417000000000000000000047
:0400000500000201F4
:00000001FF
