:020000040002F8
:10300000105F0020E9330200F1330200F3330200C5
:10301000F5330200F7330200F9330200000000002C
:10302000000000000000000000000000FB33020070
:10303000FD33020000000000FF33020001340200F3
:10304000BD3F020003340200594502000334020070
:103050000334020003340200153D0200FD3F02006C
:10306000033402000334020003340200033402007C
:10307000033402000334020003340200033402006C
:1030800003340200C93F020003340200033402008B
:1030900055420200033402005D4202000334020084
:1030A00003340200033402004145020003340200ED
:1030B000033402000334020000000000000000009E
:1030C000033402000334020003340200033402001C
:1030D0000334020003340200033402000000000045
:1030E00000000000000000000000000000000000E0
:1030F00000000000000000000000000000000000D0
:1031000000000000000000000000000000000000BF
:1031100000000000000000000000000000000000AF
:10312000000000000000000000000000000000009F
:10313000000000000000000000000000000000008F
:10314000000000000000000000000000000000007F
:10315000000000000000000000000000000000006F
:10316000000000000000000000000000000000005F
:10317000000000000000000000000000000000004F
:10318000000000000000000000000000000000003F
:10319000000000000000000000000000000000002F
:1031A000000000000000000000000000000000001F
:1031B000000000000000000000000000000000000F
:1031C00000000000000000000000000000000000FF
:1031D00000000000000000000000000000000000EF
:1031E00000000000000000000000000000000000DF
:1031F00000000000000000000000000000000000CF
:10320000DFF80CD000F04AFC00480047ED6D0200EA
:10321000105F002030B4044654E8000F0D4644E827
:103220000053002BF8D1156030BC704730B4044611
:1032300054E8000F40EA010544E80053002BF7D1A1
:10324000156030BC704730B4044654E8000F00EA03
:10325000010544E80053002BF7D1156030BC7047DE
:1032600030B4044654E8000F80EA010544E80053F6
:10327000002BF7D1156030BC704730B4044654E8D9
:10328000000F00EB010544E80053002BF7D1156057
:1032900030BC704730B4044654E8000FA0EB010581
:1032A00044E80053002BF7D1156030BC7047000094
:1032B00030B4044654E8000F0D4644E80053002B98
:1032C000F8D1156030BC704730B4044654E8000FA4
:1032D00040EA010544E80053002BF7D1156030BCEB
:1032E000704730B4044654E8000F00EA010544E892
:1032F0000053002BF7D1156030BC704730B4044642
:1033000054E8000F80EA010544E80053002BF7D190
:10331000156030BC704730B4044654E8000F00EB31
:10332000010544E80053002BF7D1156030BC70470D
:1033300030B4044654E8000FA0EB010544E8005304
:10334000002BF7D1156030BC7047000030B4044644
:1033500054E8000F0D4644E80053002BF8D11560E7
:1033600030BC704730B4044654E8000F40EA010511
:1033700044E80053002BF7D1156030BC704730B4DF
:10338000044654E8000F00EA010544E80053002B0E
:10339000F7D1156030BC704730B4044654E8000FD4
:1033A00080EA010544E80053002BF7D1156030BCDA
:1033B000704730B4044654E8000F00EB010544E8C0
:1033C0000053002BF7D1156030BC704730B4044671
:1033D00054E8000FA0EB010544E80053002BF7D19F
:1033E000156030BC7047000006488047064800471B
:1033F000FEE7FEE7FEE7FEE7FEE7FEE7FEE7FEE7A5
:10340000FEE7FEE7A9420200013202002DE9F05F6B
:103410000546002092469B46884606468146402443
:103420001BE0284641464746224600F062FA5346D2
:103430005A46C01A914110D311461846224600F050
:1034400049FA2D1A67EB01084F4622460120002158
:1034500000F040FA17EB00094E41201EA4F10104D0
:10346000DFDC484631462A464346BDE8F09F00006F
:103470000048704780AF020040EA01039B0703D079
:1034800009E008C9121F08C0042AFAD203E011F8A3
:10349000013B00F8013B521EF9D27047D2B201E065
:1034A00000F8012B491EFBD270470022F6E710B549
:1034B00013460A4604461946FFF7F0FF204610BDA2
:1034C00010B5044604E00B7800F8013B03B1491C39
:1034D000521EF8D2204610BD421C10F8011B0029D4
:1034E000FBD1801A704710B5044600E0401C0378F9
:1034F000002BFBD100E0401C521E04D311F8013B0D
:103500000370002BF7D100210170204610BD034647
:1035100011F8012B00F8012B002AF9D11846704749
:103520002DE9FE4F804681EA0300C00F0C46009053
:1035300021F0004123F00045B8EB0200A94105D27B
:103540004046214690461C460B46024623F000406A
:10355000104347D0270DC7F30A00C3F30A51029066
:10356000401A019040286BDAC3F3130040F4801B2B
:103570000098924620B10023D2EB030A63EB0B0BB9
:1035800001985946C0F14002504600F0A3F90646A2
:103590000D4650465946019A00F0BBF910EB080061
:1035A0006141002487EA115284EAE7731A4340D04C
:1035B000009A62B3019A012A4FEA075215DC001BF8
:1035C00061EB02014FF0004202EA0752CDE90042EE
:1035D000001C41F5801132462B4600F010FA03B072
:1035E000BDE8F08F40462146F9E7001B61EB020180
:1035F000001C41F5801300185B412018A2F500174C
:1036000047EB030140EAD570B6196D4111E06D0832
:103610004FEA360645EAC0754FEA0752001B61EBD8
:103620000201001C41F5801149084FEA30000019E1
:10363000514132462B4603B0BDE8F04F00F0D0B9FF
:103640000098012240000023D0EB020263EBE073FC
:10365000009821464FEAE074B8EB000061EB0401EA
:10366000E9E783F000435BE781F0004158E72DE98B
:10367000FE4F81EA030404F0004421F0004100946D
:103680004FF0000B23F0004350EA01045ED052EAF1
:1036900003045BD0C3F30A54C1F30A552C44A4F2CB
:1036A000F3340194A0FB0254C1F3130141F48011DF
:1036B000C3F3130343F4801301FB024400FB034EE6
:1036C000840A970A44EA815447EA8357A4FB0768AF
:1036D00002958D0A05FB07854FEA932C04FB0C54D9
:1036E0002705029D4FEA065847EA1637B5EB08054D
:1036F0006EEB070C870E920E47EA811742EA83129F
:10370000A7FB0201B6EB0B0164EB00042B0D43EAAF
:103710000C335E1844EB1C50DA465146E7FB0201BD
:10372000C5F313044FEA0B3343EA14534FEA043250
:10373000019C43EA0603A4F10C040294009CCDE929
:1037400000B400F05CF903B0BDE8F08F0020014642
:10375000F9E72DE9F04D81EA030404F0004B21F074
:10376000004514464FF0000A23F0004150EA0502DC
:1037700020D054EA01021DD0C5F30A570246C5F312
:103780001303C1F31300C1F30A5640F4801543F448
:103790008013A7EB0608101BD64608F2FD3873EB22
:1037A000050002D308F1010801E092185B41B8F16D
:1037B000000F03DA00200146BDE8F08D00204FF431
:1037C0008011064684460EE0171B73EB050705D3F0
:1037D000121B63EB050306434CEA010C49084FEA50
:1037E000300092185B4150EA0107EDD152EA030024
:1037F00012D082EA040083EA0501084305D0101BB9
:10380000AB4106D20122002306E000224FF0004324
:1038100002E06FF0010253101AEB06004CEB085166
:1038200010EB0A0041EB0B01BDE8F04D00F0D8B8F9
:103830000EB540F2334102910021CDE900110A4654
:103840000B4600F0DCF803B000BD00F0004230F0A1
:1038500000400AD0C10D01F56071C0F3160042EAC4
:103860000151C208400711437047002001467047CC
:1038700001F0004330B421F0004150EA010206D0CB
:103880000A0DA2F56072C1F31301002A02DC30BCFC
:1038900000207047440F44EAC104C100E01830BC66
:1038A00000EBC25000F047B830B50B46014600208F
:1038B0002022012409E021FA02F59D4205D303FAF2
:1038C00002F5491B04FA02F52844151EA2F1010273
:1038D000F1DC30BD202A04DB203A00FA02F100209E
:1038E00070479140C2F1200320FA03F3194390403E
:1038F0007047202A04DB203A21FA02F000217047A9
:1039000021FA02F3D040C2F1200291400843194647
:103910007047202A06DBCB17203A41FA02F043EA2F
:10392000E07306E041FA02F3D040C2F12002914078
:103930000843194670470029A8BF7047401C49003A
:1039400008BF20F00100704710B4B0FA80FC00FA04
:103950000CF050EA010404BF10BC704749B1CCF12F
:10396000200421FA04F411FA0CF118BF01212143BB
:103970000843A3EB0C01CB1D4FEA00614FEA102076
:1039800042BF002010BC704700EBC3501044002918
:10399000A4BF10BC7047401C490008BF20F00100C4
:1039A00010BC704710B541000CD0C0F3C751962928
:1039B00008DC7E2909DC06DB410204D000F000406F
:1039C00040F07E5010BD002010BDC1F19604C4F13E
:1039D000200100FA01F1E040FFF7ADFFA04010BD6B
:1039E00010B5141E73F1000408DA401C41F1000107
:1039F00092185B411A4301D120F0010010BD2DE95E
:103A0000F04D92469B4611B1B1FA81F202E0B0FA54
:103A100080F220329046FFF75DFF04460F4640EAF1
:103A20000A0041EA0B0153465A46084313D0114697
:103A300053EA010019D0C8F140025046FFF759FF80
:103A400005460E46504659464246FFF743FF084397
:103A500005D0012004E020463946BDE8F08D002065
:103A6000054346EAE0762C4337430A986305E40AA7
:103A7000A0EB08000022FD0A44EA47540A3002D5B0
:103A800000200146E9E7010510196941DDE9084513
:103A900000196941BDE8F04DA2E70000064C074D52
:103AA00006E0E06840F0010394E80700984710340E
:103AB000AC42F6D3FFF7A8FB84B60200A4B602001E
:103AC00070B58C1810F8015B15F0070301D110F8E0
:103AD000013B2A1106D110F8012B03E010F8016B0D
:103AE00001F8016B5B1EF9D12B0705D40023521E90
:103AF0000DD401F8013BFAE710F8013BCB1A921CF8
:103B000003E013F8015B01F8015B521EF9D5A142F5
:103B1000D8D3002070BD10B50446082C75D2DFE85C
:103B200004F004142434445464750E2004F0B1FAF3
:103B30000B2004F097FA0C2004F094FA0D2004F006
:103B400091FA0E2004F08EFA80E00E2004F0A1FA23
:103B50000B2004F09EFA0C2004F084FA0D2004F0EF
:103B600081FA0E2004F07EFA70E00E2004F091FA43
:103B70000B2004F077FA0C2004F08BFA0D2004F0EF
:103B800071FA0E2004F06EFA60E00E2004F081FA63
:103B90000B2004F07EFA0C2004F07BFA0D2004F0D8
:103BA00061FA0E2004F05EFA50E00E2004F071FA83
:103BB0000B2004F057FA0C2004F054FA0D2004F006
:103BC00068FA0E2004F04EFA40E00E2004F061FA8C
:103BD0000B2004F05EFA0C2004F044FA0D2004F0EF
:103BE00058FA0E2004F03EFA30E00E2004F051FAAC
:103BF0000B2004F037FA0C2004F04BFA0D2004F0EF
:103C000048FA0E2004F02EFA20E00FE00E2004F017
:103C100040FA0B2004F03DFA0C2004F03AFA0D2093
:103C200004F037FA0E2004F01DFA0FE00E2004F025
:103C300030FA0B2004F016FA0C2004F013FA0D20D1
:103C400004F010FA0E2004F00DFA00BF00BF10BD02
:103C500010B52DED048B04462046FFF7E9FD41EC3D
:103C6000190B9FED070B53EC102BFFF700FD41ECF8
:103C7000180BFFF7FDFD00EE100ABDEC048B10BD24
:103C8000CDCCCCCCCCCC4C3F10B52DED0C8BB0EECC
:103C9000408A18EE100AFFF7D8FD41EC1D0B9FED8E
:103CA000180B53EC102BFFF754FD41EC1C0B9FED50
:103CB000160B53EC102BFFF7D7FC41EC1A0B9FEDC2
:103CC000140A28EE000A10EE101A0846FFF7BDFD90
:103CD00041EC1C0B9FED0A0B53EC102BFFF739FD49
:103CE00041EC1B0B53EC1A2BFFF733FD41EC190B86
:103CF000FFF7BEFD00EE100ABDEC0C8B10BD0000FE
:103D00009A99999999D92140000000000000F43F48
:103D10000060A9442DE9F04F89B04FF00008002061
:103D200008904FF4807007900126002413E0079854
:103D300004F000FA48B100BF81480068304020B16B
:103D4000079804F0E9F948EA060876000798001D8C
:103D500080B20790641C082CE9D34FF4BE7004F0C5
:103D6000E9F950B14FF4BE7004F0D6F948F00048BC
:103D700008AA0121002004F0B5F908F0FF0000B303
:103D8000012600241BE006EA0800B0B100BF6D4820
:103D900050F82400C0F30420074600BF694850F8DB
:103DA0002400C0F301408146204602F071F8054628
:103DB00015B149463846A84700BF7600641C082C58
:103DC000E1D308F0004000287ED000200690059046
:103DD000002505E04FF0FF3004A941F825006D1CD7
:103DE000002DF7D000BF0020069000246FE0564859
:103DF000005D0390039820F0C00753480057401C13
:103E0000002863D004A9384603F04BF900285DD0A0
:103E100003984FEA901A384602F082F8814602F081
:103E200037F80290029810B9BAF1030F4BD1BAF1EA
:103E3000030F11D1394605A80246CB0801F007014E
:103E400012F803C04FF0010E0EFA01FE4CEA0E0C00
:103E500002F803C000BF00BF00BF00BF4FF0A04189
:103E6000084600F5E06151F82710C1F3014900BF91
:103E700008A9384603F015F98346BBF1000F02D0BC
:103E8000B9F1020F05D0BBF1000F1BD1B9F1030F3F
:103E900018D1BAF1030F0FD1B9F1020F01D10320EC
:103EA00000E0022001903846019904F0C2F806981B
:103EB000401CC0B2069000BF029818B15146384667
:103EC000029A904700BF00E036E000BF641C042C5B
:103ED0008DD3069858B3012703AA0121002004F0CE
:103EE00001F900250AE003A850F8250008A951F8B7
:103EF0002510884201D0002702E06D1C002DF2D071
:103F000000BF17B10020069010E000250CE003A8C8
:103F100050F8250008A941F8250005A850F825000B
:103F200004A941F825006D1C002DF0D000BF0698B3
:103F300000287FF458AF00BF09B0BDE8F08F000043
:103F40000463004010650040A035002000F01F020F
:103F500001219140024A430942F8231070470000B2
:103F600080E200E000F01F0201219140420992002E
:103F700002F1E022C2F800117047000000F01F02B9
:103F800001219140024A430942F823107047000082
:103F900000E200E010B5002807DA4A07140E054ACF
:103FA00000F00F031B1FD45403E04A07130E024A0C
:103FB000135410BD18ED00E000E400E010B503F06C
:103FC000C7F903F06DFB10BD10B50020094908606A
:103FD00000210948C0F84411C0F84811C0F84C113C
:103FE00000200549C1F8000102493C39086006F08B
:103FF00047FB10BD4011014000100140FEB54FF4D9
:10400000827004F013FE002837D04FF4827004F061
:1040100017FE6C4890F82E0018B16A4890F82F00EF
:1040200058B300208DF8000066484068019065484C
:104030000189ADF80810C06818B9002061490874FA
:1040400012E06048008B5F4948830846C0684860BA
:104050000846008B08810020C860084690F82E00B2
:1040600010B9002004F004FE5648016868468847ED
:104070000020544981F82F0000BF524890F82E00CC
:10408000002852D04FF4807004F0D0FD00284CD0AE
:104090004FF4807004F0D4FD4A48408B494991F8B0
:1040A0002D10884216DD4748408B464991F82D1067
:1040B000401A444948830A4612890B465B8BD21A40
:1040C0000B465B6803EB42000A4692F82D1004F0A1
:1040D00061FD23E03B48408B3A4991F82D1088421E
:1040E0000FD13848C06860B10120364981F82F00EF
:1040F000002048830A4692F82D10D06804F04AFD4B
:104100000CE03048408B2F4991F82D10884205D1A2
:1041100001202C4981F82F00002048834FF4827041
:1041200004F08EFD042004F0A3FD4FF4887004F029
:104130007DFD70B14FF4887004F082FD00202149AC
:10414000087402208DF80000084601686846884718
:1041500000BF4FF48A7004F069FD38B14FF48A70E3
:1041600004F06EFD0020174908742AE015484569DF
:1041700024E0B5FA85F64FF00040F0408543B000EA
:1041800000F58C74204604F051FDB8B1204604F0CF
:1041900057FD01208DF80000A4F58C70C0F3C70016
:1041A0008DF80400A4F58C70012121EA90018DF8AE
:1041B0000510044801686846884700BF002DD8D123
:1041C00000BFFEBDD435002010B500F0D7F910BDFA
:1041D0002DE9F047074688461646C24607EB4701D9
:1041E0001B4800EBC109D9F8140020B1012811D0F7
:1041F000022826D11EE0484600F0F8F90546B542EF
:1042000001D2002405E0344632465146484600F0CB
:1042100034FA18E0484600F0E9F90546B54201D203
:10422000284600E03046044622465146484600F003
:1042300024FA08E032465146484600F0E5F90446C3
:1042400001E0002400BF00BF2046BDE8F087000069
:10425000A03C002010B506F01DF910BD10B504F00B
:10426000E1FE10BD10B50B2003F0CBFE0C2003F0D7
:10427000C8FE0D2003F0C5FE0E2003F0C2FE0B2089
:1042800003F0F0FE0C2003F0EDFE0D2003F0EAFE3B
:104290000E2003F0FEFE10BD014802490860704781
:1042A0000090D003B02A002010B502F0B1F828B178
:1042B00092480088C0F304209149086002F0FCF89D
:1042C00010B190489049486702F01EF930B18B4810
:1042D000E0380068C0F342308C49086002F03EF9D3
:1042E00028B18B48006820F080708949086002F08E
:1042F0004DF948B10020874908604FF08041C1F86E
:1043000010018249091F086002F06AF918B1032000
:104310007E496431086002F07BF968B105207E496E
:10432000086001207C497831086000207A49083112
:1043300008603F20091F086002F082F9002855D06C
:104340006E48E0300068754908606C48E4300068E9
:10435000091D08606948E8300068091D0860674861
:10436000EC300068091D08606448F0300068091DE1
:1043700008606248F4300068091D08605F48F83042
:1043800000686649203108605C48FC300068091DFF
:10439000086063480068091D08606148001D0068E6
:1043A000091D08605E4808300068091D08605C4807
:1043B0000C300068091D08605948103000685749E2
:1043C00040310860564814300068091D08605448A0
:1043D00018300068091D086051481C300068091D2C
:1043E00008604F4820300068091D086001F0E6FFB2
:1043F00030B14248CC38006800F04F0049490860AD
:1044000002F030F840B14848006800F0010018B1EF
:104410006FF001004449086002F066F828B1434893
:10442000006840F480604149086039487438006889
:1044300040F4700036497439086000BF00BF00BF07
:10444000BFF34F8F00BF00BF00BF00BF00BF00BF62
:10445000BFF36F8F00BF00BF00BF3548006800F09A
:10446000004028B93248001D006800F00040E8B361
:1044700001203049086000BF2F4800680028FBD0A9
:1044800015202B49086000BF2B4800680028FBD08E
:1044900015212748001D016000BF2748006800283B
:1044A000FBD000202349086000BF23480068002893
:1044B000FBD000BF00BF00BF00BF00BFBFF34F8FE6
:1044C00000BF00BF00BF1248F038006800F4E06091
:1044D0001A490843001D0E49F039086000BF00BFAB
:1044E00000BFBFF34F8F00BF00BF00E003E000BF7D
:1044F00000BF00BFFDE7FFF7CFFE10BD2403001093
:10450000403501400DF0ADBA00C007403C05004009
:10451000FCED00E00C0100401056004020C50040BA
:1045200024040010E40E0040000400403C1700404A
:104530000012001004E5014000E401400000FA050B
:1045400010B506220249034802F0F1F910BD00003F
:10455000C835002000A0014010B50648007F20B1FA
:104560000449054806F0A2F903E00249024806F0B2
:10457000FCF810BDA83500200020004010B5124CFA
:1045800002202061606111A0A0611349E1614FF434
:10459000007121620021A1626162E1620BA0A0644E
:1045A0000E49E164102121650021A1656165E16585
:1045B0000BA1E01DFEF7ABFF0AA12046FEF7A7FF07
:1045C0002020A07110BD0000883C00205465726D51
:1045D000696E616C00000000003D0020003F00207B
:1045E00052545400534547474552000010B5014608
:1045F0000A69CB689A4204D88C68641EE41AA01831
:1046000001E0D41A601E10BD2DE9F047044689462A
:1046100017464FF0000AE56800BFD4F81080A8459F
:1046200003D9A8EB0500461E04E0A5EB0800401CDA
:10463000A1680E1AA068401BB04201D9304601E0C3
:10464000A068401B0646BE4201D2304600E0384614
:1046500006466168481932464946FEF70DFFB244E6
:10466000B144BF1B3544A068A84200D10025E560D5
:10467000002FD2D15046BDE8F0872DE9F04704461F
:1046800089461546E668A068871BAF4208D961686D
:1046900088192A464946FEF7EFFE7019E06010E0DF
:1046A000B8466168881942464946FEF7E5FEA5EB23
:1046B000070809EB070142466068FEF7DDFEC4F813
:1046C0000C80BDE8F08700000FB4054B10B503A9BE
:1046D000044A029800F09AF810BC5DF814FB000040
:1046E0000F6702004C2A00200FB4084B10B504A934
:1046F00002AA039800F08AF8044602A9002000F0FC
:104700002FF9204610BC5DF814FB0000614902003F
:1047100010B52DED028BB0EE408A18EE100AFFF7AF
:1047200041F901EE100A18EE100AB7EE000A78EE11
:10473000410A10F0004F4FF07F4010EE901A12D057
:10474000B1F13F4F24BF10EE901AB0EB410F12D2DF
:1047500010EE901AB1F17C5F1CDD10EE901AB0EBF8
:10476000410F17D314E0B1F13F4F07D910EE901A63
:10477000B0EB410F02D331EE401A0BE010EE901A6D
:10478000B1F17C5F06DB10EE901AB0EB410F01D364
:1047900031EE001A18EE100ABDEC028B11EE101A61
:1047A00061F31E0000EE100A10BD02E008C8121FDF
:1047B00008C1002AFAD170477047002001E001C10A
:1047C000121F002AFBD170470146202908DA012078
:1047D00088400A4A104008B1012070470020FCE7D9
:1047E000402909DAA1F12000012202FA00F008B103
:1047F0000120F2E70020F0E70120EEE7FC06FFBD14
:1048000000BFEFF31081084672B670472DE9FF4FE5
:1048100089B09B460446002506E025280BD05A4661
:104820000B999047641C6D1C20780028F5D10DB0C1
:104830002846BDE8F08F0027B8460122474900E02E
:10484000074314F8013F203B02FA03F00842F7D176
:1048500020782E2819D114F8010F47F004072A28D0
:104860000ED06FF02F022078A0F1300109290CD86A
:1048700008EB880102EB410100EB0108641CF2E740
:104880000A98641C50F8048B0A9020780028CED037
:10489000642808D0692806D075281ED05A460B997E
:1048A00090476D1C58E00A994FF00A0901C90A9116
:1048B000002802DA40422D2102E0390504D52B21DF
:1048C0008DF82010012103E0F90704D02021F7E73B
:1048D0008A4608AE0DE00021FAE70A994FF00A096E
:1048E00001C90A91F7E74946FEF7DEFF303106F8C5
:1048F000011D0028F7D1ADEB060000F12009780773
:1049000001D44FF00108C84502DDA8EB090000E022
:1049100000208046002706E008A85A46C05D0B9993
:1049200090476D1C7F1C5745F6DB04E030205A464B
:104930000B9990476D1CB8F10001A8F10108F5DC56
:1049400005E016F8010B5A460B9990476D1CB9F11A
:104950000001A9F10109F4DC641C65E709280100E4
:104960000A68531C0B601070704710B501220221B9
:10497000002000F0A3FF044600BF1CB1072C01D0AB
:10498000204610BD00BF07220221012000F096FF43
:10499000044600BF1CB1072C01D02046F1E700BF40
:1049A0000A220021084600F089FF044600BF1CB11E
:1049B000072C01D02046E4E700BF0020E1E710B556
:1049C0000446022000F076FE10BD000010B5002461
:1049D00007E00749096811F83400012102F016FDCB
:1049E000641C044800788442F3D3002010BD00000A
:1049F000082A00200C2A00202DE9F84306460C4620
:104A00001746052F02D20720BDE8F88302F0FCFD0F
:104A100038B902F0C9FD054600BF0DB12846F3E7DD
:104A200000BF16480660164804701648076000204C
:104A3000154908601549086015E006EBC4081448DC
:104A40000068009098F802008DF8010098F80000C6
:104A5000104A694602F030FD054600BF0DB12846F8
:104A6000D2E700BF00BF201EA4F10101CCB2E4D107
:104A7000094A0021094800F099F8C5E7082A0020F2
:104A80000C2A0020102A0020142A0020182A0020B6
:104A900000AD0200F1670200E1610200FCAC02001F
:104AA00021490988012242EA014020A103F094FD36
:104AB00000BF03F09DFE00BF00BF03F053FC0028C1
:104AC000FBD100BF00BF00BF1A48006800F0010022
:104AD00000B100BE00BF14490988032242EA014028
:104AE00015A103F079FD00BF00BF00BF00BF00BFEC
:104AF000BFF34F8F00BF00BF00BF0E48E43800680F
:104B000000F4E06011490843001D0A49E4390860D7
:104B100000BF00BF00BFBFF34F8F00BF00BF00BF8B
:104B200000BF00BFFDE70000382B00204661746124
:104B30006C000000F0ED00E0486974207765616B5F
:104B40002068616E646C6572000000000000FA0568
:104B50003EB50446002000900190029002946A46FF
:104B6000002144F20100FFF79BFF3EBD70B50446F3
:104B70000D46204601F0B4FD28B12946204601F03B
:104B8000A3FD002070BD0520FCE770B504460D466E
:104B9000204601F0A5FDA188884205D82946204677
:104BA00001F0ACFD002070BD0420FCE710B5034609
:104BB0000C4600BF0B48807808B9082010BD00BF24
:104BC0000AB90720FAE70BB90720F7E71868007C55
:104BD00008B10820F2E71968002008744C744A6193
:104BE00000BFEBE72436002010B504F097FF00204B
:104BF0000F49087048700B20887000200D4908602C
:104C00000D4908700D4908701420FFF79FF907211E
:104C10001420FFF7BFF91420FFF7A4F9002004F0D7
:104C200053FF04F04BFF06490860002010BD000050
:104C3000243600201C2A00202C2A00202D2A0020A7
:104C4000202A00202DE9F04104460E46174625464D
:104C500000BF1048807810B90820BDE8F08100BF7F
:104C60000CB90820F9E7052E01D20720F5E768699D
:104C700008B90820F1E7687C012801D1304600E03E
:104C8000002080463B4642463146284605F0A8FCB7
:104C9000E3E700002436002070B50446254600BF37
:104CA0000848807808B9082070BD00BF0CB1686959
:104CB00008B90820F8E7002028740221284605F0EA
:104CC000BEFCF1E72436002070B5044621460B48AF
:104CD000FFF75BFF054675B9094803F041F850B985
:104CE00008490648FFF742FF28B901220549044850
:104CF00002F080FF0546284670BD000040370020C6
:104D0000302A00203C2A002010B50446204605F039
:104D1000CFF910BD70B5044625460E488068B0B185
:104D2000ADB9FFF76DFD06460A4800680A490860FC
:104D3000084840684FF0E021C1F80401002005490F
:104D400088601EB900BF62B600BF00BF00BF00BFD1
:104D500070BD00005037002000E100E00146480C23
:104D6000400408B9012070470020FCE7002112E050
:104D70000B48D0F81024012306E000BF107A8842C7
:104D800001D1002302E05268002AF6D100BF0BB126
:104D900008467047491C0A29EADB4FF0FF30F8E764
:104DA0006838002010B5044600BF0CB90E2010BDB5
:104DB00000BF00BF06480078012801D00820F6E7B0
:104DC00000BF04480168204604F050FEEFE70000F1
:104DD000EC290020E02900200146002200BF09B98B
:104DE0000E20704700BF0020054B18600120054BC6
:104DF00018700020044B1860044801601046F0E76A
:104E0000E8290020EC290020E4290020E0290020E6
:104E100070B504460D4600BF04B970BD00BF00BFA9
:104E200005B9FAE700BF00BF14480078012800D098
:104E3000F3E700BF2E462088112815D0302804D073
:104E4000322807D0332814D109E0211D304604F060
:104E5000AFFC0FE0211D304604F00EFA0AE0211DE0
:104E6000304604F065FB05E0211D304604F0F8FBF8
:104E700000E000BF00BF00BFCFE70000EC2900202A
:104E80002DE9F04104460D4600BF14B90E20BDE8DF
:104E9000F08100BF00BF1D480078012801D0082024
:104EA000F5E700BF1A48006808B90820EFE794F852
:104EB000C70208B11120EAE7A4F8CA520020154938
:104EC000086084F8C80284F8C60284F8C50294F821
:104ED000C60200EB8001C1EB801004EB400794F8A0
:104EE000C6020D4901EB8000006838603A46012196
:104EF000284694DF064600BF0EB13046C7E700BF24
:104F0000012084F8C7020020C1E70000EC2900203E
:104F1000E8290020E4290020243200202DE9FF4761
:104F2000054689462F1D28881F2874D008DC1028C4
:104F30003ED0132870D01B2873D01D286ED106E0F8
:104F400021286CD03B286BD05628F7D1BFE03E1DFE
:104F50003146684801F080FD002828D00123664AC8
:104F6000664930468CDF04460CBB002000F0D4FCC0
:104F7000044600BFA046B8F1000F04D000BF404671
:104F8000FFF7E6FD00BF00BFB07971793279F378A1
:104F9000CDE90032CDE90210B3787278584909881A
:104FA0004FF0030C4CEA014056A103F03BFB9DE09F
:104FB00053490988032242EA01405EA103F00CFB39
:104FC000A9880022604800F0ABF9044600BF2646DD
:104FD00026B100BF3046FFF7BBFD00BF00BF072072
:104FE00000F09AFC044600BF264626B100BF3046BA
:104FF000FFF7AEFD00BF00BFA9885448FFF740FF90
:10500000044600BF264626B100BF3046FFF7A0FD8C
:1050100000BF00BF6AE02EE01DE002E065E038E07E
:1050200047E0387901280AD135490988032242EA44
:10503000014047A103F0D0FA04F0CEFF0AE038792E
:10504000022807D12E490988032242EA014044A1DF
:1050500003F0C2FA4AE0A88800231A4685217FDFC0
:10506000044600BF264626B100BF3046FFF770FD5C
:1050700000BF00BF3AE03888391D75DF044600BF25
:10508000264626B100BF3046FFF762FD00BF00BFD5
:105090002CE000200390A88803A98FDF044600BFFE
:1050A000264626B100BF3046FFF752FD00BF00BFC5
:1050B0001CE0A888132176DF044600BF264626B1EF
:1050C00000BF3046FFF744FD00BF00BF0EE0A888D8
:1050D000132176DF044600BF264626B100BF3046C6
:1050E000FFF736FD00BF00BF00E000BF00BFBDE816
:1050F000FF870000D0AA0200C0AA0200C8AA0200CE
:10510000382B0020436F6E6E656374696E67207480
:105110006F207461726765742025303278253032D3
:105120007825303278253032782530327825303283
:1051300078000000436F6E6E656374656420746F61
:105140002074617267657400682B00208C2B00202E
:105150005363616E2074696D6564206F75742E00F1
:10516000436F6E6E656374696F6E2052657175650D
:1051700073742074696D6564206F75742E0000006F
:1051800070B505460E462888102802D011282CD16B
:1051900015E01748006860B900F058FF044600BFEA
:1051A00034B11448006818B120461249096888478C
:1051B00000BF0F480068401C0D49086016E00C480D
:1051C0000068401E0A4908600846006860B9FFF799
:1051D000CCFB044600BF34B10648006818B1204635
:1051E00004490968884700BF00E000BF00BF70BDE8
:1051F000DC290020D82900202DE9F04107460C4683
:10520000207820B1012835D0022843D137E0234946
:105210000988032242EA014021A103F0DDF96188F7
:1052200004F10E02384600F07BF8054600BF2E461A
:1052300026B100BF3046FFF78BFC00BF00BF3846E9
:1052400000F07EF9054600BF2E4626B100BF30466D
:10525000FFF77EFC00BF00BF10490988032242EA25
:10526000014014A103F0B8F904F028FE1DA0FFF7D7
:105270002BFA0FE0217BA06800F078F90AE00749DB
:105280000988032242EA014021A103F0A5F904F0B4
:10529000A3FE00BF00BFBDE8F0810000382B002056
:1052A000446973636F7665727920636F6D706C65A6
:1052B00074652E00436F6E6E656374656420746F51
:1052C000206465766963652077697468204E6F7223
:1052D0006469632055415254205365727669636551
:1052E0002E0000000D0A436F6E6E656374696F6E69
:1052F0002065737461626C69736865642120414440
:105300004320737461727465642E0D0A00000000FE
:10531000446973636F6E6E65637465642E0000008C
:1053200010B5034600BF0BB90E2010BD00BF598059
:105330002AB15488DC801088988094881C810020D1
:10534000F3E7000070B586B004460D46154B0FCB51
:1053500001AE0FC600BF14B90E2006B070BD00BF6D
:1053600000BF0DB90E20F8E700BF214601A862DF9B
:10537000064600BF0EB13046EFE700BF20788DF83B
:1053800016000120ADF814004FF6FF706080286809
:10539000E0600020A0800021218105A8FFF702FD28
:1053A000DBE70000CCAB020070B586B005460E46C8
:1053B000344604B10DB906B070BD60884FF6FF7178
:1053C000884204D06088A988884200D0F3E7288802
:1053D000112806D0392816D12946204604F0CCF9E8
:1053E00012E0A888618888420CD1E06850B10220A0
:1053F0008DF804004FF6FF70608001A92046E26836
:10540000904700BF00E000BF00BF00BFD3E770B50A
:1054100086B005460C46142101A8FEF746F804F1B3
:105420000E06207800283AD1A088012837D1A0792B
:105430002978884233D1002022E000EBC00136F801
:105440001110022902D0032917D107E000EBC00197
:1054500006EB41010A89ADF816200FE000EBC00110
:1054600006EB41010989ADF8121000EBC00106EB13
:1054700041014A89ADF8142000E000BF00BF401C84
:10548000217A8142D9D8E86848B16088ADF8060031
:1054900000208DF8040001A92846EA68904706B06C
:1054A00070BD0000FEB504460E46154600BF0CB99F
:1054B0000E20FEBD00BFF42D09DD1349098802222C
:1054C00042EA014011A103F087F80720F1E7608864
:1054D0004FF6FF71884209D10B490988022242EA3E
:1054E00001400FA103F078F80820E2E7134A07CA49
:1054F0008DE807002089ADF80200ADF8065002964D
:10550000608869469CDFD4E7CC2A0020436F6E7424
:10551000656E7420746F6F206C6F6E672E000000D4
:10552000436F6E6E656374696F6E2068616E646C44
:105530006520696E76616C69642E0000E8AB02003C
:1055400010B5044600BF0CB90E2010BD00BF608826
:105550004FF6FF71884201D0E08808B90820F4E7CF
:10556000E1886088012200F06BFCEEE72DE9F04154
:1055700006460F4600251EE000BF705DFFF7A4FB46
:105580000446ACB1112C13D012490988012242EA19
:1055900001402A4610A103F029F800BFA046B8F147
:1055A000000F04D000BF4046FFF7D2FA00BF00BF93
:1055B000112CE2D06D1CBD42DED3781E305C0D286C
:1055C00005D100BF0A20FFF77FFB1128FAD0BDE804
:1055D000F0810000382B00206170705F756172747B
:1055E0005F707574206661696C656420666F7220F7
:1055F000696E646578203078253034782E0000009C
:1056000038B503F0ADFC04461F490988032242EA7D
:10561000014022461DA102F0E9FF00BF254625B149
:1056200000BF2846FFF794FA00BF00BF002000909B
:105630006946012003F02EFB044613490988032222
:1056400042EA014015A102F0C7FF00BF254625B17F
:1056500000BF2846FFF77CFA00BF00BF684603F092
:10566000E1FB044608490988032242EA01400EA1F1
:1056700002F0B2FF00BF254625B100BF2846FFF764
:1056800067FA00BF00BF38BD382B00206572725F1B
:10569000636F64652069732025640000424C4520D7
:1056A000696E697420320000424C4520696E69744D
:1056B0002033000010B502460949885C00BF4FF056
:1056C000A0442146D1F80435012484409C43C1F80C
:1056D0000845012484401C40C1F80C4500BF10BDA2
:1056E00001AB020010B504460249085D012102F039
:1056F000DBFC10BD01AB020010B504460249085D99
:10570000002102F0D1FC10BD01AB020010B5014632
:10571000094B585C00BF4FF0A044234600BFD3F8AC
:105720000445C44004F001040CB1012000E0002055
:10573000024682F0010010BD01AB02007CB50024DE
:105740000CE00948055D0020009003460122114647
:105750000190284602F02DFC00BF641C042CF0D3FD
:1057600000F004F87CBD000001AB020010B500247D
:1057700003E02046FFF7B6FF641C042CF9D310BDEC
:1057800010B5002403E02046FFF7B6FF641C042C8C
:10579000F9D310BD02464FF0FF30002106E0054B63
:1057A0005B5C934201D1084602E0491C0429F6D310
:1057B00000BF704705AB02002DE9F04106460F46D9
:1057C0004FF0000800243046FFF7E4FF0446042CA5
:1057D0003ED20FB3012F02D0022F38D130E004EBBC
:1057E0004400214911F8008004EB4400084440784B
:1057F00050B11E4A4FF400411D480068FFF722FADD
:1058000005460DB91948067004EB440016490844D2
:105810008078184908551AE015480068FFF73CFAE7
:105820001448005D04EB44010F4A11448978884212
:1058300005D104EB44001146084490F8028006E0CC
:1058400004EB44000849084490F8018000BF00BF01
:10585000B8F1000F06D00848006818B14046064964
:1058600009688847BDE8F081F8310020D029002080
:1058700014AB0200D1290020CC29002070B50546C8
:10588000042D05D00A2D14D1002003F053F911E0A6
:1058900009494888132176DF0446082C08D000BF48
:1058A000264626B100BF3046FFF752F900BF00BFC1
:1058B00000E000BF00BF70BD682B002030B503467C
:1058C0000020042B23D2012A07D1012903D103F19F
:1058D0000E04E4B200E00024224679B1012902D08E
:1058E000022911D104E003EB43040A4D2A550DE0CF
:1058F00003EB4304074D2C44627007E003EB4304C1
:10590000044D2C44A27001E0072000BF00E00720F6
:1059100030BD0000F831002070B504460025054870
:10592000007800F0010018B1204600F05BF8054651
:10593000284670BDC42900202DE9F04105460F46D8
:1059400000241F4805601F48076005F0020000B3EF
:10595000002606E0012211463046FFF7AFFF04465D
:10596000761C042E01D2002CF4D034B940F26662C9
:1059700004211548FFF740F8044614B9FFF726F84C
:1059800004462CB9114A00211148FFF70FF90446CB
:1059900000BF05F0010008B1FFF7D0FE2CB90D4A99
:1059A00000210D48FFF702F904462CB90B4A0121EA
:1059B0000B48FFF7FBF804462046BDE8F0810000E5
:1059C000C4290020CC29002018AB02000D5E020083
:1059D00014AB0200896B02000CAB0200BF4902004D
:1059E00010AB02002DE9F047044600260025D748F9
:1059F000007820B10020D549087001F0B1F8182CCA
:105A000079D2DFE804F00C11124579ADF1FFEEED2B
:105A1000ECEBEAE9E8E7E6E5E4E3E2E1E0DF01F008
:105A20009FF8CB4804708DE100BF0020FFF76EFEA9
:105A300058B10020FFF756FE022C02D14FF4E1606E
:105A400001E04FF47A60054609E00020FFF754FEBC
:105A5000022C01D1C82001E04FF4C8700546BC48B3
:105A600004704FF40040A5FB00204FF4FA73D718E0
:105A700040F100015A0000233846FDF7C7FC81467B
:105A800000224946B3480068FFF7DCF8064659E1B2
:105A90000020FFF73BFE58B10020FFF723FE032C48
:105AA00002D14FF4487001E04FF47A60054609E0F6
:105AB0000020FFF721FE032C01D1C82001E04FF4A4
:105AC000C8700546A24804704FF40040A5FB0020B2
:105AD0004FF4FA73D71840F100015A0000233846FA
:105AE000FDF794FC8146002249469A480068FFF77A
:105AF000A9F8064626E124E10020FFF707FE58B189
:105B00000020FFF7EFFD042C02D14FF47A6001E092
:105B10004FF47A6005460AE00020FFF7EDFD042C03
:105B200002D14FF4C87001E04FF4C87005468848B0
:105B300004704FF40040A5FB00104FF4FA73CF1827
:105B400040F100015A0000233846FDF75FFC814612
:105B5000002249467F480068FFF774F80646F1E0E6
:105B60000020FFF7D3FD50B10020FFF7BBFD052C4F
:105B700001D1C82001E04FF47A60054609E0002019
:105B8000FFF7BAFD052C01D1C82001E04FF4C87021
:105B900005466F4804704FF40040A5FB00204FF409
:105BA000FA73D71840F100015A0000233846FDF778
:105BB0002DFC81460022494666480068FFF742F8FE
:105BC0000646BFE0B8E0B6E0AAE0A1E098E092E0C7
:105BD0005FE05DE05BE059E057E051E042E033E038
:105BE00024E015E00EE0FFE70020FFF763FD5848D2
:105BF0000470002240F6CD4156480068FFF722F8B5
:105C000006469FE00020FFF777FD5148047099E0B9
:105C100001204E490870FFF74DFD002240F6CD41AE
:105C20004C480068FFF70EF806468BE00120474914
:105C30000870FFF73FFD00224FF48041454800689F
:105C4000FFF700F806467DE0012040490870FFF7A5
:105C500031FD002240F6CD413E480068FEF7F2FFDC
:105C600006466FE0012039490870FFF723FD002246
:105C70004FF4804137480068FEF7E4FF064661E0D4
:105C8000FFF77EFD324804705CE000BF00BF00BF3C
:105C900000BF31480068FEF7FFFF0646C4F111055A
:105CA00015B30EBB012D18D9A8B2C82148434FF433
:105CB000004180FB01304FF4FA729F1840F100015F
:105CC000520000233846FDF7A1FB814600224946D9
:105CD00021480068FEF7B6FF06460220FFF70CFDDC
:105CE00001201E49087005E00220FFF7FBFC0020A0
:105CF0001A49087026E000F033FF1548047021E0CF
:105D000000F02EFF0020FFF7F7FC1148047019E0A7
:105D100000F026FF0120FFF7EFFC0D48047011E0B2
:105D200000F01EFF0020FFF7E7FC0120FFF7E4FC76
:105D30000748047006E000BFFFF722FD0448047026
:105D400000E000BF00BF3046BDE8F087C129002059
:105D5000C02900200CAB020010AB0200C8290020B3
:105D60002DE9F84F04460D46A61C02274FF0010806
:105D7000002000906846FEF7C7FF154800682860BD
:105D80001348006812494968411A11488068401C4C
:105D9000A0EB010906EB070A0BE000F0CFFF0C486F
:105DA00000680B494968411A09488068401CA0EB0B
:105DB0000109CA45F1D80648006830440449086022
:105DC0009DF80000FEF7A6FF4046BDE8F88F0000F2
:105DD0006838002070B504460D46A168481CA060D4
:105DE00020684554D4E90110884202D3204601F0CE
:105DF000DAFF70BD0448406803490968884201D150
:105E0000012070470020FCE76838002010B50446E8
:105E100020780221FFF7D0FC10BD000070B50749C3
:105E20000120FFF789FD044600BF254625B100BFCC
:105E30002846FEF78DFE00BF00BF70BD7D580200F2
:105E40007FB506460C4615468DF80C5000208DF89F
:105E50000D00064A07CA8DE80700ADF8024003A806
:105E60000290694630469CDF04B070BDDCAB020096
:105E70004FF0FF31054A42F82010082804DBFF23C9
:105E8000A0F10801503253547047000050350020F3
:105E90000146024850F821007047000050350020AC
:105EA0002DE9F04F03460C464FF0FF390AB10020B0
:105EB00000E0082084460AB1082000E00C2080465B
:105EC000614624E0154850F82100401CF0B91D46F9
:105ED0000846274616464FFA80FBDFF840A00AF135
:105EE000300A0AF805B0DFF834A04AF820704EB93D
:105EF0004FFA85FBA0F1080ADFF820E00EF1500E02
:105F00000EF80AB000BF4FFA81F902E0491C414582
:105F1000D8D300BF4846BDE8F08F000050350020C0
:105F2000014601484056704780350020F8B50446C8
:105F30000E4694F8C60200EB8001C1EB801004EB22
:105F4000400594F8C502B8B194F8C522521ED1B2EA
:105F500094F8C62202EB8203C3EB821204EB4205E3
:105F600001EBC10305F10A0202EB43000289521C56
:105F700092B2ADF8002002E0E888ADF80000288970
:105F8000ADF802006946304696DFF8BD70B50546AB
:105F90000DB9094C01E0084C083409E0204600F036
:105FA000D8FD064606B904E028467168884700BF58
:105FB000F4E700BF70BD0000443500202DE9F04734
:105FC00082461F480068002836D01D4800680568D2
:105FD00003F074FD07461B4804682146384604F068
:105FE0003FFAC61C1848007808B903F079FDAE42A4
:105FF00001D2284600E03046044424F07F44204685
:1060000003F056FD03F05AFD80463946404604F041
:1060100027FA00F103093946204604F021FA8145A8
:1060200009D903F04BFD814603F042FD2F2001F01A
:10603000F5F804F071FB01E003F070FDBDE8F087B6
:106040001C2A0020202A00202E2A002010B5012220
:1060500000210846FFF732FC044600BF1CB1072CA4
:1060600001D0204610BD00BF072202210120FFF70A
:1060700025FC044600BF1CB1072C01D02046F1E7E7
:1060800000BF042202210020FFF718FC044600BFD5
:106090001CB1072C01D02046E4E700BF0020E1E757
:1060A0007CB504460D46002000900190A81D00EB31
:1060B000C4008079ADF80000A81D00EBC400807911
:1060C000ADF8020000226946204690DF06464EB138
:1060D00005490988012242EA014033462246034924
:1060E00002F090FA7CBD0000C02A002054B00200EB
:1060F00010B5044621460248FFF789F910BD00009B
:10610000682B002070B50748FEF766FE044600BF06
:10611000254625B100BF2846FEF71AFD00BF00BF87
:1061200070BD0000F16002002DE9F84F04460F46F3
:1061300090464FF0000B94F8C60200EB8001C1EBD3
:10614000801004EB400594F8C50200EBC00105F196
:106150000A0000EB410A94F8C502401C29798842E4
:1061600007D16B4600225146204600F03AFC834698
:1061700027E094F8C5621FE02879401EB04202D1A2
:106180004FF0000906E0701C00EBC00105F10A00A9
:1061900000EB41096B464A465146204600F021FC7F
:1061A00010B14FF0010B0AE0CA4694F8C502401C3A
:1061B00084F8C502701CC6B22879B042DCDC00BF8E
:1061C00000BFBBF1000F04D1012038700020BDE8F2
:1061D000F88F002038706946404697DFF7E70000E7
:1061E0002DE9F0478146002532E01C48006800EBAD
:1061F000C5042178012000FA01F6194800683040F2
:1062000020B317480068B04315490860207801F0B2
:10621000C1F90746217801208840124909680840E1
:10622000217807FA01F188420FD16078012800D166
:1062300000E00020784080F00108606820B108F09C
:10624000FF0120786268904700BF00BF681CC5B29C
:10625000054800788542C8DBBDE8F087082A0020A1
:10626000182A0020142A00200C2A00202DE9F041D1
:1062700004460D46164694F8C60200EB8001C1EBB9
:10628000801004EB4008404603F0D0FB0746B7B34C
:106290001C480068062832D21B481A49096800EBDE
:1062A000C11046801849174A126801EBC211081D37
:1062B00076224146FDF7E0F83DB100201249114A2F
:1062C000126801EBC211087006E002200E490D4A67
:1062D000126801EBC21108700B480A49096800EB0B
:1062E000C110C76707480068401C06490860084697
:1062F000006806490968884201D103F0E7FABDE861
:10630000F0810000E42900203C320020E829002030
:106310002DE9F041A0B004460D46164694F8C60299
:1063200000EB8001C1EB801004EB4008404603F015
:106330007DFB074657B17C22064901A8FDF79CF872
:10634000ADF80660029501A8B84700BF20B0BDE8CF
:10635000F081000038AB0200014614480078144A6E
:10636000127890421DD011480078401C0F4A1070DE
:1063700010460078022801D1002010700D480B4A09
:10638000127850F8220008600B4A0868126810441E
:10639000094A10601046006820F07F40106001201C
:1063A00070470020086000BFFAE700002C2A002098
:1063B0002D2A0020242A0020202A002013480078BB
:1063C000062820D11148001D007800F00F00D0B938
:1063D0000E480830007800F0F000302801D101208C
:1063E00070470A480830007800F0F000402801D1DA
:1063F0000120F5E705480830007800F0F00050284B
:1064000001D10120ECE70020EAE70000E00F00F0F6
:1064100013480078062820D11148001D007800F0AC
:106420000F00D0B90E480830007800F0F000302896
:1064300001D1012070470A480830007800F0F000D0
:10644000402801D10120F5E705480830007800F028
:10645000F000502801D10120ECE70020EAE700001D
:10646000E00F00F013480078062820D11148001DE5
:10647000007800F00F00D0B90E480830007800F026
:10648000F000302801D1012070470A480830007818
:1064900000F0F000402801D10120F5E70548083060
:1064A000007800F0F000502801D10120ECE7002036
:1064B000EAE70000E00F00F00A48007806280ED155
:1064C0000848001D007800F00F0040B9054808306A
:1064D000007800F0F000302801D101207047002042
:1064E000FCE70000E00F00F006480068062806D12F
:1064F0000448001D0068062801D1012070470020D3
:10650000FCE700003001001013480078062820D175
:106510001148001D007800F00F00D0B90E48083077
:10652000007800F0F000302801D1012070470A48BF
:106530000830007800F0F000402801D10120F5E794
:1065400005480830007800F0F000502801D1012003
:10655000ECE70020EAE70000E00F00F00A480078CE
:1065600006280ED10848001D007800F00F0040B941
:1065700005480830007800F0F000302801D10120F3
:1065800070470020FCE70000E00F00F0134800789F
:10659000062820D11148001D007800F00F00D0B966
:1065A0000E480830007800F0F000302801D10120BA
:1065B00070470A480830007800F0F000402801D108
:1065C0000120F5E705480830007800F0F000502879
:1065D00001D10120ECE70020EAE70000E00F00F025
:1065E0000A48007806280ED10848001D007800F0FF
:1065F0000F0040B905480830007800F0F00030285E
:1066000001D1012070470020FCE70000E00F00F0FE
:106610000A48007806280ED10848001D007800F0CE
:106620000F0040B905480830007800F0F00030282D
:1066300001D1012070470020FCE70000E00F00F0CE
:106640000A48007806280ED10848001D007800F09E
:106650000F0040B905480830007800F0F0005028DD
:1066600001D1012070470020FCE70000E00F00F09E
:10667000F0B5034600241FE0124E306806689E42C3
:1066800003D90668F61A06601AE006689B1B0668BE
:106690003444002606600B4E35680A4FC6693E60DA
:1066A000C66846B10E1926F07F464660C668866009
:1066B0001668C661156000BF024800680028DBD17B
:1066C00000BFF0BD1C2A002070B504460D462A46C6
:1066D0000021204600F009F8A068401CA06070BDB1
:1066E00001468A68C868801A704710B583680B44F1
:1066F000848823400468E35C137010BDC2688388FB
:106700001A4003689954C268521CC260704770B541
:1067100004460D46E0B2FEF7D7FA204670BD0000F1
:1067200070B505460C46208840F67721884216D180
:106730000B490988032242EA01400AA101F04CFFFB
:10674000A088C01E0E49088005490988032242EA34
:1067500001400B490B880A880AA101F053FF70BD64
:10676000382B0020415454204D54552065786368DF
:10677000616E676520636F6D706C657465642E0073
:10678000B0290020426C65204E5553206D61782061
:1067900064617461206C656E677468207365742031
:1067A000746F2030782558282564290070B50E496B
:1067B0000E4800F090FC044600BF254625B100BFFE
:1067C0002846FEF7C5F900BF00BFF721074800F0D3
:1067D00073FC044600BF254625B100BF2846FEF7DE
:1067E000B7F900BF00BF70BD21670200782B002001
:1067F0002DE9F04105460F46012000FA05F418483E
:106800000068FEF749FA06460EB1BDE8F08115486A
:1068100000682040E0B9284600F0BCFE28B11248CC
:10682000006820431049086004E00F480068A04356
:106830000D4908600B48006820430A49086000229F
:106840000A48016806480068FEF7FCF9064604E0BD
:1068500004480068A0430349086000BFD5E7000072
:10686000FCAC0200182A0020142A0020102A002064
:106870002DE9FC5F83460E4691461F46DDE90C4537
:10688000002E01DA704200E0304682464FF00108E7
:1068900003E09AFBF9FA08F10108CA45F9DA47451D
:1068A00000D9B84634B1002E03DB05F004000428FB
:1068B00000D1641E05F0020000B167B105F00100CF
:1068C00048B944B104E0641E20215846FFF782FA1B
:1068D0000CB1A045F7D3002E05DA76422D2158469B
:1068E000FFF778FA07E005F00400042803D12B2114
:1068F0005846FFF76FFA05F0020002280DD105F0A7
:10690000010050B94FB944B104E0641E302158462B
:10691000FFF760FA0CB1A045F7D33B464A46314633
:106920005846CDE9004504F047F8BDE8FC9F2DE945
:10693000F04704460E469046002722E0384602F013
:1069400023FC0546384602F026FC814620462946AF
:1069500042580AB1012200E0002282B14846D4F830
:106960000413014009B1012100E0002139B1294699
:10697000204602F015FC2846D6E900219047781CF5
:10698000C7B24745DADBBDE8F087000010B5044622
:10699000204600F073FF04490968084008B101204F
:1069A00010BD0020FCE70000002A002070B504465E
:1069B000204600F063FF0546FEF7D0F970BD10B524
:1069C00002460B8992F8C60200EB8004C4EB8010EB
:1069D00002EB40000089834201DA012010BD002053
:1069E000FCE770B50446E2B90D8994F8C60200EBE5
:1069F0008006C6EB801004EB40000089854201D17F
:106A0000002070BD0889401C188094F8C60200EB75
:106A10008005C5EB801004EB400000895880012000
:106A2000EFE70889401CD588A84201D10020E8E79B
:106A30000889401C1880D088401E58800120E0E75B
:106A400010B50446204600F019FFC0F3100008B14D
:106A5000012010BD0020FCE72DE9F84F05468A46CD
:106A600000240AF110086DE018F80460601C18F8A2
:106A70000070022F01D0032F1ED14FF0000915E046
:106A800004EB4900801C00EB08016A46022063DF2A
:106A90008346BBF1000F07D1BDF80000298888426A
:106AA00002D10120BDE8F88F09F1010906EBD6718A
:106AB000B9EB610FE4D341E0042F01D0052F23D1BE
:106AC0004FF0000919E004EB8900801C00EB08017D
:106AD0006A46042063DF8346BBF1000F0BD1BDF88B
:106AE00000002988884206D19DF80200A9788842D2
:106AF00001D10120D6E709F10109F11706EB9171E7
:106B0000B9EBA10FDFD319E0062F01D0072F15D164
:106B1000A01C08EB00016A46102063DF8346BBF12E
:106B2000000F0BD1BDF800002988884206D19DF8DE
:106B30000200A978884201D10120B3E7701C2044EB
:106B400084B200BF9AF80F00B4EBD00F8CDB0020AA
:106B5000A8E70146086808B102680A6070470000AB
:106B600010B50848007850B1002405E0022C02D08E
:106B70002046FEF7B7FD641C042CF7D301E0FEF7B6
:106B8000F5FD10BDC829002010B504460448007862
:106B900000F0010018B103480078FEF723FF10BD94
:106BA000C4290020C029002010B50C2000F032FBC1
:106BB00000BF00F027FB0028FBD10149887010BD01
:106BC0003C350020F721018017214180002101710F
:106BD0004171FB2181711B21C17170472DE9F04189
:106BE000064600274748D0F8008078E016B13446C2
:106BF000E66947E04448007800EB40014248001D48
:106C000000EBC105001F0078401C3F490870084692
:106C100000788978884202D100203B4908706C686E
:106C2000287801281AD0022802D0032817D107E0BB
:106C3000686803F091FC00B10127002020744EE049
:106C400007E030490868002101742E4AC1691160CB
:106C500000BF2C4800680028F3D140E000E03EE08F
:106C600000BF207C00B13AE0A8686060E868A060DE
:106C70002869E0606869A0612448007808B10020B4
:106C8000606000BF224960680968401A20F07F40B8
:106C90002049884208D21E496068096803F0E0FB79
:106CA000A168084420600FE019486168006803F09B
:106CB000D7FB0546A068A84203D9A068401B206006
:106CC00001E00020206000BF00206060A060012083
:106CD00020740020E061204603F00AFC00BF002E73
:106CE00084D109480078084949788842F8D11FB909
:106CF00004480068404502D00120BDE8F081002032
:106D0000FBE700001C2A0020243600202F2A002048
:106D1000202A0020FFFF7F0070B5002001F0FCFC5E
:106D2000044600BF254625B100BF2846FDF710FFE9
:106D300000BF00BF01F004FB70BD00002DE9FE4361
:106D400028484468866804EA060026490C3101EBAD
:106D5000800701F20C4000F02CF9234800F029F9DB
:106D60000DE0641C3888C0F38910396800EB91503D
:106D7000044404EA06001B490C3101EB8007387813
:106D800000F003000028ECD0002509E02046641C38
:106D9000304014490C3151F820004DF825006D1C8D
:106DA000022DF3D3009800F0030002280AD1042238
:106DB000009902EB9151481EC11700EB917104EB51
:106DC000A10403E00098C0F383100444064800F0D7
:106DD000E5F88046B8F1000F01D002484460BDE8F4
:106DE000FE830000683800207C3C0020FFF794FF01
:106DF000002000F01DFC054600BF2C4624B100BF5A
:106E00002046FDF7A5FE00BF00BF02F0CBFD03F05A
:106E100033FBFFF703F800BF002408E00120A04087
:106E200000F4F01010B1204601F0EBF8641C202CA7
:106E3000F4D300BFFDF716FA0020FCF76CFEFFF755
:106E400061F9FEF7DDFBFFF7B1FC02F0FFF902F09C
:106E5000DFFF03F045F808490988032242EA0140B0
:106E600006A101F0B9FB03F0B7F80DA0FDF72CFC6B
:106E700000BF01F02BFEFCE7382B0020424C4520E0
:106E8000554152542063656E7472616C206578615F
:106E90006D706C6520737461727465642E000000FF
:106EA0000D0A55415254205374617274210D0A0029
:106EB0002DE9FF5F07468B46144698460397039FCC
:106EC000FD88B94608F10400B0FBF5F0029008F126
:106ED0000400B0FBF5F105FB1100019008F104007E
:106EE00020442844401EB0FBF5F0C0B2009004E0FE
:106EF000D9F800900298401E029002980028F7D11D
:106F0000824601982E1AA64201D9204600E030465A
:106F1000064620E00E9848B109F10402019BD11801
:106F20000BEB0A003246FCF7A7FA08E00BEB0A016C
:106F300009F10402019BD0183246FCF79DFA0020AB
:106F40000190D9F80090A41BB244A54201D9204673
:106F500000E028460646002CDCD1BDE8FF9F00007B
:106F600070B502460B4601F00BFC044693B10021BC
:106F70000CE001EB4100084E06EB800568881668BE
:106F8000B04202D11160002070BD491CA142F0D373
:106F90000520F9E70020F7E7B42A0020F8B50446F9
:106FA00000256A4629462046FCF7E9F906463046A0
:106FB000F8BDF8B5044601256A4629462046FCF787
:106FC000D1F906460098F8BDF8B504460026002021
:106FD00000906846FDF798FE206800686168884266
:106FE00015D920680068401E22681060017820468C
:106FF00000F033F80646207A21680978401AC5B2B5
:1070000020680079A84201DA2068057100BF9DF868
:107010000000FDF77FFE3046F8BD0246D068081A32
:10702000138AB0FBF3F0C0B27047F8B504460D46C2
:107030002E46002000906846FDF766FE3146204649
:10704000FFF7EBFF21680A68511C23681960107074
:107050009DF80000FDF75EFEF8BD0246138AD06879
:1070600001FB0300704710B5014600BF09B90E20AF
:1070700010BD00BF087A0B79C01AC2B2D1E9003046
:10708000186005E008680368581C0C6820601A70D6
:10709000101EA2F10103DAB2F4D10B68187100BF1F
:1070A000E6E730B502460B46D40802F0070201209D
:1070B00090401D5D284030BD024600BF0AB90E2039
:1070C000704700BF172901DBF72901DD0720F7E72B
:1070D00051800020F4E770B504460E4600BF0CB99D
:1070E0000E2070BD00BF2661F72020806080FB204D
:1070F0002071002505E0A11D01EBC500FFF762FD31
:107100006D1C002DF7D00020EBE700002DE9F041C9
:10711000064688464546B488012C01DBBDE8F0816F
:107120003088242820D006DC102809D011280CD063
:10713000232823D11DE03A280CD055281ED10EE07B
:107140003146284602F058F919E03146284602F047
:1071500090FA14E03146284602F0DCFA0FE031469E
:10716000284602F091FA0AE03146284602F086F9F4
:1071700005E03146284602F0ABF900E000BF00BF51
:10718000A81D00EBC4000079E8B1A81D30F8341048
:1071900020469EDF074657B90021A81D00EBC4001A
:1071A00001710121A81D00EBC40041710AE0112FFB
:1071B00008D006490988012242EA01403A460449BA
:1071C00001F014FA00BF00BFA8E70000C02A0020A9
:1071D00084AF020001464FF08040405808B10120C2
:1071E00070470020FCE708B500224FF080410A50AC
:1071F0000958009100BF08BD0149086070470000B0
:107200000803004002480068C0F3004070470000D7
:1072100018040040012291070A50704700B97047D6
:1072200000BF00BF00BF00BF00BF00BF00BF00BF66
:1072300000BF1F4909681F4A914200D130E000BFDA
:1072400000BF00BF00BF00BF00BF00BF00BF00BF46
:1072500000BF00BF00BF00BF00BF00BF00BF00BF36
:1072600000BF00BF00BF00BF00BF00BF00BF00BF26
:1072700000BF00BF00BF00BF00BF00BF00BF00BF16
:1072800000BF00BF00BF00BF00BF00BF00BF00BF06
:1072900000BF00BF00BF00BF00BF00BF00BF00BFF6
:1072A00001460139084600D0BBE700BFB7E7000040
:1072B000B02A00200024F40010B5002416480078FD
:1072C00008B1852425E000201349886048600861E2
:1072D000C86000BF00BF4109890001F1E021D1F879
:1072E000001101228240114009B1012100E000217A
:1072F00019B90721002000F053F800BF01F0AAFEE1
:1073000020B901200549086000BF00BF01200249E3
:107310000870204610BD00003C35002018050040D4
:1073200008B5002000906846FDF7EEFC0748C068ED
:10733000401E0649C8600846C06808B9FFF734FC1B
:107340009DF80000FDF7E6FC08BD00003C3500207C
:1073500010B54FF48070FFF73DFF60B14FF48070BF
:10736000FFF741FF0120FFF747FF01200B4948705D
:107370000020FEF70BFE4FF48270FFF72BFF58B191
:107380004FF48270FFF72FFF0220FFF735FF012037
:1073900002498870FEF7FAFD10BD00003C35002060
:1073A00070B50B4601461A46002907DA5407260E27
:1073B000104C01F00F052D1F665503E05407250EF4
:1073C0000D4C655400BF00BF00F01F020121914029
:1073D0000A4A440942F8241000BF00BF00F01F020F
:1073E000012191404209920002F1E022C2F800110D
:1073F00000BF70BD18ED00E000E400E080E200E0B6
:107400000146C1F3073250B2704700002DE9F04742
:1074100006460D46304602F081FAE0B13046FEF7EE
:107420007FFD083822490F5CBC11032C08D130467F
:1074300000F023FE08B1032000E00220804605E0B2
:10744000012C01D1022000E0032080464146304655
:1074500000F0EFFD2AE0304602F06CFA30B330461F
:10746000FEF75EFD0446A00000F5807087B220465E
:10747000104951F8201041F001020E4941F8202036
:1074800000BF384600F048FE7DB13046FEF748FDAB
:107490008146FEF7FDFC8046B8F1000F04D00121C3
:1074A00001FA04F000F052FE00BF00BFBDE8F08713
:1074B000A0350020106500402DE9FC4704460E462B
:1074C00017464FF00008204602F01AFA10B14FF0AC
:1074D000080855E0F27839462046FEF7E1FC0546FB
:1074E000681C002849D0B07880B100BF00BF4FF0C1
:1074F000A042104600F5E06252F8242022F002017A
:1075000000F5E06242F8241000BF0CE096F801900C
:10751000002000904B46024601460190204600F0B4
:107520005CFD00BF00BFF078D0B13078164951F84B
:107530002510164A1140144A42F82510114651F8F8
:1075400025104FF4F85202EA04224FF4403303EAC4
:1075500000431A4311430C4A42F8251000BF0EE0C5
:10756000A5F108000A49085C317840EA811042B26E
:10757000A5F1080006490A5401E04FF0040800BFD5
:107580004046BDE8FC87000010650040FFE0FCFFBE
:10759000A035002010B50446204600F06EFD08B16D
:1075A000012010BD0020FCE770B5164890F854008B
:1075B00010B10825284670BD002404E0204602F0E2
:1075C000C9F9601CC4B2202CF8DB002404E020467A
:1075D000FEF74EFC601CC4B20C2CF8DB0721062021
:1075E000FFF7DEFE4FF4BE7000F096FD4FF0004056
:1075F00000F0ACFD0120034981F854000025284625
:10760000D9E7000050350020034890F8540008B135
:10761000012070470020FCE750350020014601F0B2
:107620006040B0F1005F01D1012070470020FCE70D
:1076300070B504461748007808B1852070BD01F088
:1076400009FD08B10820F9E70CB1204600E0124816
:107650000546297801F001001049086000BF00BF0D
:1076600000204109890001F1E021D1F80011012237
:107670008240114009B1012100E0002119B9072120
:107680000020FFF78DFE00BF012002490870002096
:10769000D4E70000F02900203BAC02007805004050
:1076A00010B500BF13480068044604F0040038B168
:1076B0004FF4847001F0D1F910B10F480068804791
:1076C00004F0200040B14FF48A7001F0C6F918B1FF
:1076D00000200A490968884704F0400040B14FF48F
:1076E0008C7001F0BAF918B1012004490968884783
:1076F00010BD000004030040F4290020F8290020F8
:1077000010B507210020FFF74BFE0348006810B1B9
:10771000042001F0B5F910BDF429002008B50020BF
:1077200000906846FDF7F0FA0448006808B10120AF
:1077300035DF9DF80000FDF7EDFA08BDF4290020C3
:1077400070B504460D46012C02D1024800688047FE
:1077500070BD0000F429002070B504460D46012CD0
:1077600002D0032C06D102E0FFF7D8FF03E0FFF7B9
:10777000C7FF00E000BF00BF70BD0000F8B50646BF
:10778000002700250427174D002425E00020009045
:107790006846FDF7B9FA204600F070F8284078B145
:1077A0002046FFF7F3F858B900BF204600F066F80E
:1077B0000D49096808430C49086000BF3470002770
:1077C0009DF80000FDF7A6FA07B907E0204600F093
:1077D00055F88543601CC4B2002DD7D100BF384690
:1077E000F8BD0000FFFF0100002A00202DE9F04154
:1077F00006460C46154600BF14B90E20BDE8F081C0
:1078000000BF00BF0DB90E20F8E700BF00273046CB
:10781000FFF716F908B907270EE03046FFF7B6F86C
:1078200008B9082708E000BF044840F8364000EBDC
:10783000C600456000BF00BF3846DFE710F50140D5
:1078400070B5044600252046FFF7B0F808B90725B3
:1078500010E02046FFF7F4F828B12046FFF796F82D
:1078600008B9082506E000BF0120A04002490860D1
:1078700000BF00BF284670BD04F50140014601204D
:10788000884070470449097821B90121024A1170E2
:10789000002000E085207047FC29002070B50646D6
:1078A0000D46122001F0D8F92B48007C022805D1A2
:1078B000122001F0D7F91124204670BD2648007C23
:1078C000012823D12448C06828B1022001F0CAF958
:1078D00011242046F1E72048C660058390F82E0069
:1078E00070B900BF4FF4807001F0A0F90028F9D002
:1078F0004FF4807001F0A4F92946304601F04AF9AE
:10790000022001F0AFF900242046D6E7022001F062
:10791000A9F9012010490874084646600581002035
:10792000C860084690F82E0038B10846458390F8A4
:107930002D10304601F02EF90AE02946304601F0BC
:1079400029F94FF4807001F07BF9002001F090F9E3
:1079500000242046B1E70000D435002070B505466C
:107960000C461E48007C10B11126304670BD2079AF
:1079700010B12079012805D100BF00201849086006
:1079800000BF00BF15481C3010F8150030B913486F
:1079900090F82D00401C114981F82D00E1790F4825
:1079A0001C3000F81510217A00EB4500417021468B
:1079B000284601F0F7F8227AE179284601F02AF901
:1079C000207910B12079012805D100BF0120044998
:1079D000086000BF00BF00263046C7E7D43500204E
:1079E0000075004070B504460E46244890F82C00FF
:1079F00010B10825284670BD16B907252846FAE7B4
:107A000004B91F4C1D48066020781E49086000BF5D
:107A10006078091D086000BFE078184981F82E00E1
:107A2000012081F82C000020087481F82D004861A5
:107A300081F82F006FF0004001F00EF94FF48270D2
:107A400001F0FEF84FF4807001F0FAF8A1780720F9
:107A5000FFF7A6FC022001F005F9084890F82E0077
:107A600010B1012001F0FEF800BF01200549F039F6
:107A7000086000BF00252846BDE70000D43500207F
:107A80003CAC0200F0750040054991F82E1009B198
:107A9000002100E0042108460249014408467047DD
:107AA000D4350020007000402DE9F04105460C4619
:107AB00016461F46204601F06EFB804627B1414620
:107AC000286801F077FB03E04146286801F06FFB6E
:107AD000286800F5A86141F8246000BFBDE8F08186
:107AE00010B504460021206801F06DFB02202179C9
:107AF00001EB4101024A02EB8101087210BD000056
:107B0000C83500202DE9F04105460E4617461C46B3
:107B1000DDF818804FF48072B2400123B34042EA8E
:107B20000301286801F049FB2868D0F800122143BE
:107B3000C0F8001200BF43463A4631462846FFF7D8
:107B4000B3FFBDE8F08100002DE9F04704460D4683
:107B50009146207900EB4000254901EB8006307A00
:107B600018B108273846BDE8F087B9F1000F02D1F7
:107B700007273846F7E7C6F80090686870604FF04E
:107B800000080BE0404601F0FFFA824651462068AB
:107B900001F006FB08F1010000F0FF0860794045A4
:107BA000F0DC2068FFF72CFC8246E978FFF7F8FB51
:107BB00069782068D0F8042561F30102C0F8042533
:107BC00000BFA9782068D0F8082561F30102C0F849
:107BD000082500BF29782068D0F8102561F303023A
:107BE000C0F8102500BF0120307200273846BAE7E0
:107BF000C83500202DE9F04104460D469046207915
:107C0000144901EB4016207901EB4010007F38B198
:107C10002846FFF703FD18B910273846BDE8F08164
:107C2000204600F09DF810B111273846F6E786F897
:107C30001680B5600020B0822079064901EB401023
:107C4000007F18B1204600F04DF8E7E7204600F02D
:107C500003F8E3E7A835002070B5044620792049F1
:107C600001EB401500264FF48E71206801F0BBFA3D
:107C70000821206801F0CAFA2946206802F051FD67
:107C8000686858BB12E000BF4FF48E71206801F0A5
:107C9000A3FA18B9A88AB0F5807FF5D1A88AB0F503
:107CA000807F03D02946206802F03BFDA88AA97D89
:107CB0008842E8DBA88AB0F5807F01D10F260BE06F
:107CC00000BF4FF48E71206801F086FA0028F8D0CA
:107CD0000C21206801F09AFA0020A875304670BD8A
:107CE000A83500202DE9F041044620791B4901EB1D
:107CF00040154FF000084FF49071206801F096FA9B
:107D00004FF4AC71206801F091FA2068AA7DA9684F
:107D1000C0F844154FF4A9631A5000BF0821206829
:107D200001F090FA6868A8B900BF4FF4907120681C
:107D300001F075FA07464FF4AC71206801F06FFA54
:107D400006460FB9002EF0D00EB14FF00F080020FC
:107D5000A87500BF4046BDE8F0810000A8350020AE
:107D600001460879044A02EB4010807D08B10120E9
:107D700070470020FCE70000A83500200FB438B59C
:107D80000446059810B938BC5DF814FB002000903B
:107D900006A800906A462046059900F012F80020D7
:107DA000009000BFEFE770B50446A06800B970BD51
:107DB000D4E90403A268216898470020A06000BFAE
:107DC000F5E72DE9FC5F82460D4614460DB9BDE886
:107DD000FC9F00BF2E786D1C06B9E1E0252E70D106
:107DE00000274FF0010900BF2E782B2E0CD02D2E2E
:107DF00002D0302E0CD103E047F001076D1C0AE0E1
:107E000047F002076D1C06E047F004076D1C02E016
:107E10004FF0000900BF00BFB9F1000FE4D14FF0EF
:107E2000000800BF2A2E06D12168081D20600868BE
:107E300080446D1C0DE02E78302E01DB392E00DDE4
:107E400007E06D1CA6F1300008EB880100EB41084B
:107E5000E8E700BF4FF0000B2E782E2E10D16D1CDE
:107E600000BF2E78302E01DB392E00DD07E06D1CBF
:107E7000A6F130000BEB8B0100EB410BF1E700BFEB
:107E80002E7800BF6C2E01D0682E02D16D1C2E788A
:107E900000E000E0F6E700BF692E21D008DC252EC7
:107EA0006DD0582E39D0632E0CD0642E6CD116E0D4
:107EB000702E4CD0732E3ED0752E1FD0782E63D1ED
:107EC0002AE065E02168081D2060D1F8009009F0E3
:107ED000FF00019050460199FDF77CFF55E000BF7F
:107EE0002168081D2060D1F800905B460A224946AF
:107EF0005046CDE90087FEF7BBFC46E02168081D2F
:107F00002060D1F800905B460A2249465046CDE9F0
:107F1000008702F051FD38E000BF2168081D206095
:107F2000D1F800905B46102249465046CDE90087C3
:107F300002F042FD29E02168081D206008680190D8
:107F40003B4642465046019902F050FA1DE0216836
:107F5000081D2060D1F8009030215046FDF73AFF0F
:107F600078215046FDF736FF002008210B461022ED
:107F7000CDE900104946504602F01EFD05E02521DE
:107F80005046FDF727FF00E000BF00BF6D1C03E077
:107F900031465046FDF71EFF287800287FF41AAFBF
:107FA00000BF9AF80C0010B15046FFF7FCFE00BF6E
:107FB0000DE7F0B5DDE9054500BF4FF0A0473E46AF
:107FC00041EA420747EA830747EA042747EA054CA4
:107FD00006F5E06747F820C0F0BDF0B5DDE90545DE
:107FE00000BF4FF0A0473E4641EA420747EA8307F9
:107FF00047EA042747EA054C06F5E06747F820C042
:10800000F0BDF0B501210A4600231C461D4600BF05
:108010004FF0A0473E4641EA420747EA830747EA56
:10802000042747EA054C06F5E06747F820C000BF83
:10803000F0BD10B50A4600BF4FF0A043194601F548
:10804000E06353F8203023F4403401F5E06343F853
:10805000204053F8203043EA024401F5E06343F83E
:10806000204010BD00BF4FF0A0410A46012303FA93
:1080700000F1C2F80C1500BF7047014600BF4FF079
:10808000A040024600BFD2F81005C84000F0010031
:10809000704700BF4FF0A0410A46012303FA00F1E8
:1080A000C2F8081500BF704710B561B900BF00BF26
:1080B0004FF0A0421346012404FA00F2C3F80C2545
:1080C00000BF00BF0CE000BF00BF4FF0A04213464E
:1080D000012404FA00F2C3F8082500BF00BF00BF66
:1080E00010BD000038B50B46074C246800940146CB
:1080F00006E05DF82140D4F810551560121D491CAA
:10810000C4188C42F5D838BDF4AB020001460148D2
:10811000084470470060004038B504462046FFF729
:10812000F5FF002101602046FFF7F0FF0068009096
:1081300000BF38BD10B504462046FFF7E7FF0068D2
:10814000012800D110BD0020FCE7000001490860B3
:1081500070470000046300402DE9F04704460F46D5
:10816000FCF704FE0646701C10B93046BDE8F087E7
:10817000F0B2207200BF1848D0F8100428B9164891
:10818000C0F810440020606008E01348D0F81004E4
:10819000406860601048D0F810044460002514E086
:1081A00000231A462946304600F0F4FA8046B845C6
:1081B00001DA404600E03846814600BF207A034697
:1081C0004A46294600F000FB6D1C00F0D9FAA8428F
:1081D000E6D83046CAE7000068380020704710B57E
:1081E000FBF7F2FF10BD704738B504460D46044852
:1081F0004023044A29460090204600F005F838BD87
:10820000F5A10200683700202DE9F04F93B08246B7
:108210000E4617469846DDF87090304600F0C3FBD6
:1082200018210DA8FBF741F90D97CDF83880CDF84E
:10823000489000252B46082207A9304600F0E0FBB5
:10824000082509980A90089880B2ADF82C00002003
:108250008DF83000079800F00300012820D107981E
:108260004FEA902B0798C0F3C2008DF82E000798B4
:10827000C0F380008DF82F000798C0F38314A2008C
:108280002B4601A9304600F0BBFB05EB84050DA889
:108290000AAB224601A90090584600F0C3FA2CE030
:1082A000079800F00300022827D107984FEA905B57
:1082B0000798C0F3C2008DF82E000798C0F3800025
:1082C0008DF82F0000BFBBF1080F01D2584600E027
:1082D000082004462B46224605A9304600F090FBB4
:1082E0002544ABEB040B0DAB0AAA214605A800F010
:1082F000B7F9BBF1000FE6D100BF304600F068FBD4
:1083000013B0BDE8F08F000010B502460B4C04EB33
:10831000C203012906D0022906D0032906D0042968
:1083200008D105E0002007E0002005E0187903E00F
:10833000587901E0002000BF00BF10BDA4B60200C4
:1083400010B54FF0FF34FFF74AFF04210448FFF750
:1083500003FF044600BF01200149487200BF10BD61
:10836000542A00202DE9F04F8BB0FDF743FD18B1E2
:1083700000200BB0BDE8F08F00209449C1F8140430
:1083800008464468856804EA05000C3101EB800A60
:1083900000270FE0641CBAF80000C0F38910DAF877
:1083A000001000EB9150044404EA050087490C31A9
:1083B00001EB800A9AF8000000F003000028E9D0E1
:1083C0004FF000080BE02046641C28407F490C3128
:1083D00051F8200008A941F8280008F10108B8F177
:1083E000020FF0D3089800F0030002287CD108980F
:1083F000800D069050210898B1EB905F02DD08983F
:10840000800D00E05020834608986BF39F50089041
:108410000BF1080005900898C0F3C20007906C4863
:10842000059900F063FA0646002E5BD0304600F056
:10843000BAFA3B46082208A9304600F0EFFA08379E
:1084400004EA0500691C081A4FEA8009CB4536D9B1
:10845000B9F1000F06D004EA05005C490C3101EBCC
:10846000800001E059480C300490B9F1000F01D0B0
:10847000484600E05846C0B20390B9F1000F02D060
:1084800052480C3000E000200290B9F1000F02D0F9
:10849000ABEB090000E00020C0B201903B46304643
:1084A000DDE9032100F0BAFA03980744029828B1E5
:1084B0003B463046DDE9012100F0B0FA0DE004EA68
:1084C000050042490C3101EB800004903B465A46BE
:1084D0003046049900F0A2FA00BF0698C01C04EBD5
:1084E000900400BF40E0FFE70898C0F3831006281F
:1084F00003DA0898C0F3831000E00620089960F3BF
:10850000891108910898C0F3831000F102090898B6
:10851000C0F3C20007904FEA89012D4800F0E6F948
:10852000064606B3304600F03EFA3B46082208A94C
:10853000304600F073FA08374FF000080EE020468E
:10854000641C2840214A0C3202EB80013B46042285
:10855000304600F063FA3F1D08F101080898C0F3A7
:1085600083104045EBD800BF56B31A48FEF716FDFE
:1085700006901648D0F8109416E04FF0000B00BF9C
:1085800099F80900012800D18346BBF1000F08D0FB
:1085900000BFD9F80000314602684846904700BF46
:1085A00000BFD9F8049000BFB9F1000F02D00698BF
:1085B0000028E2D0304600F00BFA0448446000BFC7
:1085C000FDF718FC80F00100D3E6000068380020B9
:1085D00048AE02007C3C002070B504460D460023E6
:1085E0001A462946204601F0D3FE70BDF8B505466F
:1085F0000E461446009401236A463146284601F08F
:10860000C7FEF8BD2DE9FC4106460F4614461D463F
:108610000094019502236A463946304601F0B8FEBF
:10862000BDE8FC812DE9F04F87B006460F461446A1
:108630001D46DDE912ABDDE9108901940295CDF804
:108640000C80CDF81090CDF814A0CDF818B006230A
:1086500001AA3946304601F09BFE07B0BDE8F08F15
:108660002DE9F05F07460E4690461D46082E01D9BB
:10867000BDE8F09F95F80C900020287329464046ED
:1086800001F09EF900240CE0B44205D23A5D1CA131
:108690002846FFF773FB03E01BA12846FFF76EFB9C
:1086A000641C082CF0D319A12846FFF767FB0024AF
:1086B0001AE0B44213D217F804A0FAF7D9FE006802
:1086C00010F80A0000F03E0008B1504600E02E20ED
:1086D00083465A460EA12846FFF750FB03E00DA142
:1086E0002846FFF74BFB641C082CE2D301222946E5
:1086F000404601F035F985F80C9000BFB8E700005E
:108700002025303278000000202020007C0000006E
:1087100025630000200000002DE9F041074600BF5E
:10872000FF2012498860002008604860C1F81804E2
:10873000C1F8140481F81C040D4800F043F9054603
:1087400015B12846BDE8F0810A480B49401AC60811
:10875000002406E004EB4401084A02EB8100048097
:10876000641CB442F6D30020ECE700006838002017
:1087700048AE02001CB70200A4B60200B42A0020D2
:1087800002480349401AC008704700001CB70200A5
:10879000A4B602002DE9FF41074614461D460026F7
:1087A00000BF55B9214601A8FEF7DAFB28B90549F3
:1087B000019A01EBC200867900BF304604B0BDE8E3
:1087C000F0810000A4B602007047000013B50C460B
:1087D00021466846FEF7C4FB28B90448009A00EB1E
:1087E000C20108681CBD0020FCE70000A4B602001E
:1087F00070B50B48D0F810440120094981F81C04D9
:108800000AE000BF0120607200BF25462868416869
:108810002846884700BF6468002CF2D170BD000074
:10882000683800202DE9FF4707460C461646984653
:108830000C9D95F80C90002028732946404601F0C5
:10884000BFF8072E47D2DFE806F004090F161F2AEB
:10885000370039462846FFF791FA3DE03946284669
:108860002268FFF78BFA37E039462846D4E900231F
:10887000FFF784FA30E0A068009039462846D4E932
:108880000023FFF77BFA27E0D4E90201CDE90001DC
:1088900039462846D4E90023FFF770FA1CE0D4E9F2
:1088A00002122069CDE90012029039462846D4E927
:1088B0000023FFF763FA0FE0D4E90223D4E90410A0
:1088C000CDE90023CDE9021039462846D4E900233A
:1088D000FFF754FA00E000BF00BF002229464046DF
:1088E00001F03EF885F80C90BDE8FF872DE9F84FC0
:1088F00007468A46388AA0F104080AF10400404479
:10890000401EB0FBF8F0C0B200903846FEF75CFBAA
:10891000044614B90020BDE8F88F00202071012121
:108920006171A4F8068025460098A0F1010B2C4641
:108930002F604FF0000912E03846FEF745FB06466F
:1089400036B16079401C60712E603760354604E0B6
:10895000204600F008F80020DDE709F10109D945BB
:10896000EAD32046D7E72DE9F05F0446274697F87B
:1089700005802646A8F1010B002501E036686D1C34
:108980005D45FBD3D6F800A02646002507E0D6F8C3
:10899000009031465046FEF748FB4E466D1C45455B
:1089A000F5D3BDE8F09F2DE9F843044627463D1D69
:1089B00001266A4631462846FAF75FFC804600BF2A
:1089C000BDE8F88310B504462046FEF74CFB10BD09
:1089D0002DE9FC47044627463D1D01266A463146DF
:1089E0002846FAF757FC8146009801900DF10408DB
:1089F00098F8000010B92046FFF7B5FFBDE8FC87E6
:108A0000F8B504460D4616461F4601203B46324641
:108A1000294600902046FEF74BFAF8BDF8B504460B
:108A20000D4616461F4600203B463246294600901A
:108A30002046FEF73DFAF8BD0021016000BF00BFEF
:108A400000BFBFF35F8F00BF00BF00BF704700BF14
:108A500000F1804100220A60704770B5044620464C
:108A6000044604F18041096809B1012100E00021B8
:108A70000D4600BF15B12046FFF7E9FF284670BD3F
:108A800001490860704700000403004010B5002051
:108A90000A49087000BF0A49086000BF00BF00BF54
:108AA00000BFBFF35F8F00BF00BF00BF00BF05491D
:108AB000054800F002FB002010BD0000482A0020FD
:108AC000442A00202CAD02005C37002038B500BFDE
:108AD000002000906846FCF717F900BFF1EE100A7D
