:020000040001F9
:10B00000E0400020F5B001000FB1010011B10100D6
:10B010000000000000000000000000000000000030
:10B0200000000000000000000000000013B101005B
:10B03000000000000000000015B1010017B1010080
:10B0400019B1010019B1010055BA010019B101008F
:10B0500019B101000000000001B7010019B10100A1
:10B0600019B1010019B1010019B1010019B10100B4
:10B0700019B1010019B1010019B1010019B10100A4
:10B0800019B1010051B8010019B1010019B1010055
:10B09000F5B8010019B10100FDB8010019B10100B6
:10B0A00019B1010019B1010000000000000000000A
:10B0B0000000000000000000000000000000000090
:10B0C0000348854600F076FA0048004741DD01005C
:10B0D000E0400020401E00BF00BF00BF00BF00BF17
:10B0E00000BF00BF00BF00BF00BF00BF00BFF1D165
:10B0F000704700000321094802680A4302600848BB
:10B1000002680A4302600748804707480047FEE795
:10B11000FEE7FEE7FEE7FEE7FEE70000240500404D
:10B120005405004089B90100C1B0010030B50B469B
:10B13000014600202022012409E00D46D5409D4211
:10B1400005D31D469540491B254695404019154697
:10B15000521E002DF1DC30BD03460B439B0703D08C
:10B1600009E008C9121F08C0042AFAD203E00B78CC
:10B170000370401C491C521EF9D27047D2B201E044
:10B180000270401C491EFBD270470022F6E710B542
:10B1900013460A4604461946FFF7F0FF204610BD45
:10B1A00010B5044605E00B780370401C002B00D05E
:10B1B000491C521EF7D2204610BD421C0178401C8B
:10B1C0000029FBD1801A7047F0B51FB40646002055
:10B1D00082B005464024019100901BE0019922466F
:10B1E0000F46304600F008FA049A059B801A9941F0
:10B1F00010D310461946224600F0EEF9361A8F4158
:10B200000197224601200021009F00F0E5F938183F
:10B210004D4100902046641E0028DFDC019B009811
:10B220002946324607B0F0BDF0B5074608465840FB
:10B2300087B0C00F049048000E46590040084908E6
:10B24000BC1A884105D2384631461E4617460B4681
:10B2500002465800400810434CD0300D0390400582
:10B260005900400D490D0590401A0290402872DAAD
:10B2700018030121000B090508430190049800926E
:10B28000002805D001995242002088410092019087
:10B29000029840210A1A0199009800F09DF905468C
:10B2A0000C466B4607CB00F0B8F9C0197141039A00
:10B2B0000E0D0023D71756401A467A40164344D045
:10B2C000049A002A2DD0029A012A039A15DC12054D
:10B2D000C01A914101263605001C7141D20F059E0E
:10B2E000D2070093019202962A46234600F0B5F950
:10B2F00007B0F0BD38463146FAE71605224A0F4638
:10B30000B218C01AB74101210905001C4F410018AD
:10B310007F41114618187941E20F10436D196441BD
:10B3200013E0E2076D0815436408C2071443039A4B
:10B3300001261205C01A91413605001C7141CE0745
:10B34000400830434908C01851412A46234600F0BE
:10B3500077F9CDE7FFE7049801224000C117121AE0
:10B3600000238B4104983146C417381AA141EEE7F7
:10B3700030B40124E407634030BC55E730B4012405
:10B38000E407614030BC4FE70000E0FFF0B51FB4B8
:10B3900088B00B990998002448400999C00F4900CA
:10B3A00049080991C0070B990090490049080B9181
:10B3B00009990898A64608431CD00B990A98084397
:10B3C00018D0099801244000420D4800410D099809
:10B3D00024050003000B204309900B980003000B89
:10B3E00020430B9050181C4940180022019014462D
:10B3F000104605E0002001460DB0F0BD032801DA3B
:10B40000034600E003239C46C11A0AAE0AE05F002F
:10B4100008ADED5B4F00F75B7D430027AA187C4128
:10B42000491C5B1E6145F2DD410004AB5A52210408
:10B43000120C0A43240C401C0828DFDB0198029000
:10B440000099704601910090059B049A079906980F
:10B4500000F003F9D0E700000DFCFFFFF0B50C464B
:10B460005C4085B0E40FE40703944C0000266408B8
:10B4700059009446490802460296224321D062466A
:10B480000A431ED06200570D4A000E032303550DD8
:10B49000012402462C492405781B1B0B360B40184F
:10B4A00023432643614600901C46501AB44103D3FF
:10B4B0000098401C009002E0921800985B41002820
:10B4C00003DA0020014605B0F0BD00200121090586
:10B4D0000746864611E064461D46141BB54106D357
:10B4E0006546521BB341744607430C43A646CD073D
:10B4F00040084908284392185B4105460D43EAD1AC
:10B500001046184313D06046194650407140084316
:10B5100006D06046101AB34106D20122002306E08D
:10B5200000220123DB0702E00122D24353100098DE
:10B5300074460105381C6141029C039D0019694154
:10B5400000F07EF8BFE70000FD0300004A00090399
:10B550000123090B1B0519430A4B10B5520D9A42E2
:10B5600002DA0020014610BD064B34339A4203DC58
:10B570009A1A00F041F810BD034BD21800F02CF8D5
:10B5800010BD0000FF030000CDFBFFFF10B5002938
:10B5900004DB0124E40740428C412146002B04DBFC
:10B5A0001C460123DB075242A341994200D190423D
:10B5B00010BD0000064C0125064E05E0E36807CCEF
:10B5C0002B430C3C98471034B442F7D3FFF77CFD73
:10B5D000C0EA0100E0EA010010B5202A04DB0146C0
:10B5E000203A9140002010BD914020239C1A034630
:10B5F000E3401943904010BD10B5202A04DB0846F3
:10B60000203AD040002110BD0B46D340D04020242A
:10B61000A21A91400843194610BD10B5202A06DB36
:10B62000CB170846203A1041C1170B4306E00B46E2
:10B630001341D0402024A21A91400843194610BD5E
:10B6400010B5002B08DA0024401C614192185B41C0
:10B650001A4301D14008400010BDF0B51FB482B0BC
:10B6600005460C0003D0084600F0C6FA02E000F0E0
:10B67000C3FA20300246009021462846FFF7ACFF6F
:10B68000049B059A04460F4618431143084314D0FF
:10B69000184610431BD0009840210A1A18460599F5
:10B6A000FFF7AAFF05460E46009A05990498FFF792
:10B6B00093FF084305D0012004E02046394607B037
:10B6C000F0BD0020C11705430E432C4337430099BA
:10B6D0000E986305401A7905E40A00220C43FD0A1E
:10B6E0000A3002D500200146E9E701051019694139
:10B6F0000C9C0D9D00196941FFF7A2FFDFE70000D8
:10B70000F0B50024FF2183B001314A4E4A4D012398
:10B71000204600944A191768012F05D177681F4207
:10B7200002D000271C431760091D5B00401C89B232
:10B730000428EFD341480168012906D100210160A6
:10B74000400704433E48006900903E4E200712D057
:10B750000127002527420AD03B48AA001118086992
:10B760000969C004C00E8903B258890F90477F0051
:10B770006D1C042DEED3002C59DA0020451E0290DA
:10B780000020044601902F4B1A1940321178880688
:10B79000800E4EB2761C3AD0012282402A4236D028
:10B7A0001F182026BE578909B6009E59002E02D0C8
:10B7B000032902D004E0032929D1029B13430293F9
:10B7C000224B8700FB189C461B68009F9B039B0F26
:10B7D0003A4202D0022B02D019E0032B17D10329E1
:10B7E00012D1022B21D002239E4662461368032702
:10B7F0003F04BB431360176873461B041F43176065
:10B80000019A521CD2B20192002E00D0B047641CA3
:10B81000042CB8D30198002809D009480069009980
:10B82000884204D00090029DAAE70323DCE703B01E
:10B83000F0BD000000630040006000407C610040FB
:10B840000005005048370020006500400007005008
:10B85000F8B522490020086048608860C860204927
:10B86000086048601F4FFC68002C35D01E49002638
:10B8700049683A69891A0D022D0A2068A84218D829
:10B880002D1A86192246107CE46900280FD000206A
:10B8900010747B69002B07D0916950699847002884
:10B8A00005D001F0C9F802E0516990698847002C81
:10B8B000E3D17978B878814206D1401CC0B2B87023
:10B8C000022801D10020B87000060849800D0E50F2
:10B8D0000120074900050860F8BD00004011014043
:10B8E0000011014008210020001501402021002006
:10B8F00000E200E010B502F0E3FD10BDF8B5214C08
:10B900006068002805D08047002801D001F094F835
:10B91000F8BD20780028FBD02069002807D0002639
:10B92000E068002805D00025002E04D011E0012693
:10B93000F6E70125F8E7684652DF052804D000281D
:10B9400004D001F079F804E0012602E021690098B2
:10B950008847002D10D1608869460880A06861DFA3
:10B96000052804D0002804D001F066F804E0012581
:10B9700002E0E168A0688847002EDCD0002DD3D01B
:10B98000F8BD00002C2100202B48018CC9B20129F0
:10B9900017D1828C120714D1028D1206130F03D116
:10B9A000838D1B061B0F0FD0120F012A03D1838D2D
:10B9B0001B061B0F08D0032A03D1828D1206120F1B
:10B9C00002D0012907D012E01D4B1C4A5A60DA133D
:10B9D0001C4B9A6102E0828C120708D1028D12067C
:10B9E000120F042A03D1828D1206120F0AD00129E8
:10B9F00021D1818C09071ED1018D0906090F0A2961
:10BA000004D007E0104A01219160F5E7828D12060B
:10BA1000120F05D00D290ED1808D0006000F0AD11E
:10BA20000A480168012904D0094901600168012917
:10BA3000FCD1C02141617047C00F00F0DFFF07C09B
:10BA400000050040006C00400006004000EC06408D
:10BA500075930000F0B54F4885B040684E4C8105A5
:10BA60002768A67EE37D00256268E068BC46002961
:10BA70001DDA4A4F796A002919D07D62812745492C
:10BA8000BF008F60002E02D1454F01267E60022745
:10BA90006E463770434F3E683E6003966E46337283
:10BAA0000190E575257661466846904738E039494A
:10BAB0004968490734D5394FB968002930D0002B7F
:10BAC000BD60394FBF6904D0617E4754677E7F1CDB
:10BAD0006776677EBB4223D1217E00290DD0637E2D
:10BAE000E1752169E16025766576012669460E706B
:10BAF0000B7201906146684611E0002E02D1284B7E
:10BB0000012159608121234B89009960E575617E8F
:10BB100001266B461E701972019061466846904777
:10BB20001E49C869002819D0A28AA07DCD61824231
:10BB300008D2A18AA068415CA08A401CA0821A4851
:10BB4000C1610BE0002809D069460D700872A06839
:10BB50000190A5756268684621689047134841685E
:10BB6000002915D04560A07E002802D00C49012094
:10BB70000860E07D00280BD0E575607E01236A46F1
:10BB8000E1681370107201916268684621689047FD
:10BB900005B0F0BD00230040903700200021004098
:10BBA000002000408024004000250040402100404B
:10BBB0000FB410B503A9044B044A029800F00EF923
:10BBC00010BC08BC04B0184701DD0100282100208A
:10BBD0000FB410B504A9074B02AA039800F0FEF8B1
:10BBE000044602A9002000F095FC204610BC08BCC9
:10BBF00004B0184715C501002021020C01D0102106
:10BC00001046020A01D010460839020901D0104638
:10BC1000091F820801D01046891E420801D0881EE3
:10BC20007047081A70470021016081808171704758
:10BC30000A7802704B7843708A788270CA78C27032
:10BC40000B7903714A794271704702E008C8121FEC
:10BC500008C1002AFAD170477047002001E001C1F5
:10BC6000121F002AFBD17047F0B51FB486B00998A7
:10BC7000089A030D0021024314D05148514A181864
:10BC8000504305141198012810981AD0281A401C06
:10BC900000264D4F4D49009601910490002812DA7C
:10BCA000444211E01198012449A3012801D11098C0
:10BCB000C1430698119A84600360C26041600BB072
:10BCC000F0BD4042E4E70446210500203F4A001C45
:10BCD00051410391029012E0E00707D032463B4603
:10BCE00001990098FFF752FB0191009032463B46C4
:10BCF00010461946FFF74AFB06460F466410002C13
:10BD0000EAD10498039B0028029A0999089806DA58
:10BD1000FFF73CFB019B009AFFF738FB05E0FFF7BC
:10BD20009DFB019B009AFFF799FB04460E460022FB
:10BD3000284BFFF72BFC03D80020C043014607E047
:10BD40000022254B20463146FFF76EFAFFF7FEFB37
:10BD5000102409E0002C0ADB0A220023FFF734FA42
:10BD6000079B30321A55641E02460A43F2D1112253
:10BD7000641C079B121B1C19119B012B03D0012370
:10BD800008430ED10AE0084304D01120109000208F
:10BD9000119077E71098151A6D1E0BE010988242EB
:10BDA00002DD00236D1C03E0824201DA00236D1ED8
:10BDB000002BEED0069811998260C16030C07EE7FA
:10BDC00001FCFFFF104D0000000014400000F03F98
:10BDD000300000000000F0430000E03FFFB597B0E6
:10BDE0000646002518E2252877D100242746FD497C
:10BDF000049400E00443761C32780120203A9040FD
:10BE00000842F7D130782A280ED002223078014635
:10BE10003039092916D804990A2359433039401872
:10BE20001443761C0490F1E7189802C80491189006
:10BE3000002904DA01204003044348420490022010
:10BE40000443761C30782E2814D1042004437078E3
:10BE5000761C2A2809D11898761C80C8189009E009
:10BE60000A214F43303FC719761C307801463039DC
:10BE70000929F5D930786C2810D006DC4C281AD066
:10BE800068280ED06A2817D104E0742813D07A28C5
:10BE900012D110E00120400504430CE00121090506
:10BEA00001E0032109050C437178814203D101208F
:10BEB00000052418761C761C3078119066280BD06B
:10BEC00013DC58287DD009DC00287BD04528F6D02B
:10BED0004628F4D047281AD1A5E118E0632835D0C8
:10BEE000642870D0652812D19DE170286CD008DCE0
:10BEF0006728F1D069287BD06E280DD06F2806D135
:10BF0000BAE073282ED0752871D0782859D01A9AA3
:10BF1000199990476D1C7EE16002400F022809D0FC
:10BF200003280DD00428189801680DD00D60001D5D
:10BF3000189070E11898EA1701680D604A60F6E7FA
:10BF4000189801680D80F2E70D70F0E718986A46BE
:10BF500001781172001D18900020507202A8009004
:10BF6000012005E0189802C8189000200091C043F5
:10BF700061070DD5002101E00199491C0191B942E9
:10BF800012DA8142F8DB009A515C0029F4D10BE00F
:10BF9000002101E00199491C01918142FADB019ADB
:10BFA0000099895C0029F5D1019904981A9B471AD8
:10BFB00021463846199A00F097FA01994019451818
:10BFC0000BE04FE02CE113E04EE000980099007880
:10BFD000491C00911A9A199990470198401E0190A6
:10BFE000401CF2D1214638461A9B199A10E137E0DD
:10BFF0000A200021009001916002410F022907D020
:10C00000189A01CA1892C2179446032908D00AE068
:10C010001898C01DC108C90005C91891944607E0C9
:10C0200000B2C2179446042902D140B2C1178C460F
:10C0300000226146944506DA0A46002140429141B9
:10C040008C462D2102E0210504D52B216A4611736F
:10C05000012103E0E10701D02021F7E7029155E03B
:10C060000A200AE0102008E010200090002104209F
:10C0700004430191082703E008200021019100906A
:10C080006002410F022907D0189A01CA18920022B3
:10C090009446032908D008E01898C01DC108C900BB
:10C0A00005C91891944603E080B2042900D1C0B2BA
:10C0B00000210291210729D51199702906D0009AF3
:10C0C0001021019B4A401A4305D00EE040216A46E8
:10C0D0001173012108E06146014306D030216A4610
:10C0E00011731199517302210291009A0821019B49
:10C0F0004A401A430AD16146014301D1610705D57F
:10C1000030216A46117301217F1E0291119958292D
:10C1100004D035A10E910DA90D910DE037A1F9E7DD
:10C120006146019B009AFFF74FF80E9B8C469B5C83
:10C130000D9A521E0D92137061460143F0D10D9875
:10C1400005A9081A20300190600703D501200004DA
:10C15000844300E001270198874201DD381A00E09E
:10C160000020019900904118029809180498401A7B
:10C170000490E00306D421461A9B199A049800F013
:10C18000B3F94519002706E003A81A9AC05D19996A
:10C1900090476D1C7F1C02988742F5DBE0030CD5AD
:10C1A00021461A9B199A049800F09EF9451904E05B
:10C1B0001A9A3020199990476D1C0099481E0090DA
:10C1C0000029F5DC08E00D980D990078491C0D91C7
:10C1D0001A9A199990476D1C0199481E01900029DF
:10C1E000F1DC63E109280100303132333435363770
:10C1F00038396162636465660000000030313233B3
:10C200003435363738394142434445460000000052
:10C2100000F05AF94519761C3078002800D0E2E584
:10C2200028461BB0F0BD600700D406271898C01D33
:10C23000C108C90048680A680831C30FDB071891B4
:10C24000190001D09CA108E0210501D59BA104E0C3
:10C25000E10701D09AA100E09AA1430011985B0880
:10C26000109165280CD006DC452809D046281DD041
:10C27000472841D141E0662818D067283CD13CE0EE
:10C280000021112F01DB112000E0781C01910090AA
:10C2900008A911A8FFF7E8FC139905910021119A4C
:10C2A00015927F1C12980197009150E00120C00761
:10C2B00003900120019008A9009711A8FFF7D4FC72
:10C2C000139A149905920022119B009212981593CB
:10C2D000059A0192002901D0104602E0791C40180D
:10C2E0000190381A01D5019804E04042401E0090A8
:10C2F000781C0190C01B029043E0012F00DA012757
:10C300000021112F01DD112000E03846019100903D
:10C3100008A911A8FFF7A8FC13990591119A00210B
:10C32000129815920091019721070CD40599B942F2
:10C3300001DB019900E00191012904DD159A491EF4
:10C34000515C302906D0B84201DA011D05DA01211D
:10C35000029115E00199491EEDE7002805DC0099DE
:10C36000411800910199091A03E0019A411C914278
:10C3700000DD01910099401A401C02900120C00785
:10C380000390200706D402990198814202DB002025
:10C39000C043029000206946C87707AF0121039887
:10C3A0000337C907884224D0022011902B20129015
:10C3B000039800280CDA404203902D20129007E0E9
:10C3C0000A210398FEF7B2FE30317F1E03903970C8
:10C3D0001199481E11900029F2DC03980028EFD132
:10C3E000791E129808703078202108404530BF1E11
:10C3F000387006A8C01BC01D039010980078002854
:10C4000000D00120019941180298C017091803981B
:10C4100009180498401A401E0490E00306D42146EF
:10C420001A9B199A049800F05FF845191098007843
:10C43000002803D01A9A199990476D1CE00324D55F
:10C4400021461A9B199A049800F04EF845191CE0F1
:10C450000098002807DB00990598884203DD1598AD
:10C46000405C199901E0199930201A9A9047009878
:10C470006D1C401C00900298401E0290002804D1C0
:10C480001A9A2E20199990476D1C0199481E019007
:10C490000029DDDC05E038781A9A7F1C199990474D
:10C4A0006D1C0399481E03900029F4DC21461A9B59
:10C4B000199A0498ACE600002D0000002B00000043
:10C4C0002000000000000000F8B5044600251E46CC
:10C4D0001746880404D405E039462020B0476D1C77
:10C4E000641EF9D52846F8BDFFB50446002581B085
:10C4F0001E46C80301D5302700E02027880404D554
:10C5000005E038460399B0476D1C641EF9D52846EE
:10C5100005B0F0BD0A68531C0B6010707047000036
:10C52000F7B505468CB000200490108803900020D9
:10C530001080686B11271446002813D002780399E5
:10C540000D9803297ED3022101702188491C89B2EC
:10C55000218047542188491C89B221804254208877
:10C56000401C2080296B002925D02388039A1E4671
:10C5700012360D98964265D8C75422881023521C53
:10C5800092B2228083542288521C22800F22268855
:10C590008B5C835523885B1C9EB28B182680203BC6
:10C5A000DB7F83552688921E761C52B22680002A95
:10C5B000EDDA00200490284620300790827B012786
:10C5C000002A26D0238803991E46DB1C0D988B4237
:10C5D00038D80223835521881C26491C89B2218022
:10C5E00046542188491C89B22180012A06D0022A9A
:10C5F00006D0032A06D0042A7ED105E0002204E0FA
:10C60000475403E0435401E0032242542088401C75
:10C6100020800798407B002829D020880399093082
:10C620000D9E88420ED801A871DF00287ED1208897
:10C63000082131542088401C80B220801B213154B5
:10C64000208800E08FE0401C80B2208001A9801982
:10C650000131FFF7EDFA20886946801D80B2208005
:10C66000097900297ED037542088401C2080A87882
:10C6700000281FD021880398091D0D9E814272D881
:10C6800005A879DF002851D1218803207054208823
:10C690001921401C80B22080315420886946401CFA
:10C6A00080B22080898A80190170090A417020882F
:10C6B000801C2080E878002816D021880322039B64
:10C6C000AA56CE1C0D989E424DD802234354218871
:10C6D000491C89B2218047542188491C89B2218094
:10C6E00042542088401C20806868002819D000220D
:10C6F00021888256CE1C00E0FBE0039B0D989E42F1
:10C7000031D80223435421880A23491C89B221804D
:10C7100043542188491C89B2218042542088401CFE
:10C720002080288900281CD0284600E08EE00830B0
:10C730000290062008900D9F0221039E3B460A4668
:10C7400001960094029802F02DF900287ED13B4614
:10C750001022019600940899029802F023F900280B
:10C7600074D101E0FDE0C3E0288A00281AD02846F1
:10C7700010300290072005900D9F039E03213B4639
:10C78000022201960094029802F00CF900285DD173
:10C7900000943B46102201960599029802F002F996
:10C7A000002853D1288B00281AD028461830029030
:10C7B000152005900D9F039E14213B4602220196F1
:10C7C0000094029802F0EEF800283FD100943B4616
:10C7D000102201960599029802F0E4F8002835D15C
:10C7E000286A00283DD02388039A9C469B1D0D99FA
:10C7F00093427DD80688062E7BD31927FF01804AF5
:10C80000BE4201D9964274D14388062B71D3BB42F4
:10C8100001D993426DD1964203D0934201D09E42FA
:10C8200067D8052362468B5422881223521C92B289
:10C8300022808B542288521C92B222800388521884
:10C8400013701B0A53702288921C00E098E092B289
:10C850002280408851180870000A48702088801C87
:10C8600020806E6A002E2DD0B0882388011D039F82
:10C870005918801C0D9AB9423AD8FE2838D8401C65
:10C88000D0542088FF21401C80B220801154208881
:10C89000401C81B22180308889180870000A4870D5
:10C8A0002088801C80B22080B388002B0AD0B16819
:10C8B000002964D080181A46FEF74EFC2088B18803
:10C8C000401820800798017B002941D00D980090E6
:10C8D000A86A002853D00026002937D90C21A86A5D
:10C8E00071434718B888801CFE2850D8228801E080
:10C8F0004DE044E00099401C88542088401C81B2DF
:10C900002180009A162050542088401C81B221803A
:10C91000009A388889180870000A48702088801C9E
:10C9200080B22080BA88002A0AD0B968002926D0AF
:10C93000009BC018FEF710FC2088B98840182080A2
:10C940000798761C007BF6B2B042C7D8002004904E
:10C950002878002851D02B780D9E0398012B03D006
:10C9600005E0002131547FE66978002907D021884D
:10C970000A46891C81420AD8012B03D00AE007200D
:10C980000FB0F0BD69785118891C814202D90C2082
:10C990000FB0F0BD801A801E87B2684607802188DC
:10C9A000B01C081869467DDF0028F1D128780228DC
:10C9B00005D169460988B94201D809210AE0082150
:10C9C000012805D16878B84202D86A46108001E093
:10C9D0006846078068460088FE28D8D82288401C10
:10C9E000B0542088401C80B2208031542088694691
:10C9F000401C208009884018208004980FB0F0BDAA
:10CA0000FFFF0000044842680121C9050B4693431B
:10CA100083600A40C260704700050050BFF34F8F2B
:10CA200004490348C860BFF34F8F00BFFDE7000013
:10CA30000400FA0500ED00E000B583B0002102908B
:10CA400000916A4601910248FFF7E8FF03B000BD7C
:10CA5000014000008268C36893420AD082688388DC
:10CA60001A4003689A5C0A708168491C8160002042
:10CA7000704705207047002906D0002A02D0531EB7
:10CA8000134203D0092070470E2070470160838055
:10CA900000218160C160084670478268C3689B1AA4
:10CAA0008288934208D8C36813400268D154C16891
:10CAB000491CC16000207047042070470A4B9B68E6
:10CAC000002B07D0002A07D0002805D00068037C7F
:10CAD000002B03D008207047072070470023037401
:10CAE000417442611846704708210020FFB581B0AB
:10CAF00014460F46900702D0072005B0F0BD002570
:10CB0000002C4FD001202A494004086029494010D8
:10CB1000886029498860294E012070602F20FEF727
:10CB2000D9FA0120B060264E2F203561FEF7D2FAE7
:10CB3000F5700498706103203070B4602570214650
:10CB400065701831A770616038461822504325720D
:10CB500041186572A772E160257440186574A77466
:10CB60006061F560757001201649B57000050860B8
:10CB700015490A68C023120A12021A430A601349AF
:10CB80000860134901988860124A1068FF231B024D
:10CB9000984303239B0318431060486830610020CA
:10CBA00005B0F0BD06488560072005B0F0BD000067
:10CBB00080E100E0401301400013014000100140FB
:10CBC0000821002080E200E014E400E000E100E041
:10CBD0000015014010E400E0F0B4334B9C68002CD9
:10CBE00024D0002822D0052902D2F0BC07207047AB
:10CBF0004369002B1AD0437C012B1AD00025EFF398
:10CC00000583DB05DB0D24D0103B5BB2002B12DA71
:10CC10001E07360F083EB608244FB600F619F6690F
:10CC20009B07DB0EDE4033069B0F0EE0F0BC0820B6
:10CC300070470D46E3E79E081D4FB600F6193668AB
:10CC40009B07DB0EDE4033069B0F012B25D0032B09
:10CC500025D002239446DA0014196678A778721C4E
:10CC6000D3B29F4200D1002327789F4219D01822C7
:10CC700067685643BA1914D00126167050600D48E3
:10CC800040681561D1609060604650610A496370E8
:10CC900030050860F0BC002070470023DAE701236C
:10CCA000D8E7F0BC042070470821002000ED00E028
:10CCB00000E400E00015014000E200E02B498A6832
:10CCC000002A04D0002802D04169002901D108209F
:10CCD0007047F0B400240474EFF30581C905C90D51
:10CCE000042500291FD0103949B200290DDA0B079D
:10CCF0001B0F083B9B081E4E9B009B19DB69890795
:10CD0000C90ECB401906890F09E08B08194E9B000C
:10CD10009B191B688907C90ECB401906890F012989
:10CD20001DD003291DD00221C90089184B788E78A7
:10CD30005A1CD2B2964200D100220E78964212D0EE
:10CD400018274E687B43F3180DD002251D705860DC
:10CD50004A700949E80408602046F0BC7047002189
:10CD6000E2E70121E0E72846F0BC704708210020F7
:10CD700000ED00E000E400E000E200E010B5044651
:10CD800009488168C2688088511A814207D101210F
:10CD9000064801F07FF9002801D0052010BD21468A
:10CDA0000148FFF757FE10BD28370020DD20002086
:10CDB00070B50446244888B01E460D0042601FD05E
:10CDC000A888296882B22148FFF755FE002818D1AB
:10CDD000A889A96882B21E48FFF74DFE002810D12D
:10CDE0001C482EC803950293019200910FC804AD10
:10CDF0000FC5A06806902079002804D0012103E027
:10CE0000072008B070BD002168460175067760797B
:10CE1000002800D00E2069464875E0780290A0787E
:10CE2000039020780190607800900B49684601F0EB
:10CE3000C7F80028E5D101F0ADF90121074801F05C
:10CE400029F908B070BD0000DC2000202837002040
:10CE50003837002080EA01007DE80100DD20002055
:10CE600010B501460A48FFF718FE04000ED101F084
:10CE7000F1F900280AD107490548FFF7EBFD002822
:10CE800004D10121034801F097F90446204610BD62
:10CE900038370020DC200020F0B50C4693B01F216D
:10CEA0006A461180072600279180002809D0C178A2
:10CEB00049070DD502A9FFF733FB002809D102ADC0
:10CEC00001E000251780002C0ED0E078002802D069
:10CED000304613B0F0BD01AA0AA92046FFF720FB97
:10CEE0000028F6D10AAA02E0684600228780684638
:10CEF0008088C3B268460088C1B2284672DF13B08A
:10CF0000F0BD0000002801D0002A01D10E2070479A
:10CF1000F8B504460F464D48002506994571C36093
:10CF200001614BCA4A4D4BC54BCA4BC510682860BE
:10CF30004848583DFEF777FE484847490160484950
:10CF4000816038214748FEF720F920782B46187079
:10CF5000A0789870E078D87060785870616920691E
:10CF600069612861E168A068E960A8601846E26923
:10CF7000A169C2618161606A002822D03A493B48B8
:10CF800059628860626A12880A80616A8A88596A6E
:10CF9000002A8A8015D0616A401E8968491ED2071E
:10CFA00003D04A784270401C491C5A6A9288520841
:10CFB00007D04D7845708D788570801C891C521E75
:10CFC000F7D1A06A002828D02A49294888609962A8
:10CFD000A26A92888A80A16A9A6A09881180996AED
:10CFE0008A88002A15D0A16A401E8968491ED20786
:10CFF00003D04A784270401C491C9A6A92885208B1
:10D0000007D04D7845708D788570801C891C521E24
:10D01000F7D12C20015D18480173206A002808D040
:10D0200016481862216A49884180206A196A008876
:10D0300008806068002803D0114858606068586014
:10D0400039460848FFF728FFF8BD0000A820002057
:10D0500020360020C0200020543600204436002016
:10D0600074360020E835002094360020A0360020D9
:10D07000CC360020C036002008360020BC2000201E
:10D08000AE20002010B50288264C102A17D00021AF
:10D09000112A1AD01B2A11D1007A00280ED16079EA
:10D0A000012820D0022827D003282ED0042805D11B
:10D0B0002171E2680846002A00D0904710BD817DAA
:10D0C0000129FBD18088208110BD61708088218971
:10D0D0008842F9D1012000F053F80028F4D02169EA
:10D0E00000291CD110BD022000F04AF80028F9D018
:10D0F0002169002913D110BD032000F041F8002858
:10D10000F9D0216900290AD110BD03202071042023
:10D1100000F036F80028F7D021690029F4D08847BC
:10D1200010BD0000A820002010B51248007801288A
:10D130001DD1114C6078002819D16079002802D0E7
:10D1400074DF002814D1012060700C490620C870DB
:10D1500000210A48FFF7A0FE002809D1607900F0FD
:10D160000FF8002803D02169002900D0884700204B
:10D1700010BD000020360020A8200020E835002047
:10D18000F0B5834C87B06071002706A8069701F0C0
:10D1900015F9082802D0002808D104E006A800F0FC
:10D1A000B7FD002807D10698002804D00120207080
:10D1B000002007B0F0BD774D2846FEF734FD764ECF
:10D1C0007078002802D06079012807D0B078002854
:10D1D0000DD06079012801D002283ED1E1680029F4
:10D1E00004D00120E0700820884700E0E7706079F3
:10D1F000012802D0022818D02FE07078002812D021
:10D200006978681C002928D14178002925D18178C6
:10D21000002922D1C17800291FD1017900291CD110
:10D220004079002819D102206071B078002812D00E
:10D230006978681C002910D1417800290DD18178C6
:10D2400000290AD1C178002907D10179002904D128
:10D250004079002801D103206071307B002804D17F
:10D260006079032801D104206071307E002804D148
:10D270006079042801D167712771E16800290AD01B
:10D280006079032801D0042805D13078002802D025
:10D290006078002815D0A770009701970297039730
:10D2A000049768460597077007726279012A0DD0C6
:10D2B000022A12D039493A48032A17D0042A57D1F2
:10D2C00035E00120A07007208847E5E70120694686
:10D2D000019508704F820F823BE00121019501709A
:10D2E00031894182B1880182022032E0B28A6B46E4
:10D2F0005A82328A1A820279002A02D1027B002ADB
:10D3000005D03278002A02D06278002A01D00320AA
:10D310001FE002221A7203900420C87000211F48E7
:10D32000FFF7BAFD002800D043E705201FE0B28BCD
:10D330006B461A82328C5A820279002A02D1027B11
:10D34000002A05D03278002A02D06278002A02D062
:10D35000042020710FE002221A7203900420C8708A
:10D3600000210E48FFF798FD0028DDD1062020712E
:10D370006079002803D0684673DF0028D4D1E168C3
:10D38000002901D020798847002007B0F0BD0000B7
:10D39000A8200020C020002020360020E8350020F2
:10D3A0004436002070B53CC814493CC184684368C9
:10D3B00002688C604B60124C00250A6025701038A2
:10D3C000006800280CD00188A1804188E180818814
:10D3D0002181C18861810B487ADF00280DD103E0EB
:10D3E00008487BDF002808D10020C04360806570BA
:10D3F000054A00210548FFF761FB70BD0C3700208E
:10D40000C8200020CC2000203DE901006CEA01008A
:10D4100070B5284C068800232549E289102E15D0C6
:10D42000254D112E22D0122E37D0502E1DD1C1885D
:10D43000801D914219D14189022916D1417B027B7D
:10D4400008021043C007C00F0DD11CE084884C8037
:10D45000048B8C81448BCC81848B0C82C48B4C825A
:10D460004B70002A01D100F011FC70BD0020C043B8
:10D4700048804B702868FFF721FC0028F5D0A1698F
:10D48000002908D170BD2868FFF718FC0028F9D0E2
:10D49000A1690029F6D0884770BD02898A81428936
:10D4A000CA8182890A82C2894A8200F0EFFB70BD7C
:10D4B000C82000200C3700206CEA010070B505463A
:10D4C000FFF7A6FF29461D4800F0EEF828881C4CFF
:10D4D000102806D011280DD0132816D0522825D197
:10D4E0001BE0072000F00EFA002801D0FFF7A4FA95
:10D4F000A88808E0002000F005FA002801D0FFF716
:10D500009BFA0020C043608010E000231A4685216A
:10D5100060887FDF002807D108E000231A461946FB
:10D520006088A9DF002801D0FFF786FA2846FFF7B8
:10D53000A9FD284600F058F970BD00009034002085
:10D5400080200020F0B4574D04002DCD96B00AAED7
:10D550002DC67DD000297BD00020C043A082086862
:10D56000A0610025A57521460AA863DF002870D1B7
:10D57000217810A8817401260682A21C14A93046C5
:10D58000A0DF002865D101200146684610310795CB
:10D59000017701200146684610314177817FF922E9
:10D5A0001140891C8177019500950295039504959A
:10D5B00006950178102001436846017007A8059080
:10D5C0002346197810A88173032181810120014627
:10D5D00008A81031089501700120014608A81031F3
:10D5E00041708178F7201140891C0140EF200140F3
:10D5F000314308A8817013A80E9008A80F901095C9
:10D600001195129510A806804580142787805888A8
:10D610000C330EAA6946A2DF00283CD10095019583
:10D6200002950395049505956846069501780C20AA
:10D63000014368460170217808A88170022168467C
:10D64000018401200146234668461031079501E018
:10D6500024E020E00177012001466846103141773F
:10D66000817FF9200140F720891C0140EF20014013
:10D6700031436846817708A80E9007A80F9010954F
:10D680001195129510A80680458087805888231D23
:10D690000EAA6946A2DF16B0F0BC704716B0F0BC07
:10D6A0000E20704770EA010000281ED000291CD00F
:10D6B0000A88102A14D0112A14D0502A15D1CA88E9
:10D6C000038A891D9A4202D14B89022B0ED083888E
:10D6D0009A420AD18369002B07D04A890C31184736
:10D6E000898801E00021C943818270474A7B0B7B16
:10D6F00011021943C907C90F00D001218175704774
:10D7000007B485B000280DD0828A124B9A420CD003
:10D71000827D002A09D06A46928B142A08D90720F4
:10D7200008B070470E2008B07047082008B0704756
:10D730000022009201920292039282896B461A8023
:10D74000039107A9029101219970808A6946A6DF99
:10D7500008B07047FFFF0000F0B50025214F83B0EF
:10D760000E462C463860002919D06946002000F08A
:10D7700097F8002833D101A9012000F091F8002882
:10D780002DD168460079002801D0022004E06846C7
:10D790000078002802D00B20307000E034707868E8
:10D7A00000281BD10122022100F0AAF8002801D094
:10D7B000072812D107220221012000F0A1F8002839
:10D7C00001D0072809D100210A22084600F098F864
:10D7D000002801D0072800D120460546284603B07E
:10D7E000F0BD0000A020002010B5274C0188606823
:10D7F00010290DD011292FD1401E60602CD101229B
:10D80000022100F07DF8002827D0072837D124E036
:10D8100000281ED100210122084600F071F80028DE
:10D8200001D0072811D107220221012000F068F859
:10D83000002801D0072808D104220221002000F08E
:10D840005FF8002805D0072803D02168002900D000
:10D8500088476068401C606010BD072202210120DB
:10D8600000F04EF8002801D0072808D100210A2234
:10D87000084600F045F80028EED00728ECD02168D3
:10D880000029E9D0884710BDA020002010B5032052
:10D8900000F0F6F9002801D0062800D1002010BDC4
:10D8A000002008707047000010B5042816D0072823
:10D8B0001DD00A2811D1002000F024F8002801D042
:10D8C000FFF7BAF8FFF7E2FF002801D0FFF7B4F83E
:10D8D0003CDF002801D0FFF7AFF810BD0748132147
:10D8E000408876DF0828F8D00028F4D110BDFFF773
:10D8F0001BFC0828FAD00028EDD110BD80200020A4
:10D900000720704710B505490246097A0020C9076B
:10D9100002D0104600F02AF810BD00009020002030
:10D9200010B50C4A51609060C00706D007210A4824
:10D93000490581600022C2608161084A00210848CF
:10D94000FFF7BCF8002804D1064A01210648FFF77A
:10D95000B5F810BD902000200005005029DD010021
:10D9600064EA010005CA010068EA010070B50446D6
:10D970000020182C1AD221007944097949188F44C3
:10D980000B161639527795B2C1D2E5FDFBFAFAFAB9
:10D99000FAFAF9F8F7F6FBFBB54A0721D36849050F
:10D9A0009943B44B99600021D960117070BDB04D9E
:10D9B0000321E86889058143AE4881600021C16088
:10D9C000426807235B055A409202AB4A09D5826040
:10D9D000C160022C02D07D2040013DE0E120C0006A
:10D9E0003AE0C2608160022C02D0FF20913033E027
:10D9F000C82031E09E4D0321E868890581439D4898
:10DA000081600021C160426807235B055A40920291
:10DA1000994A04D58260C160192040011CE0C260AF
:10DA20008160C82018E0924D0321E8688905814390
:10DA3000904881600021C160426807235B055A401D
:10DA400092028D4A04D58260C1607D20400103E0CE
:10DA5000C2608160FF2091302C706421FDF766FB6D
:10DA600069680022414385480068FFF7B5F870BD3A
:10DA70007F4A0321D068890581437E488160002167
:10DA8000C160436807256D056B409B027A4B02D548
:10DA90008360C16001E0C36081601470506800223F
:10DAA000410076480068FFF797F870BD704903227F
:10DAB000C868920582436F4882600022C260436852
:10DAC00007256D056B409B026B4B02D58360C260DE
:10DAD00001E0C36082600C706848002249680068F9
:10DAE000FFF77AF870BD624A0323D1689B058B4328
:10DAF00060498B600023CB6001256D05CD608B6094
:10DB0000147070BD5B494868012292051346834337
:10DB10008B601040C8605648002241685748006832
:10DB2000FFF75AF870BD534A51680120800503463B
:10DB30008B4393600140D1604D48002240688100D2
:10DB400041184E480068FFF747F870BD49484168E2
:10DB50000122920513468B4383601140C160444803
:10DB60000022416845480068FFF736F870BD69E05B
:10DB70005BE04DE043E014E071E0FFE73D4A5068B0
:10DB8000012189050B46834393600840D0603848E3
:10DB9000002240688100411838480068FFF71CF8EF
:10DBA000E4E7364D6868FFF789F811210A1B01D0B8
:10DBB00000280AD02E4A0723D1685B0519402D4B57
:10DBC00099600021D960D160D0E70121C905284CB6
:10DBD000012AE1600AD9C82050436421FDF7A6FA62
:10DBE0006168002241436868FEF7F6FF0721E2689A
:10DBF00049050A401F49CA6000228A60B6E7072229
:10DC00001C4952058A600022CA6019490C70ADE7B0
:10DC10000321184A890591600021D16001235B0529
:10DC2000D360916012490C70A0E70522114952059A
:10DC30008A600022CA6001239B05CB608A600C4980
:10DC40000C7093E701220B49D2058A600022CA605A
:10DC500003235B05CB608A6005490C7086E70722C9
:10DC600004495205CA6000228A6001490C707DE7B0
:10DC700090200020000500500000200064EA010010
:10DC80000620704710B5FEF7D7FE10BDF8B517484F
:10DC9000194C4288164800260388164D61699A423D
:10DCA0000BD34088824208D80120002903D06A465D
:10DCB0001070684688472E70F8BD2878002804D078
:10DCC0000029F8D068460670F4E7687800280BD081
:10DCD000A1680A4800220068FEF77EFF0028EAD00B
:10DCE000A1690029E6D1E6E76168F2E7D4200020C7
:10DCF000CC200020C82000200C3700206CEA010056
:10DD000010B50446C0B2FFF7ABF8204610BD0000C6
:10DD1000002804D00349496D0160002070470320AA
:10DD2000704700008438002010B50448017AC90704
:10DD300002D00078FFF71AFE10BD000090200020EE
:10DD400000246D48A8B0447023466C4A092120463F
:10DD5000FEF7CCFE002801D0FEF76EFE684D0323CF
:10DD6000EA68A968686805910490664801210692EE
:10DD7000C90200906448019103910290634A694688
:10DD800004A8FFF715F8002801D0FEF755FE604AF9
:10DD900060490320FFF7C4FD002801D0FEF74CFEC8
:10DDA00069460020FFF7D8FC002801D0FEF744FEAA
:10DDB0002868059000234822574905A800F044FB35
:10DDC000002801D0FEF738FE6A460121002000F04D
:10DDD00025FB002801D0FEF72FFE504800F002FB83
:10DDE000002801D0FEF728FE684600F00DFB002851
:10DDF00001D0FEF721FE4A4800F0FCFA002801D0CD
:10DE0000FEF71AFE1120694608720B2245A102A8EE
:10DE10007CDF002801D0FEF70FFE00940621684643
:10DE20000194018008214180FF2184809131C180CB
:10DE30007ADF002801D0FEF7FFFD3D4800906946DB
:10DE40003C48FFF77FFB002801D0FEF7F5FD3821A5
:10DE500002A8FDF79AF90220694608728C72052023
:10DE6000C872382110A8FDF790F9012010A9088286
:10DE70001F94314924942094219415911E94259443
:10DE8000269420A9087140202290B4200094239069
:10DE90002A4B1EAA10A902A8FFF734F8002801D0C7
:10DEA000FEF7CAFD0520C00301900F200004029078
:10DEB000009403940494032168460173C48104749C
:10DEC0001F4805901F4806906846FFF76BFA002828
:10DED00001D0FEF7B1FD1CA0FDF76AFEFA221EA1DB
:10DEE0001E48FDF75DF90320FFF74AF9002801D02D
:10DEF000FEF7A2FDFEE7000080200020A8310020F0
:10DF000054EA0100A8210020A82900201DE80100F2
:10DF1000A9D80100CD0C00004C210020E81F0020F2
:10DF2000BDD401004E6F726469635F554152540065
:10DF300065E20100903400208420002061E30100AC
:10DF40009DE3010085DC01000D0A55415254205328
:10DF500074617274210D0A0000000000AC340020CE
:10DF60008207D30EFF229A408907090E10B4994008
:10DF700000280BDA03071B0F083B9C080C4BA4007E
:10DF8000E318DC6994430C43DC6107E08408094B27
:10DF9000A400E418236893430B432360C106C90E11
:10DFA00001208840044908600449086010BC70479B
:10DFB00000ED00E000E400E080E200E000E100E0CD
:10DFC000F8B58C462A49C97E002901D00820F8BD41
:10DFD000002800D12748012701783A468A4026497F
:10DFE0008A60016803228D00244900246D182A608C
:10DFF0004568AD006B181C60214E83697362437DD8
:10E00000057D2B43F36645680368F3607561037D06
:10E01000012B11D183680D469B005B191C60017BAD
:10E020003B468B4014498B60C168890049190A60DE
:10E03000C2688168B260316161460D4D0029696036
:10E0400002692A600AD0017F0E48C4610E4844600C
:10E050000F4A0E4850600220FFF782FF0420306014
:10E06000EC752C76AC75EF76AC760020F8BD000030
:10E0700090370020A0EA0100000500500007005082
:10E0800000250040002100404021004080000200A7
:10E0900000230040F0B4394A812556680023AD00C2
:10E0A000002E01D0364CA560D77D0024002F0DD066
:10E0B000137E002B06D0002E01D031484560F0BC05
:10E0C0001120704710610123117603E0D175D060F3
:10E0D00054761476907E844618432A4B04D15C62B1
:10E0E0009C60294901200860002E04D02448456026
:10E0F000F0BC0020704725484460D47DD668586A3B
:10E10000002800D001209968002901D0012500E0F5
:10E1100000251E494968002900D001210D4305430F
:10E12000EDD005460D430CD1002C11D09D60184D4B
:10E13000AD69577EF555557E6D1C5576557EAC42C2
:10E14000DDD80023D375002807D0F0BC032070472A
:10E1500000259D600E4DAD69F0E7002902D0F0BCAE
:10E160000F2070476046002803D00749012008604F
:10E17000BEE7054901204860BAE70000903700205B
:10E1800000230040002100400020004040210040CA
:10E19000002500400548817E002906D1044A5162CD
:10E1A0009160044A01211160817670479037002008
:10E1B0000021004000200040224A937D002B01D026
:10E1C00011207047F0B491750027906097821E4E21
:10E1D000BC46F7611D4C0123A360F761938AC55CBF
:10E1E000938A5B1C93821A4CE5615368002B22D101
:10E1F000938A8B4214D2A315F469002C02D1948A1D
:10E200009C42F9D1948A9C4207D0F761948A055DBB
:10E21000948A641C94820E4CE561948A8C42EBD300
:10E22000918AC81FF93809D0F0690028FCD0074945
:10E230000120C8609775F0BC604670470F20844687
:10E24000F8E7000090370020002100400020004047
:10E25000002500400248807D002800D00120704742
:10E2600090370020F8B5284C164660780D460028F7
:10E270000ED001280BD12A78244F212A1BD020460A
:10E2800081683A2A2DD06B7821A0FDF791FCF8BD6A
:10E2900028783F28FBD1FA2225A11C48FCF780FFF3
:10E2A000012060706878E060B21EA91C1748FCF776
:10E2B00077FF022022E01548FCF77FFFC019B21E4D
:10E2C000A91CFCF76DFF1148FCF777FFC01919A1D5
:10E2D000FDF77EFC0D4918A0FDF76AFC0020607078
:10E2E000F8BD687888420BD10848FCF766FFC01972
:10E2F000B21EA91CFCF754FFA068401CA060F8BD2A
:10E300000EA0FDF755FCF8BD80200020AC340020A5
:10E310004552523A45787065637465643A25642CB9
:10E3200072656365697665643A256325640A000051
:10E33000000000000D0A0000257300004552524FF6
:10E34000523A20496E76616C6964207061636B6536
:10E3500074207265636569766564210A00000000B7
:10E3600010B5002809D0032806D10220FFF7CAFA09
:10E37000002801D0FEF760FB10BD0020FFF7C2FAB5
:10E38000002801D0FEF758FBFFF780FA002801D0E3
:10E39000FEF752FB3CDF0028ECD110BD10B5007831
:10E3A000002807D104483B21408876DF002801D0AF
:10E3B000FEF742FB10BD00008020002007490979CC
:10E3C000490701D408207047002804D0044949783F
:10E3D0000160002070470E2070470000E4200020FC
:10E3E000AC37002081B002490091002001B0704795
:10E3F00080200020002803D00249C8600020704718
:10E400000E2070472C21002082B003490191009119
:10E41000694660DF02B070478020002010B40024FD
:10E42000146054609460D4600123146113801473E9
:10E4300011725072002800D0937210BC00207047F7
:10E4400010B5FEF7EBFA10BD002901D10720704787
:10E4500030B48C0702D0072030BC7047124CA1604A
:10E4600062801249636010DF0028F5D1012020701E
:10E4700081050F4800680002800F04280BD2002895
:10E4800009D0022807D00B484268002A06D002684B
:10E490000A43026004E030BC074870470748016047
:10E4A00030BC0020704700002C21002041E4010016
:10E4B00014E400E0402100200220000000E100E020
:10E4C000F0B593B00020C94A029011690A915378BF
:10E4D0009478D068A34211D05B1CDBB25370022B3E
:10E4E00001D1002353701B06C14C9B0DE3580693CA
:10E4F00059180902090A1161012101E00021069160
:10E500000F91BA491090097808914A1ED6B2099223
:10E51000B64A002992680D9254D0B449B54F0A69A1
:10E52000049209790B910D998C46F20061465518B9
:10E530002A78697891423AD0182353436968521C6B
:10E54000C918AB78D2B2934200D100220B78022BCB
:10E5500002D0032B28D120E04C680346010023D0D1
:10E56000A14204D00B46C9690029F9D11CE0002959
:10E570001AD08B4208D1C069002805D10124BC60A3
:10E580000024049401240B940C68C969D961002902
:10E590000AD00B681B190B6006E0002804D000218C
:10E5A0000174C0690028FBD169789142C4D1314619
:10E5B000761EF6B20029B8D18C49C860049808616B
:10E5C0000B98087189481099C068884201D00121D0
:10E5D00000E000210E910F99002922D000230A9D0E
:10E5E000069900281BD0814AD06804688C4202D961
:10E5F000611A016013E0091BE31800240460C66976
:10E60000D660C2680446002A07D0EF183F023F0ACE
:10E6100047608260029AE2610290002EE3D10120FD
:10E620000E907248099AC1680898029FD2B2079169
:10E630000592002879D06D48026900790B900D98F9
:10E6400094460C900598C2000C9814185FE0002FB7
:10E6500002D03846FF6920E02078182242436368E0
:10E66000401CC0B29A182070A378984201D10020B3
:10E67000207013785068012B4BD1037C002B48D1BC
:10E6800093684360D36883601369C3605269826191
:10E690000B9A002A01D000224260436862469A1A0F
:10E6A0001202554D120AAA4203D28368D2180260A0
:10E6B0000AE06246D21A12028368120A934201D912
:10E6C0009A1A00E000220260002242600123826068
:10E6D0000374C261002908D003680A68934206D80F
:10E6E000D21A0A60C161014611E001460FE00D46F1
:10E6F0002A4604E01546D2699B1B002A04D01668FE
:10E700009E42F7D3F61A16600360C261E861002FDB
:10E710009DD12078627890429ED10598421ED2B257
:10E72000059200288ED13148C1603048C2680798F0
:10E73000824202D10E98002852D001202B4C0004B6
:10E740002E4B002A39D015682D4A214654680E698F
:10E75000C978A21B17023F0AFF1C002910D158607C
:10E760002849486028494000086028490860214934
:10E77000012008602F20FCF7ADFC1C490120C87067
:10E78000AF4200D33D46A81900022149000A0860A3
:10E790001B4A5368001B1B1B1B021B0A0002000ABA
:10E7A000DB1C83421CD9506808602F20FCF792FCC8
:10E7B000012018494004086012E00125164A690446
:10E7C000116098600F4988600A4E75602F20FCF731
:10E7D00081FCB56000252F202561FCF77BFCE570EE
:10E7E00002490020087113B0F0BD0000082100208C
:10E7F0002021002000100140FFFF7F004013014056
:10E80000001501400013014080E200E000E100E05B
:10E810004015014000E200E080E100E070B50178C1
:10E82000002907D0012901D0022902D14068FEF752
:10E8300003F970BD0F4C0E4D20782818FEF79EFA94
:10E840002078401CC2B2A81822702038C07F0A2845
:10E8500001D0142AEDD306490748FEF751FF0828D6
:10E8600003D0002801D0FEF7E7F80020207070BD2B
:10E8700094210020802000209034002030B50178C1
:10E880002A4D83B001290AD002292FD000292BD18B
:10E8900029462748FEF7DEF8002835D038E04068E2
:10E8A00001782448FEF7F9F8224C002807D001210E
:10E8B0006A46117001906968684688470AE0A06856
:10E8C000E168081A012805D10020694608706968C6
:10E8D00068468847A068E168081AA188884203D87A
:10E8E00001211548FFF7D6FB03B030BD02216A466F
:10E8F0001170C068019001210F48FFF7CBFB6968D8
:10E900006846884703B030BD01210848FFF754FC32
:10E9100007488168C0688842F4D1032069460870BE
:10E9200069686846884703B030BD0000DC200020DD
:10E930003837002028370020DD20002038B5154961
:10E94000154A488890420FD04A78144C521CD2B2D3
:10E950004A70237B934208D3114975DF002803D006
:10E96000A169002900D0884738BD00254D70217C61
:10E97000002907D03B2176DF002803D0A1690029B8
:10E9800000D0884761690029EED068460570884745
:10E9900038BD0000C8200020FFFF00000C37002019
:10E9A000CC200020FFB583B00C9C07462088029045
:10E9B0000026388896463546002848DD7868A90044
:10E9C00041180A88684682804988C18000226946C9
:10E9D00001A865DF002835D168460178714523D14B
:10E9E000002E01D0002200E002222088891842185F
:10E9F0000D998A4225D8002E09D1401C80B2208072
:10EA0000069A049911542088401C2080012681B266
:10EA100006980A18694601A865DF002812D16946E0
:10EA2000208809784018208038886D1CA842C5DCF1
:10EA3000002E0CD021880298081A401E80B2FF28B0
:10EA400002D90C2007B0F0BD029A06998854002024
:10EA500007B0F0BD010000070B09080A0000000024
:10EA600000000010A8350020C8350020EC3600203A
:10EA70009ECADC240EE5A9E093F3A3B50000406E26
:10EA8000090000000B0000000A0000000800000060
:10EA9000000000000000000000E0D70103000000BB
:10EAA000090000000B0000000A0000000800000040
:10EAB000000000000000000000E0D701030000009B
:10EAC000E0EA010080200020CC0000004ABC0100E8
:10EAD000ACEB01004C210020941F00005ABC010047
:10EAE0000000FFFF01000200000000000000000025
:10EAF0000000000000000000000000000000000016
:10EB00000000000000000000000000000000000005
:10EB1000FFFF0000000000000000000000000000F7
:10EB200000000000000000000000000000000000E5
:10EB300000000000000000000000000000000000D5
:10EB400000000000000000000000000000000000C5
:10EB500000000000000000000000000000000000B5
:10EB600000000000000000000000000000000000A5
:10EB70000000000000000000000000000000000095
:10EB80000000000000000000000000000000000085
:10EB90000000000000000000000000000000000075
:0CEBA00000000000000000000024F40051
:040000050001B0C185
:00000001FF
