:020000022000DC
:10600000000001205D630200456302004763020057
:10601000496302004B6302004D6302000000000070
:106020000000000000000000000000004F630200BC
:106030005163020000000000536302005563020038
:10604000E1AB020057630200BDB8020057630200D3
:106050005763020057630200D5B502005763020080
:106060005763020057630200576302005763020040
:106070005763020057630200576302005763020030
:1060800057630200998502005763020057630200BC
:106090005763020057630200CD16030057630200E6
:1060A0005763020057630200576302005763020000
:1060B0005763020057630200000000000000000068
:1060C00057630200576302005763020057630200E0
:1060D000576302005763020057630200000000008C
:1060E00000000000000000000000000000000000B0
:1060F00000000000000000000000000000000000A0
:10610000000000000000000000000000000000008F
:10611000000000000000000000000000000000007F
:10612000000000000000000000000000000000006F
:10613000000000000000000000000000000000005F
:10614000000000000000000000000000000000004F
:10615000000000000000000000000000000000003F
:10616000000000000000000000000000000000002F
:10617000000000000000000000000000000000001F
:10618000000000000000000000000000000000000F
:1061900000000000000000000000000000000000FF
:1061A00000000000000000000000000000000000EF
:1061B00000000000000000000000000000000000DF
:1061C00000000000000000000000000000000000CF
:1061D00000000000000000000000000000000000BF
:1061E00000000000000000000000000000000000AF
:1061F000000000000000000000000000000000009F
:10620000314932480A1A02D0072291438D4630495B
:1062100030480A1A06D00722914381F309880222E6
:1062200082F314882C482D492D4A00F03CF82D4863
:106230002D492E4A00F037F82D482E492E4A00F0FD
:1062400032F82E482E492F4A00F02DF82E482F49BB
:106250002F4A00F028F82F482F49304A00F023F841
:106260002F483049304A00F01EF8304830490022AB
:1062700000F024F82F483049002200F01FF82F4A80
:1062800090471F481F49884205D00268043003B474
:10629000904703BCF7E700208646EC46002000212B
:1062A000274A9047FEE7884207D0521A05D0037864
:1062B00001300B700131013AF9D17047884202D0A8
:1062C00002700130FAE770470000012000E0002072
:1062D0000000012000000120D0430300984300206B
:1062E00068720020B8630200B8630200282403002B
:1062F000D043030098430020984300201426030055
:106300001426030014260300142603001426030099
:10631000142603001426030014260300CF430300B1
:10632000A07203006872002068720020687200206A
:106330006486002064860020648600208563020055
:106340006DE40200FEE7FEE7FEE7FEE7FEE7FEE79C
:10635000FEE7FEE7FEE7FEE700F002B8FFF7FCBF4E
:106360000F484FF00701884385460E4880470E4886
:10637000016841F470010160BFF34F8FBFF36F8F6D
:10638000FFF73EBF09480A490A4A884207D0521A15
:1063900005D0037801300B700131013AF9D1704713
:1063A00000000120599C020088ED00E01426030043
:0863B0009843002098430020EF
:1063B80000B583B001900091019B1B681B68009990
:1063C8000198984700BF03B05DF804FB00B583B09F
:1063D8000190019B1B685B680198984700BF03B058
:1063E8005DF804FB00B583B00190019B1B689B68B6
:1063F8000198984700BF03B05DF804FB82B0019094
:10640800019BDB6801225A7100BF02B0704782B05D
:106418000190019BDB685B79184602B07047000069
:10642800024A034BD31ADB0818467047C0250300FD
:106438002025030084B00190009100238DF80F30CF
:10644800019B1B7803F00403DBB2002B24D0019BD3
:106458001B78C3F30103DBB2012B02D0022B0CD053
:1064680017E0009B1B68019A1288C2F38312D2B20C
:1064780013449A1C009B1A600BE0009B1B68019A4E
:106488005288C2F3891292B213449A1C009B1A6074
:1064980000BF01238DF80F309DF80F30184604B067
:1064A8007047000000B58BB00023ADF826303E4899
:1064B80002F056FA3D4802F053FA3D4B5B680493EC
:1064C8003B4B9B680693049A069B134002339B0040
:1064D800374A13440433089304AB19460898FFF766
:1064E800A9FF0346002B09D0049A069B13400233E8
:1064F8009B002F4A134404330893EDE700BF0023A1
:10650800079311E0049B5A1C0492069A1340079AB9
:10651800920001A90A44264902339B000B445B6898
:106528001360079B01330793079B012BEAD99DF85A
:106538000430C3F30103DBB2012B10D0022B1CD1B2
:10654800BDF80A30ADF82630BDF80630C3F389131C
:106558009BB203339A08049B1344049313E0BDF8D9
:106568000A30ADF82630BDF80430C3F38313DBB22C
:106578001A46049B1344049305E00E494FF4BF7078
:1065880006F05EFF00BF094802F0F6F90590059B8A
:10659800002B02D0049B064A5360BDF826301846EB
:1065A8000BB05DF804FB00BF507700204C7700204B
:1065B800387300201826030000B585B0002107486D
:1065C80002F03FF90390039B0293029B83F31003AD
:1065D8000193019B184605B05DF804FB5477002031
:1065E80000B589B00390029101920093039B1B0CA4
:1065F8000793FFF7E1FF0690FFF712FF0246079B9C
:10660800934204D3214940F2A31006F019FF069BD8
:106618001904009B5A1C0A9B1340079A0A431C49F9
:1066280002339B000B445A60009A0A9B13400233C2
:106638009B00174A134404330593039B03F0070395
:10664800D9B2059A137861F3C5031370019B03F05F
:106658000F03D9B2059A138861F389131380029B3B
:10666800C3F31501059A136861F39F231360059A14
:106678001378012161F301031370059A13786FF3FE
:106688008203137000BF09B05DF804FB18260300ED
:106698003873002000B58DB00390029113468DF831
:1066A8000730039B02330A9301238DF82730002318
:1066B8008DF81B300DF11B03184601F055FB404BBC
:1066C8001A68029B1A603E4B9A683D4B59683C4BCE
:1066D8001B68CB1A134401330B9314E0012139488A
:1066E80002F00EF9FFF7DEFE07900799354802F031
:1066F80007F9334B9A68324B5968314B1B68CB1AF0
:10670800134401330B930A9A0B9B9A42E6D89DF8DF
:106718002730002B48D0002305939DF80730002B25
:1067280017D09DF81430012262F301038DF814305C
:106738009DF8143043F004038DF81430039B03F0E4
:106748000F03DAB2BDF8143062F38913ADF81430D0
:1067580016E09DF81430022262F301038DF814301C
:106768009DF8143043F004038DF81430039BC3F3F1
:1067780009039AB2BDF8163062F38F13ADF81630DC
:106788000F4B1A680E4B9B68134002339B000C4A50
:10679800134404330893059A089B1A60084B1A6837
:1067A8000A9B1344064A13609DF81B30184601F0F3
:1067B800F1FA9DF8273018460DB05DF804FB00BFCC
:1067C800387300205477002000B58BB005900491F1
:1067D800039202931F4B9B68079306AB012219464D
:1067E8000298FFF757FF0346002B24D0069B02337D
:1067F80009930023089311E0089B9B00039A1A440D
:10680800099B591C099107990B40126811490233D9
:106818009B000B445A60089B01330893089A029B1B
:106828009A42E9D3069A079B00931346029A049961
:106838000598FFF7D5FE074B93F82034002B05D0B9
:1068480000BF00F097F80346002BFAD100BF0BB049
:106858005DF804FB3873002000B583B00190009107
:106868000023002200990198FFF7AEFF00BF03B094
:106878005DF804FB00B587B0039002910192019B7B
:10688800059305AA012302990398FFF79DFF00BF0E
:1068980007B05DF804FB00B587B003900291019240
:1068A8000093019B0493009B059304AA0223029979
:1068B8000398FFF789FF00BF07B05DF804FB00B538
:1068C80089B00390029101920093019B0593009B6C
:1068D80006930A9B079305AA032302990398FFF7D7
:1068E80073FF00BF09B05DF804FB00B58BB00390DF
:1068F800029101920093019B0593009B06930C9BC8
:1069080007930D9B08930E9B099305AA05230299EB
:106918000398FFF759FF00BF0BB05DF804FB00B503
:106928008BB00390029101920093019B0493009B0A
:1069380005930C9B06930D9B07930E9B08930F9B47
:10694800099304AA062302990398FFF73DFF00BFA5
:106958000BB05DF804FB0000054B5A68044B1B683C
:106968009A420CBF01230023DBB21846704700BFD0
:106978003873002000B599B0FFF7EEFF0346002BEF
:1069880001D00023BEE19B4B0022C3F81824BFF3BB
:106998004F8F00BF974B5B680493964B9B6810938F
:1069A800049A109B134002339B00924A1344043309
:1069B8001193002317930023169300230F9304AB1E
:1069C80019461198FFF736FD0346002B19D0894B5D
:1069D800D3F81834002B14D1864B1A68049B9A42BA
:1069E80005D8844B1B68834A536000238AE1049AC4
:1069F800109B134002339B007E4A134404331193C7
:106A0800DDE70023159311E0049B5A1C0492109AA9
:106A18001340159A920001A90A44764902339B0053
:106A28000B445B681360159B01331593159B012B71
:106A3800EAD99DF8043003F00303DBB2022B40F0DF
:106A48009C80BDF80630C3F389139BB20D93BDF843
:106A58000630C3F389139BB2502B28BF50239BB237
:106A68000C930C9BC3F309039AB2BDF8063062F38A
:106A78008F13ADF806300C9B08330B939DF8043048
:106A8800C3F3C203DBB20F930B995B4802F099F88A
:106A98001790179B002B00F0D180179802F022F96D
:106AA80001A9169B0822179802F0D8F9169B0833FB
:106AB8001693049BDA43109B134001339B000A93FF
:106AC8000C9A0A9B9A4242D90A9B002B08D0049A36
:106AD800109B134002339B00464A1344043300E0E2
:106AE800464B08930A9B002B02D00A9BDBB201E0BD
:106AF8000C9BDBB28DF81F300A9B002B01D03F4B5B
:106B080000E0002306930A9B002B06D00C9BDAB208
:106B18000A9BDBB2D31ADBB200E000238DF81730F2
:106B28009DF81F20169B0899179802F097F99DF871
:106B38001F30169A13441693069B002B16D09DF807
:106B48001720169B0699179802F088F90EE0049A08
:106B5800109B134002339B00264A134404330993C5
:106B6800169B0C9A0999179802F078F90D9B033334
:106B78009A08049B1344049360E09DF8043003F0E2
:106B88000303DBB2012B59D1BDF80430C3F38313DF
:106B9800DBB2062B28BF0623DAB2BDF8043062F355
:106BA8008913ADF80430BDF80430C3F38313DBB2A6
:106BB80002330E939DF80430C3F3C203DBB20F9384
:106BC8000E9B9B0019460C4801F0FBFF1790179B82
:106BD800002B33D0179802F085F801A9169B0822DC
:106BE800179802F03BF9169B083316930023159368
:106BF8001BE000BF38730020C02503004473002049
:106C0800049B5A1C0492109A134002339B003F4A7B
:106C18001344191D169B0422179802F01FF9169B9E
:106C280004331693159B01331593BDF80430C3F351
:106C38008313DBB21A46159B9342E1D3179B002BB3
:106C480040D0324BD3F810341493304BD3F8183467
:106C5800002B1BD0179802F054F84DE000238DF854
:106C68004F301498FFF7D3FB0346002B02D00123C3
:106C78008DF84F309DF84F30002B03D0179914989A
:106C8800FFF796FB149BDB681B681493149B002B7F
:106C9800E4D1179802F035F800238DF803300DF190
:106CA8000303184601F060F8184BD3F81834002B8A
:106CB80002D1049B154A53609DF80330184601F031
:106CC80069F819E0114BD3F81034129306E01298C2
:106CD800FFF788FB129BDB681B681293129B002B43
:106CE800F5D10B4A0B4BD31ADB081B0443F0020304
:106CF80009491846FFF7B0FDFFF72EFE034683F05B
:106D08000103DBB2184619B05DF804FB38730020A4
:106D180048250300202503007C26030000B583B026
:106D28000D4BD3F8103401930B4B012283F8202428
:106D380009E00198FFF762FB0198FFF747FB019B09
:106D4800DB681B680193019B002BF2D100BF00BFD9
:106D580003B05DF804FB00BF3873002084B003461D
:106D68008DF807309DF807305B08DBB21A460D4BEB
:106D78009B5C8DF80F309DF8073003F00103002B62
:106D880004D09DF80F301B09DBB204E09DF80F30EA
:106D980003F00F03DBB28DF80E309DF80E30184665
:106DA80004B070479077002084B003460A468DF8F7
:106DB800073013468DF806309DF8073003F00103BD
:106DC800002B01D00F2300E0F0238DF80F309DF841
:106DD800073003F00103002B04D09DF806301B0197
:106DE800DBB201E09DF806308DF80E309DF80730D3
:106DF8005B08DBB21A46114B9A5C9DF807305B08BA
:106E0800DBB219469DF80F301340DAB20B4B5A54D7
:106E18009DF807305B08DBB21A46084B9A5C9DF870
:106E280007305B08DBB219469DF80E301343DAB21F
:106E3800024B5A5400BF04B0704700BF907700203F
:106E480000B585B003468DF807300023039310E0A2
:106E58000F4B1A68039BDB0013440293029B1B78B9
:106E68009DF807209A4201D1029B0DE0039B013354
:106E78000393084B1B781A46039B9342E8DB0649A9
:106E8800882006F0DDFA0023184605B05DF804FBFB
:106E98005C770020607700209C26030000B585B051
:106EA80003460A468DF8073013468DF806309DF8DC
:106EB80007301846FFF7C4FF0390039B002B0BD045
:106EC800039B5B68002B07D0039B5B689DF806104B
:106ED8009DF807201046984700BF05B05DF804FBF1
:106EE8002DE9F04F87B003460A468DF80F30134658
:106EF8008DF80E309DF80F301846FFF72FFF034628
:106F0800042B00F2C28001A252F823F0296F02007C
:106F18009D6F0200B96F0200E96F0200FF6F020067
:106F28009DF80E30002B00F0AD809DF80F30012148
:106F38001846FFF739FF00238DF817300DF11703B6
:106F4800184600F011FF9DF80F104FF001024FF0A6
:106F58000003A1F12004C1F1200003FA01F702FAAD
:106F680004F4274322FA00F0074302FA01F6494BDA
:106F7800D3E9002346EA020100913B430193454BC4
:106F8800DDE90012C3E900129DF81730184600F039
:106F980001FF77E09DF80E30002B01D0022200E0BF
:106FA80000229DF80F3011461846FFF7FDFE6CE0F1
:106FB8009DF80E30002B0CD09DF80F300321184699
:106FC800FFF7F2FE9DF80F3001211846FFF766FF24
:106FD8005BE09DF80F3001211846FFF7E5FE54E00D
:106FE8009DF80E30002B4FD19DF80F300421184624
:106FF800FFF7DAFE48E09DF80E30002B06D09DF82A
:107008000F3003211846FFF7CFFE3EE09DF80F3002
:1070180000211846FFF7C8FE9DF80F3000211846DA
:10702800FFF73CFF00238DF816300DF116031846C4
:1070380000F09AFE9DF80F104FF001024FF0000388
:10704800A1F12006C1F1200003FA01F502FA06F6C3
:10705800354322FA00F0054302FA01F46FEA040806
:107068006FEA05090B4BD3E9002308EA020A09EA8B
:10707800030B084BC3E900AB9DF81630184600F027
:1070880089FE02E000BF00E000BF00BF07B0BDE816
:10709800F08F00BF8877002000B583B00648074B03
:1070A8001B685B080022194600F082FD019000BFB2
:1070B80003B05DF804FB00BF687700206477002008
:1070C80000B587B001900023059328E01C4B1A688F
:1070D800059BDB0013440493049B1B78184604F0BB
:1070E8005BFA03468DF80F30049B5B78012B0CBFCD
:1070F80001230023DBB21A469DF80F309A420CBFD9
:10710800012300238DF80E30049B1B789DF80E2078
:1071180011461846FFF7E4FE059B01330593094B1A
:107128001B781A46059B9342D0DB074BD3E9002313
:10713800134301D0FFF7B0FF00BF07B05DF804FBB1
:107148005C770020607700208877002000B585B044
:1071580001900B468DF80330019BDBB21846FFF710
:107168006FFE0390039B1B78184604F015FA03463C
:107178008DF80B30039B5B78012B0CBF0123002398
:10718800DBB21A469DF80B309A420CBF012300234C
:107198008DF80A309DF80A30002B06D0054BD3E94C
:1071A8000023134301D1FFF777FF00BF05B05DF857
:1071B80004FB00BF8877002000B58BB003900B4616
:1071C80001928DF80B30019B092B01D8072367E04A
:1071D80004F01EF9034683F00103DBB2002B09D04B
:1071E80004F0C4F80990099B0893089B002B01D070
:1071F800089B55E02C4A039B13602C4A9DF80B30E2
:1072080013702B4A019B13602022002129480AF0A1
:1072180061FD29494FF000024FF00003C1E9002346
:1072280031E09DF80B30DB00039A134407930323E6
:107238008DF8143000238DF815309DF816306FF353
:1072480000038DF816309DF816306FF341038DF862
:1072580016309DF816306FF382038DF81630079BB1
:107268009B788DF81530079B1B78184605AB134A99
:10727800194604F0D9F80990099B0693069B002B40
:1072880001D0069B0CE09DF80B305A1E8DF80B20A0
:10729800002BC6D10A4A00210A4800F055FC0346D3
:1072A80018460BB05DF804FB5C770020607700207F
:1072B80064770020907700208877002055710200BD
:1072C800C9700200FC26030000B583B01D4B1B6883
:1072D800002B04D11C4940F2431006F0B1F80023FA
:1072E80001930BE0174B1A68019BDB0013441B78D2
:1072F800184604F013F9019B01330193134B1B78D3
:107308001A46019B9342EDD300238DF803300DF10B
:107318000303184600F028FD0D494FF000024FF016
:107328000003C1E900239DF80330184600F032FD40
:10733800084B184600F072FC0346184603B05DF887
:1073480004FB00BF5C7700209C26030060770020C8
:10735800887700206877002086B003900291019218
:1073680001238DF817309DF81730214A039B1360CD
:107378001F4A029B53601E4A019B9360039B44F281
:107388000102934213D0039B44F20202934221D19B
:10739800019B174AD360164BDB681B881A46144BAF
:1073A8009A61134BDB685B68114AD36112E0019B59
:1073B8000F4A13610E4B1B699B680D4A53610C4BB6
:1073C8001B691B680A4A9361094B1B695B68084A79
:1073D800D36100BF72B600BF00BF9DF81730DBB2A3
:1073E800002BFAD162B600BF00BF06B0704700BFDD
:1073F800B077002000B583B002900091019244F26A
:10740800010071466A4600F003F803B000BD00BFF2
:1074180030B58BB007900691059272B600BFFFF7A2
:107428007DFC00BFFFF7A6FA0346002BFAD1079BA5
:1074380044F2020293422FD0079B44F20202934285
:1074480069D8079B44F20102934237D0079B44F264
:10745800010293425FD8079B012B05D0079B41F29D
:10746800010293420CD056E0394A3A4BD31ADB0852
:107478001B0443F0010338491846FFF7EDF957E0BC
:10748800334A344BD31ADB081B0443F00103334956
:107498001846FFF7E1F94BE0059B09932C4A2D4B61
:1074A800D31ADB081B0443F00100099B5B681A46EA
:1074B800099B1B882A49FFF7EEF939E0059B0893D9
:1074C800234A244BD31ADB081B0443F00104089B0E
:1074D8009D68089B9B68184602F07AF80346184690
:1074E800089B5B681946089B1B68069A02920193E1
:1074F800009103462A461B492046FFF7F6F9144A2D
:10750800144BD31ADB081B0443F001031649184631
:10751800FFF7A2F90CE00E4A0E4BD31ADB081B0446
:1075280043F00103069A11491846FFF7A3F900BF73
:107538000F4B1B6803F00103002B00D000BE059A17
:1075480006990798FFF708FF00BF0BB030BD00BFD2
:1075580048250300202503000027030020270300F7
:107568004427030060270300882703009C270300A3
:10757800F0ED00E0F0B583B0124800F0EFFF0346ED
:1075880018464FF00001104BD3E90023861841EB51
:107598000307CDE900670D4BD3E90023DDE90001BE
:1075A800994208BF904207D2DDE9002312F18074A6
:1075B80043F10005CDE90045DDE9002310461946F1
:1075C80003B0F0BD98430020D8770020E077002072
:1075D80088B001900091019B0793009B0693079B3D
:1075E800D3E90223CDE90423069BD3E90223CDE99D
:1075F8000223DDE90423DDE90201994208BF904234
:107608002CBF01230023DBB2184608B070470000E6
:1076180030B585B00190019B5B69002B03D12B49E4
:10762800A22005F00DFF00238DF80F30284B1B78A2
:10763800002B45D0019B002B42D0019B1B7FDBB266
:10764800002B3DD0FFF796FF019BD3E90223994217
:1076580008BF90422CD3019B1B69002B02D1019BD0
:1076680000221A77019B5B69019A92691046984734
:10767800019B1B69002B23D0019B1B7FDBB2002BD6
:107688001ED0019BD3E90201019B1B691A464FF0EA
:107698000003841841EB0305019BC3E90245019BE4
:1076A80019460C4801F0EEFE01238DF80F3007E073
:1076B800019B1946074801F0E5FE01238DF80F30BC
:1076C8009DF80F30184605B030BD00BFC027030035
:1076D800D477002020280300F0B589B001900091EC
:1076E8000D230793009B00221A70019BD3E90245E2
:1076F800FFF740FF02460B46A61A65EB0307CDE9E4
:107708000467DDE90423012A73F100031BDB049BF2
:10771800B3F5350F05D300F0A9FA0246154B13440B
:1077280003E0019BD3E90223134603934FF4960326
:10773800039A0021104800F013FE0790079B002BC6
:1077480005D1012313E000210B4800F0E1FE079B5F
:107758000D2B07D10198FFF75BFF03461A46009BE4
:107768001A7003E00549F52005F06AFE0023184663
:1077780009B0F0BDFFFFB40098430020C027030004
:1077880000B583B0044801F0B7FE0190019B18468C
:1077980003B05DF804FB00BF2028030000B583B0E8
:1077A800044801F0CBFE0190019B184603B05DF838
:1077B80004FB00BF2028030000B583B0FFF7E0FFFB
:1077C8000190019B002B02D0019B00221A77019B9C
:1077D800002BF3D100BF00BF03B05DF804FB00002D
:1077E800054BD3E9002312F1807043F10001024BED
:1077F800C3E9000100BF7047D877002000B583B007
:107808000190134B1B68002B1DD0019800F0A6FEB9
:107818000F4B1B68D3E90223134623F07F43194615
:1078280000F018FA0346B3F5960F04D309494FF44C
:10783800957005F005FE064B1B681846FFF7E8FE35
:10784800034B00221A6000BF03B05DF804FB00BFC1
:10785800D0770020C027030000B583B00190FFF760
:1078680089FE02460B460349C1E9002300BF03B065
:107878005DF804FBE077002000B585B00190FFF7C4
:107888008DFF039000238DF80B30039B002B48D00D
:107898002B4B1B68002B03D101238DF80B3019E00B
:1078A800039BD3E90201264B1B68D3E902239942C3
:1078B80008BF90420ED201238DF80B30204B1B6875
:1078C8001B7FDBB2002B05D01D4B1B6819461D48DA
:1078D80001F0D8FD9DF80B30002B2AD0FFF750FFA0
:1078E80003900DF10A0319460398FFF7F5FE0346C6
:1078F800002B12D0124B1B68002B02D1019800F00C
:107908003BFC0F4A039B13609DF80A3083F0010388
:10791800DBB2002BB3D000BF0EE0094B00221A6087
:10792800ADE7074B1B68002B05D1019800F03AFC26
:1079380001E000BF00E000BF00BF05B05DF804FB38
:10794800D07700202028030000B587B001902C4A8A
:1079580003AB1946104600F0FEFE059048E0059B73
:107968001B78022B2ED0022B32DC002B02D0012BED
:1079780014D02DE0059B5B681B7FDBB283F001030D
:10798800DBB2002B26D0059B5B6801221A77059B8A
:107998005B6819461B4801F075FD1BE0059B5A689A
:1079A800194B1B689A4203D1174B00221A6012E048
:1079B800059B5B681946134801F0D4FD03468DF812
:1079C800133008E0FFF7F8FE104B01221A7002E0AE
:1079D80000BF00E000BF0A4A03AB1946104600F09A
:1079E800D3FE074A03AB1946104600F0B4FE0590D3
:1079F800059B002BB3D100BF00BF07B05DF804FBA7
:107A08004078002020280300D0770020D477002079
:107A180000B583B00190019800F06DFD0346002B7E
:107A280001D0FFF7DDFE0021019800F082FD03463A
:107A3800002B02D00198FFF7E1FE0121019800F028
:107A480078FD0346002B02D00198FFF705FF019847
:107A5800FFF77AFF0198FFF70FFF00BF03B05DF84B
:107A680004FB000008B5024800F085FD00BF08BD12
:107A78009843002000B585B0034600918DF8073083
:107A8800114A02AB1946104600F038FE0390039BDA
:107A9800002B13D0039B9DF807201A70039B009AB4
:107AA8005A60094A02AB1946104600F040FE0346E8
:107AB800002B01D0FFF7D6FF002300E0042318466F
:107AC80005B05DF804FB00BF4078002000B583B026
:107AD800164B1B680093164808235822154900F0D6
:107AE800DAFD0190019B002B01D0019B19E06B4648
:107AF800114A1946114800F0C1FA0190019B002B68
:107B080001D0019B0DE001210C4800F0E3FC0123AA
:107B18000B4A0121094800F05BFB0A4B01221A704D
:107B2800019B184603B05DF804FB00BF1C28030046
:107B380040780020E8770020197A02009843002056
:107B4800FFFF7F00D477002000B587B003900B4675
:107B580001928DF80B30039B002B04D1134940F29E
:107B68002E2005F06DFC019B002B04D10F4940F23B
:107B78002F2005F065FC019B002B01D1072310E0A5
:107B8800039B1B680593059B019A5A619DF80B306E
:107B9800012B0CBF01230023DBB21A46059B1A6197
:107BA8000023184607B05DF804FB00BFC027030098
:107BB80030B587B0039002910192039B002B04D14A
:107BC800154940F23E2005F03BFC039B0593059BBD
:107BD8001B7FDBB2002B01D000231AE0059B019A22
:107BE8009A61FFF7C7FC029B1A464FF000038418FE
:107BF80041EB0305059BC3E90245059B1B69002B67
:107C080002D0059B029A1A6105990020FFF732FFFE
:107C18000346184607B030BDC027030000B585B03D
:107C28000190019B002B04D109494FF4157005F010
:107C380007FC019B0393039B00221A7703990120F9
:107C4800FFF718FF0346184605B05DF804FB00BFB0
:107C5800C027030082B001900091019A009BD31ABB
:107C680023F07F43184602B07047000008B5034868
:107C780000F074FC0346184608BD00BF9843002076
:107C880082B0EFF310830093009B019372B600BF9C
:107C9800019B184602B0704762B600BF00BF70472C
:107CA80000B585B00190FFF7EBFF0390164B9B687A
:107CB800002B1BD1144B01229A60144BD3F880205F
:107CC800134B1340104A1360104B114AC3F880201D
:107CD8000E4BD3F884300C4A53600C4B4FF0FF32F4
:107CE800C3F88420019B00221A7002E0019B012244
:107CF8001A70039B002B01D1FFF7CEFF0023184613
:107D080005B05DF804FB00BF5478002000E100E0F6
:107D1800FC06FFBD00B585B003468DF80730104B53
:107D28009B68002B16D09DF80730002B12D1FFF767
:107D3800A7FF03900B4A0A4B1B681360094A084BBC
:107D48005B685360064B00229A60039B002B01D1AD
:107D5800FFF7A2FF0023184605B05DF804FB00BF3B
:107D68005478002000E100E000B583B0019000F0F5
:107D78002BF80346012B03D00549432005F060FB8F
:107D88000198FFF78DFF00BF03B05DF804FB00BF4B
:107D98002C28030000B583B003468DF8073000F0A7
:107DA80013F80346012B03D00649512005F048FB80
:107DB8009DF807301846FFF7ADFF00BF03B05DF828
:107DC80004FB00BF2C28030084B0EFF30583019364
:107DD800019BC3F308030393039B002B0DD1EFF31F
:107DE80014830093009B0293029B03F00103002B72
:107DF8000CBF01230023DBB200E00123184604B0C6
:107E08007047000082B003468DF807309DF80730B0
:107E180003F01F0205499DF907305B09012000FAAC
:107E280002F241F8232000BF02B0704700E100E0F1
:107E380082B003468DF807309DF8073003F01F0223
:107E480006499DF907305B09012000FA02F2403328
:107E580041F8232000BF02B0704700BF00E100E0F6
:107E680082B0034600918DF807309DF90730002B4A
:107E78000CDA009BDAB20C499DF8073003F00F03C7
:107E8800043B5201D2B20B441A7609E0009BDAB2E5
:107E980006499DF907305201D2B20B4483F80023FA
:107EA80000BF02B0704700BF00ED00E000E100E055
:107EB80000B583B003460A468DF8073013468DF89F
:107EC80006309DF80630012B03D99DF80630032BA8
:107ED8000BD99DF80630042B03D99DF80630072BE3
:107EE80003D908496B2005F0ABFA9DF806209DF9E7
:107EF800073011461846FFF7B3FF00BF03B05DF81F
:107F080004FB00BF9028030000B583B003468DF83A
:107F180007309DF907301846FFF774FF00BF03B01C
:107F28005DF804FB00B585B00190019B002B0AD0D9
:107F3800074B43F001030393019B9B010293039BAF
:107F48000298984700E000BF05B05DF804FB00BF49
:107F5800A029030084B0039002910192039B029A26
:107F680002F5A872019943F8221000BF04B07047C7
:107F780082B001900091019B009A02F5A87253F813
:107F88002230184602B0704782B001900091019BE0
:107F9800009AC3F8042300BF02B0704782B0019072
:107FA8000091019B009AC3F8082300BF02B07047F4
:107FB80082B001900B46ADF80230BDF80230019A4C
:107FC80013441B68184602B0704784B001900B46F2
:107FD800ADF80230BDF80230019A134400221A604D
:107FE800BDF80230019A13441B680393039B00BF3A
:107FF80004B0704782B00190019BD3F8043518464D
:1080080002B0704700B583B001900091009BB3F5B2
:10801800805F04D306494FF4BE7005F011FA019B46
:10802800009AC3F8082500BF03B05DF804FB00BF41
:10803800C028030082B001900B468DF803309DF8EC
:108048000320019B13441A460123136000BF02B0AA
:10805800704782B001900091019B009AC3F84423B5
:1080680000BF02B0704782B001900091019B009A56
:10807800C3F8482300BF02B07047000000B587B0BE
:10808800039002910192039B002B03D133495520A1
:1080980005F0D6F9029B002B03D13049562005F094
:1080A800CFF9019B002B03D12C49572005F0C8F9C3
:1080B800039B5B7919462A4A019B42F82130039BAE
:1080C8005B79284ADB0013441B79002B0ED0082368
:1080D8000593254A254BD31ADB081B0443F00203FA
:1080E80023491846FEF7B8FB059B32E0039B1A6844
:1080F800029B1B8819461046FFF784FF039B93F9E0
:108108000420029B9B7819461046FFF7D1FE039B7B
:1081180093F904301846FFF7F7FE039B5B79114A81
:10812800DB00134401221A71039B5B7919460D4A3F
:10813800039B42F83130002305930B4A0B4BD31AAB
:10814800DB081B0443F003030A491846FEF784FBC7
:10815800059B184607B05DF804FB00BFF028030034
:10816800607800206478002058250300202503004B
:108178004C2903007029030000B583B00190019BCE
:10818800002B03D10649872005F05AF9019B1B688B
:1081980000211846FFF74EFF00BF03B05DF804FB4F
:1081A800F028030000B583B00190019B002B03D198
:1081B80006498D2005F044F9019B1B6804211846E7
:1081C800FFF738FF00BF03B05DF804FBF028030099
:1081D80000B587B00390029101928DF80330039B9C
:1081E800002B03D12149962005F02AF94FF480325B
:1081F800029B02FA03F30593029B50339BB29B0048
:10820800ADF81230019B23F07F430193039B1B6859
:1082180005991846FFF7C2FE039B1B680599184687
:10822800FFF721FF039B1B68BDF812201146184673
:10823800FFF7CBFE039B1B68019A02991846FFF7CC
:1082480089FE039B1B6805991846FFF702FF9DF8F6
:108258000330002B05D0039B1B6805991846FFF7D0
:1082680093FE00BF07B05DF804FB00BFF0280300D1
:1082780000B585B00390029113468DF80730039B33
:10828800002B03D10B49A92005F0DAF8039B1B68E2
:1082980002991846FFF7DDFE9DF80730002B05D040
:1082A800039B1B6802991846FFF76EFE00BF05B0D6
:1082B8005DF804FBF028030000B583B0019000913D
:1082C800019B002B03D10A49B32005F0B9F8019BA3
:1082D8001B6800991846FFF7C6FE019B1B680099AA
:1082E8001846FFF75BFE00BF03B05DF804FB00BF54
:1082F800F028030000B583B001900B46ADF80230BA
:10830800019B002B03D10F49BA2005F099F8019B76
:108318001B68BDF8022011461846FFF749FE0346C0
:10832800002B09D0019B1B68BDF802201146184696
:10833800FFF74BFE012300E00023184603B05DF869
:1083480004FB00BFF028030082B001900091019A5D
:10835800009BD31A23F07F43184602B070470000F1
:1083680000B58BB00390029101920093039B002B00
:1083780003D15749CD2005F063F84FF48032029BB2
:1083880002FA03F30993029B50339BB29B00ADF8AA
:108398002230019B23F07F43019309990398FFF74B
:1083A8008BFF039B1B681846FFF724FE0790039B6F
:1083B8001B6802991846FFF7DBFD0690039B1B68B4
:1083C800079A02991846FFF7C5FD039B1B68BDF87D
:1083D800222011461846FFF7F8FD07990698FFF77F
:1083E800B3FF0346012B0AD11020FFF79BFD039B27
:1083F8001B68BDF8222011461846FFF7E6FD039BCF
:108408001B681846FFF7F6FD079007990198FFF7D4
:108418009BFF0590039B1B6809991846FFF719FEF7
:10842800059B012B15D1039B1868019B01331A4644
:108438000299FFF78FFD1020FFF774FD039B1B685F
:108448001846FFF7D7FD0246079B934235D00D2308
:1084580039E0039B1B68019A02991846FFF77AFDD9
:10846800039B1B681846FFF7C5FD0790019B013B5E
:1084780007991846FFF768FF0590009BC3F1FF13A3
:1084880003F57F43059A9A4201D90D231BE0059B0A
:10849800002B12D1039B1868019B01331A460299DD
:1084A800FFF758FD039B1B681846FFF7A3FD02461C
:1084B800079B934201D00D2305E0012209990398F7
:1084C800FFF7D6FE002318460BB05DF804FB00BF8B
:1084D800F028030000B583B001900B468DF80330F7
:1084E8009DF803301A4602210198FFF7C1FE00BF2C
:1084F80003B05DF804FB00B583B001904FF48271BE
:108508000198FFF7F7FE0346184603B05DF804FB31
:1085180000B583B0019000914FF48032009B02FABD
:1085280003F319460198FFF7C7FE00BF03B05DF8D3
:1085380004FB00B585B001900091009B50339BB2BD
:108548009B00ADF80E30BDF80E3019460198FFF7C4
:10855800D1FE0346184605B05DF804FB00B583B0AC
:108568000190019B1B681846FFF744FD0346184617
:1085780003B05DF804FB00B583B00190019B93F94B
:1085880004301846FFF754FC00BF03B05DF804FB45
:1085980008B5044B1B68044A12681046984700BF88
:1085A80008BD00BF607800206478002086B0019084
:1085B8000091019B53E8011F8AB2D8890244988927
:1085C800824228BF121A1889824202BFBFF32F8F36
:1085D800002307E0C2EA010243E801200028E9D1AC
:1085E8004FF001038DF80F30059002910492029A22
:1085F800009B1A609DF80F30DBB2184606B0704732
:1086080084B00190019951E8013FC3EA034341E86E
:108618000132002AF7D10392029300BF04B07047D9
:1086280086B001900091019B53E8021F1FFAA1F246
:10863800D888824202BFBFF32F8F00230DE0D8896C
:1086480002449889824228BF121AC1EA024243E8CA
:1086580002200028E8D14FF001038DF80F30059073
:1086680002910492029A009B1A609DF80F30DBB2C7
:10867800184606B0704784B00190019951E8023F4E
:10868800C3EA234341E80232002AF7D10392029356
:1086980000BF04B0704784B00390029111461A4697
:1086A8000B46ADF806301346ADF80430029B002B9C
:1086B80001D10E231FE0BDF80630BDF80420B3FB3E
:1086C800F2F102FB01F29B1A9BB2002B01D00923A5
:1086D80011E0039B029A1A60039B00225A60039BD5
:1086E80000229A60039BBDF806209A81039BBDF87F
:1086F8000420DA810023184604B0704700B585B01D
:1087080001900091009B19460198FFF74FFF03461F
:10871800002B07D0019B1B68009A1288134403930F
:10872800039B00E00023184605B05DF804FB00B584
:1087380083B001900091009B1A88009B5B889A4245
:1087480004D10198FFF75CFF012300E000231846DD
:1087580003B05DF804FB00B585B001900091009B63
:1087680019460198FFF75CFF0346002B07D0019BD1
:108778001B68009A528813440393039B00E000236C
:10878800184605B05DF804FB00B583B00190009170
:10879800009B1A88009B5B889A4204D10198FFF7D6
:1087A8006AFF012300E00023184603B05DF804FBCC
:1087B80000B585B001900091009B5B099B00019A70
:1087C8001A44009B03F01F03012101FA03F3194621
:1087D800104600F04DF8039000BF05B05DF804FBAB
:1087E80000B585B001900091009B5B099B00019A40
:1087F8001A44009B03F01F03012101FA03F3DB4332
:108808001946104600F064F8039000BF05B05DF803
:1088180004FB82B001900091009B5B099B00019AC8
:1088280013441A68009B03F01F0322FA03F303F0B2
:108838000103002B14BF01230023DBB2184602B04A
:10884800704710B487B001900091019B009A53E8DB
:10885800004F104643E8000191F0000FF7D105944E
:1088680004900391059B184607B05DF8044B7047C8
:1088780010B487B001900091019B009A53E8004F13
:1088880044EA020043E8000191F0000FF6D1059494
:1088980004900391049B184607B05DF8044B704799
:1088A80010B487B001900091019B009A53E8004FE3
:1088B80004EA020043E8000191F0000FF6D10594A4
:1088C80004900391059B184607B05DF8044B704768
:1088D80010B487B001900091019B009A53E8004FB3
:1088E80004EA020043E8000191F0000FF6D1059474
:1088F80004900391049B184607B05DF8044B704739
:1089080010B487B001900091019B009A53E8004F82
:1089180004EB020043E8000191F0000FF6D1059442
:1089280004900391049B184607B05DF8044B704708
:1089380010B487B001900091019B009A53E8004F52
:10894800A4EB020043E8000191F0000FF6D1059472
:1089580004900391049B184607B05DF8044B7047D8
:1089680000B583B0019001210198FFF781FF03460C
:10897800184603B05DF804FB00B583B001900021F0
:108988000198FFF78DFF0346184603B05DF804FB16
:1089980000B583B001900B468DF80330019B002B86
:1089A80003D10849E82004F04BFD019BDA689DF8E3
:1089B80003300199098A01FB03F31344184603B0F5
:1089C8005DF804FBA829030000B583B0019000916D
:1089D800019B002B03D10849F52004F031FD009BD1
:1089E800019AD2689B1A019A128AB3FBF2F3DBB29E
:1089F800184603B05DF804FBA829030000B585B04C
:108A08000190019B002B01D10E234CE0019B1B68B8
:108A1800002B03D12649FF2004F012FD019B5B685F
:108A2800002B04D122494FF4807004F009FD019B0A
:108A38009B68002B04D11E4940F2011004F000FD90
:108A4800019BDB68002B04D119494FF4817004F0B5
:108A5800F7FC019B1B8A002B04D1154940F2031037
:108A680004F0EEFC019B9A68019B5B68D31A8DF8B1
:108A78000F30019B1B68019A52681A6007E0019B3E
:108A88001A681368591C11609DF80F201A709DF818
:108A98000F305A1E8DF80F20002BF0D1019B1B6858
:108AA80000221A710023184605B05DF804FB00BFC8
:108AB800A829030000B585B00190019B002B04D1C3
:108AC8001F494FF4927004F0BBFC0023039300236A
:108AD8008DF80A300DF10A031846FFF745F9019B96
:108AE8001B681A68019B5B689A421FD9019B1B6827
:108AF8001A68013A1A601B681B7819460198FFF733
:108B080047FF0390019B9A68019B1B681B68D31A57
:108B18008DF80B30019B1B681B799DF80B209A423E
:108B280004D9019B1B689DF80B201A719DF80A3027
:108B38001846FFF72FF9039B184605B05DF804FBAC
:108B4800A829030010B584B001900091019B002B67
:108B580004D1154940F2471004F072FC009B002B29
:108B680004D111494FF4A47004F06AFC009B0393EC
:108B780000238DF80B300DF10B031846FFF7F4F8BE
:108B8800019B1B681C68621C1A6003990198FFF717
:108B98001BFF034623709DF80B301846FFF7FAF8C1
:108BA80000BF04B010BD00BFA829030000B583B002
:108BB80001900198FFF722FF0346184603B05DF8BD
:108BC80004FB00B58BB001900091019B1B8A043B0C
:108BD8000793009A079B1344DA1C079BB2FBF3F335
:108BE8008DF81B300198FFF765FF0590059B002B5A
:108BF80001D1002338E0059B00221A71059B012250
:108C08005A71079B9AB2059BDA80059B09939DF8D8
:108C18001B30013B0493099B019A1A6000230893B7
:108C28001DE00198FFF746FF0390039B002B0ED031
:108C3800059B5B790133DAB2059B5A71099B039A4C
:108C48001A60039B019A1A60039B099304E0059834
:108C580000F00EF8002307E0089B01330893089AF8
:108C6800049B9A42DDD3059B18460BB05DF804FBC4
:108C780000B58BB00190019B0793079B5B798DF83A
:108C88001B30019B08939DF81B30013B0593002383
:108C9800099305E0089B1B680893099B0133099316
:108CA800099A059B9A42F5D3089B1B680493019B7C
:108CB8000893002309930BE0089B1B68039308990A
:108CC8000498FFF73FFF039B0893099B013309931F
:108CD8009DF81B30099A9A42EED300BF00BF0BB033
:108CE8005DF804FB00B585B00190019B0393039BDD
:108CF800043301211846FFF703FE00BF05B05DF8F5
:108D080004FB00B587B00190019B0593059B0433D4
:108D180001211846FFF70CFE0346039303AB0493A7
:108D2800049B1B78002B02D10198FFF7A1FF00BF1D
:108D380007B05DF804FB000000B591B00390029104
:108D480001920093039B002B03D14349B62004F002
:108D580077FB039B0993039B0F93099BDB881A46B8
:108D6800099B5B7903FB02F3043B0893009A089B79
:108D78009A4203D33849C42004F062FB099BDB887C
:108D88000793009B1A1D079BB2FBF3F30E93009BFE
:108D98000433079AB3FBF2F2079901FB02F29B1A1C
:108DA8000D93019B1A68009B1344089A9A4203D2B8
:108DB800089A009BD31A01E0019B1B680C93019B46
:108DC8000C9A1A6005E00F9B1B680F930E9B013BE2
:108DD8000E930E9B002BF6D100230B93079A0D9B45
:108DE800D31A0A930A9A0C9B934228BF13460A93F4
:108DF8002AE0029A0B9B134406930F9A0D9B134487
:108E0800043305939DF84830002B05D00A9A05993C
:108E1800069808F036FF04E00A9A0699059808F0C3
:108E280030FF00230D930F9B1B680F930C9A0A9B2E
:108E3800D31A0C930B9A0A9B13440B93079A0C9B17
:108E4800934228BF13460A930C9B002BD1D100BF35
:108E580000BF11B05DF804FB082A030000B589B013
:108E68000590049103920293039B079307AA00239A
:108E78000093029B04990598FFF75EFF079B039AEE
:108E88009A4203D00349F62004F0DAFA00BF09B089
:108E98005DF804FB082A030000B589B00590049129
:108EA80003920293039B079307AA01230093029B53
:108EB80004990598FFF740FF079B039A9A4204D04C
:108EC80004494FF4807004F0BBFA00BF09B05DF8A4
:108ED80004FB00BF082A030082B003468DF8073060
:108EE8009DF8073003F01F0206499DF907305B091A
:108EF800012000FA02F2603341F8232000BF02B0DB
:108F0800704700BF00E100E000B583B00190019B0D
:108F1800002B03D10649722004F092FA019B00222B
:108F28001A60BFF35F8F00BF00BF03B05DF804FB9A
:108F3800BC2A030041DF704700BF184600B585B062
:108F480000238DF803300DF103031846FEF70CFFDC
:108F5800F1EE103A0193019B0393039B23F09F03C7
:108F68000293029BE1EE103A00BFBFF35F8F00BF90
:108F78002620FFF7B1FF9DF803301846FEF70AFFD9
:108F8800039B03F00703002B03D004497D2004F062
:108F980057FA00BF05B05DF804FB00BF002B0300C3
:108FA80008B5064B00221A700548FFF7ADFF0549C2
:108FB800054800F00BFA0023184608BD7078002019
:108FC8006C780020642B03007478002000B583B00F
:108FD800FFF7B4FF08F048FB0346002B0ED0FFF75D
:108FE800A9FF0190019B002B0ED0019B022B0BD0F7
:108FF80007494FF4B07004F023FA05E020BF00BF22
:1090080040BF00BF20BF00BF00BF03B05DF804FB36
:10901800002B030082B00190019B9B68024A1278E2
:109028001344184602B07047CB2B030000B583B039
:1090380001900091019B002B03D10849832004F083
:10904800FFF9019B9B68009A9A4202D2009B013368
:1090580000E00023184603B05DF804FB702B030002
:1090680000B585B00190019B1B681B680393019BA9
:109078001B685B680293029A039B9A4203D3029A85
:10908800039BD31A07E00198FFF7C4FF0246039B2E
:10909800D21A029B1344184605B05DF804FB000081
:1090A80000B585B00190019B002B03D10D49982094
:1090B80004F0C6F9019B1B681B680393019B1B689E
:1090C8005B68029302990198FFF7B0FF0246039B81
:1090D80093420CBF01230023DBB2184605B05DF8AC
:1090E80004FB00BF702B030010B588B001900091FD
:1090F80000230793019B002B03D15649A32004F0BA
:109108009FF9009B002B03D15249A42004F098F941
:1091180000238DF80F300DF10F031846FEF724FEDB
:109128000198FFF7BDFF03468DF81B309DF81B30F3
:1091380083F00103DBB2002B03D1019B1B7C002BC6
:109148007BD1019B1B685B680593019B1B685A6870
:10915800019B1C6811460198FFF768FF034663608E
:109168009DF81B30002B0AD0019B1B681A68019BD5
:109178001C6811460198FFF759FF03462360019BBD
:10918800DB68013B072B38D801A252F823F000BF57
:10919800B9910200C991020003920200DB9102001A
:1091A800039202000392020003920200ED91020072
:1091B800019B5A68059B1344009A12781A702DE097
:1091C800019B5A68059B5B001344009A12881A8019
:1091D80024E0019B5A68059B9B001344009A12687F
:1091E8001A601BE0019B5A68059BDB00D118009BA5
:1091F800D3E90023C1E9002310E0019B5B6819460D
:10920800019BDB68059A02FB03F30B441846019B9C
:10921800DB681A46009908F034FD00BF0198FFF793
:109228001FFF0490019B1B689B68049A9A4207D908
:10923800019B1B68049A9A6002E00423079300E0EC
:1092480000BF9DF80F301846FEF7A4FD079B18468F
:1092580008B010BD702B030010B588B003900291C0
:1092680013468DF8073000230793039B002B03D187
:109278004549E72004F0E4F8029B002B03D142495A
:10928800E82004F0DDF800238DF817300DF11703FE
:109298001846FEF769FD039800F078F8034683F056
:1092A8000103DBB2002B63D0039B1B681B6806938A
:1092B8009DF8073083F00103DBB2002B0AD0039B33
:1092C8001B681A68039B1C6811460398FFF7AEFEDB
:1092D80003462360039BDB68013B072B37D801A2B9
:1092E80052F823F00D9302001D93020057930200D9
:1092F8002F930200579302005793020057930200DE
:1093080041930200039B5A68069B13441A78029BF8
:109318001A702FE0039B5A68069B5B0013441A8857
:10932800029B1A8026E0039B5A68069B9B00134405
:109338001A68029B1A601DE0039B5A68069BDB00B3
:109348001344D3E900230299C1E9002312E0039BE7
:109358005B681946039BDB68069A02FB03F30B4420
:109368001946039BDB681A46029808F08AFC01E05C
:10937800052307939DF817301846FEF70BFD079B4A
:10938800184608B010BD00BF702B030000B585B0AB
:109398000190019B002B04D10B4940F22B2004F0D3
:1093A8004FF8019B1B681B680393019B1B685B6854
:1093B8000293039A029B9A420CBF01230023DBB25B
:1093C800184605B05DF804FB702B030000B583B0A8
:1093D80001900091019B002B03D11049502004F00B
:1093E8002FF8009B002B03D10C49512004F028F8DA
:1093F800019B009A1A60019B1B681A68019B5A60BE
:10940800019B5A68019B1B685B689A4202D1019BC9
:1094180000225A6000BF03B05DF804FBCC2B0300A8
:1094280000B583B00190019B002B03D11449632040
:1094380004F006F8019B1B68002B03D11049642037
:1094480003F0FEFF019B5B68002B14D0019B5B6857
:109458001A46019B1B689B6813441A46019B5A6075
:10946800019B5A68019B1B685B689A4204D1019B67
:1094780000225A6000E000BF03B05DF804FB00BFA3
:10948800CC2B030000B585B001900091019B002B07
:1094980003D118493A2003F0D3FF009B002B03D1D6
:1094A80014493B2003F0CCFF019B5B6803930FE05A
:1094B800019B9B68039A12680099104698470346D7
:1094C80083F00103DBB2002B07D1039B1B680393D6
:1094D800039B1B68002BEBD100E000BF039B1A68BD
:1094E800009B1A60039B009A1A6000BF05B05DF8E4
:1094F80004FB00BF502C030000B585B00190019B10
:10950800002B03D10C49512003F09AFF019B5B68A3
:109518001B680393019B5B681B68002B06D0019BAB
:109528005B681A68019B5B6812681A60039B18469F
:1095380005B05DF804FB00BF502C030000B583B0F4
:109548000190019B002B03D105495D2003F078FFB2
:10955800019B5B681B68184603B05DF804FB00BFFD
:10956800502C030000B585B001900091019B002BA1
:1095780003D11649692003F063FF009B002B03D138
:1095880012496A2003F05CFF00238DF80B30019B21
:109598005B6803930FE0039B1B68009A9A4207D10C
:1095A800009B1A68039B1A6001238DF80B3006E0B4
:1095B800039B1B680393039B1B68002BEBD19DF84F
:1095C8000B30184605B05DF804FB00BF502C0300B3
:1095D80000B585B00190019800F00EF80390039B48
:1095E800002B01D0039B00E0024B184605B05DF844
:1095F80004FB00BFB42C030086B00190164B059302
:10960800164B04931FE0049A059BD31ADB10DA0F5C
:1096180013445B10DB00059A13440393039B1B68F8
:109628000293029A019B9A4202D9039B04930AE08F
:10963800029A019B9A4203D2039B0833059302E0E6
:10964800039B5B6804E0059A049B9A42DBD30023E2
:10965800184606B0704700BFB4300300DC31030081
:1096680084B00190019B9B680393019BDA68039B7C
:10967800D31A184604B0704782B001900B468DF893
:109688000330019B1A68019BDB68019989880B40AC
:1096980013449DF803201A70019BDB685A1C019B38
:1096A800DA6000BF02B0704784B003900B460192A5
:1096B800ADF80A30039B1A68039B9968BDF80A3015
:1096C8000B44039989880B4013441A78019B1A703C
:1096D80000BF04B0704700B583B001900091009AB4
:1096E80000210198FFF7E0FF019B9B685A1C019B32
:1096F8009A6000BF03B05DF804FB84B00390029148
:109708001346ADF80630029B002B01D10E231DE055
:10971800BDF80630002B07D0BDF806305A1EBDF83C
:1097280006301340002B01D009230FE0039B029A57
:109738001A60BDF80630013B9AB2039B9A80039BDE
:1097480000229A60039B0022DA600023184604B0C6
:10975800704700B583B001900B468DF8033001982F
:10976800FFF77EFF0246019B9B889A4207D89DF827
:10977800033019460198FFF77FFF002300E0042318
:10978800184603B05DF804FB00B583B00190009162
:109798000198FFF765FF0346002B05D00099019853
:1097A800FFF799FF002300E00523184603B05DF892
:1097B80004FB000000B587B00390029113468DF8B2
:1097C800073000230593039B1B781A46114B9B5CBB
:1097D800002B09D0039B04339DF8072002991846F3
:1097E80003F030FA05900FE0039B1B781A46094BEB
:1097F8009B5C002B08D1039B0C339DF80720029932
:10980800184602F0E3FB0590059B184607B05DF883
:1098180004FB00BFCC78002000B585B00190002380
:109828008DF80F30019B1B781A46114B9B5C002B5F
:1098380008D0019B0433184603F0C4FA03468DF898
:109848000F300EE0019B1B781A46094B9B5C002BDE
:1098580007D1019B0C33184602F040FC03468DF8F3
:109868000F309DF80F30184605B05DF804FB00BFB7
:10987800CC78002000B587B00390029113468DF88C
:10988800073000230593039B1B781A46114B9B5CFA
:10989800002B09D0039B04339DF807200299184632
:1098A80003F0A8FA05900FE0039B1B781A46094BB2
:1098B8009B5C002B08D1039B0C339DF80720029971
:1098C800184602F063FC0590059B184607B05DF842
:1098D80004FB00BFCC78002084B00190019B9B68FA
:1098E8000393019BDA68039BD31A184604B07047A8
:1098F80000B587B001900091019B1B78022B45D0E1
:10990800022B6ADC002B52D0012B66D1019B1B7AFB
:10991800002B05D1012233493348FFF7ABFF5DE047
:10992800019B5B681B7819463048FFF712FF0590CA
:10993800059B002B0AD001238DF80C30059B04935E
:109948002B4B1B6803AA104698470DE02748FFF7E2
:10995800C3FF0346002B07D000238DF80C30244B9F
:109968001B6803AA104698472048FFF7B5FF03462F
:109978001E4A9288934205D801221A491A48FFF7CD
:1099880079FF2BE01B4B01221A7027E002238DF888
:109998000C30019BDB680493012212491248FFF73F
:1099A80069FF134B1B6803AA1046984716E0124933
:1099B8001248FFF7E9FE0346002B05D101220E49A4
:1099C8000948FFF7F7FE09E003238DF80C30084B30
:1099D8001B6803AA1046984700E000BF00BF07B005
:1099E8005DF804FB84780020A043002088780020DC
:1099F8007C780020857800208078002098780020E6
:109A080030B591B00390029101928DF803303C4A31
:109A1800019B1360029B002B01D107236DE0029B81
:109A28001968029B5B689BB21A463648FFF765FEC9
:109A38000F900F9B0E930E9B002B01D00E9B5CE0AA
:109A4800029B9968029BDB689BB21A462E48FFF777
:109A580054FE0F900F9B0D930D9B002B01D00D9B77
:109A68004BE02A4B04AC1D460FCD0FC495E80F0000
:109A780084E80F00039B5B690A93039B1B7C002B04
:109A880014BF01230023DBB28DF824309DF8033086
:109A98008DF82C30039B5B7C002B01D00E2300E05B
:109AA80000238DF82530039BDB680693039B9B6896
:109AB8000793039B1B680593039B5B68049304ABA4
:109AC800134A1946134800F09FFE0F900F9B0C9302
:109AD8000C9B002B01D00C9B0FE00F4B00221A703F
:109AE800039B1B68B3F1FF3F06D001220B490948CD
:109AF800FFF7C0FE034600E00023184611B030BD52
:109B08007C7800208878002098780020DC310300D9
:109B1800F9980200A043002085780020847800206E
:109B280000B587B00190019B002B03D11449CA20CE
:109B380003F086FC134B1B788DF8173001991248F7
:109B4800FFF722FE04909DF81730002B12D00D4B22
:109B580000221A7001220D490D48FFF78BFE039071
:109B6800039B0293029B002B04D0054AD62102983E
:109B7800FDF740FC049B184607B05DF804FB00BFE6
:109B8800FC31030085780020887800208478002044
:109B9800A043002000B585B003468DF807309DF836
:109BA800073019461048FFF7D4FD0390039B002B9C
:109BB80015D10E48FFF730FE034683F00103DBB2F0
:109BC800002B0CD00A490848FFF7DEFD0346002B9E
:109BD80005D1012206490548FFF7ECFD0390039BD8
:109BE800184605B05DF804FB98780020A0430020D3
:109BF8008078002000B583B001900091019BDBB212
:109C08001846FFF7C7FF019B184603B05DF804FB31
:109C1800BFF34F8F00BF074BDB6803F4E0620549D1
:109C2800054B1343CB60BFF34F8F00BF00BF00BF8E
:109C3800FCE700BF00ED00E00400FA05024B034A10
:109C48001A6000BF704700BFB44300200090D003E3
:109C580008B500F069F90346002B06D0A04B1B6835
:109C68001B0AA04A03F01F03136000F089F903469A
:109C7800002B02D09C4B9D4A1A6000F09DF90346C8
:109C8800002B06D09A4B1B685B0B9A4A03F007031C
:109C9800136000F0BDF90346002B05D0964BDB6836
:109CA800954A23F08073D36000F0CEF90346002B69
:109CB8000ED04FF080430022C3F80C214FF08043B0
:109CC8000022C3F810214FF080430022C3F8382542
:109CD80000F0E6F90346002B02D0884B03221A60F5
:109CE80000F0FAF90346002B0BD0854B05221A60C9
:109CF800844B01221A60844B00221A60834B3F2256
:109D08001A6000F005FA0346002B76D04FF0805316
:109D18007F4AD3F80434C2F820354FF080537C4A88
:109D2800D3F80834C2F824354FF08053784AD3F872
:109D38000C34C2F828354FF08053754AD3F81034E4
:109D4800C2F82C354FF08053714AD3F81434C2F856
:109D580030354FF080536E4AD3F81834C2F8343592
:109D68004FF080536A4AD3F81C34C2F840354FF09C
:109D78008053674AD3F82034C2F844354FF08053F3
:109D8800634AD3F82434C2F848354FF08053604A08
:109D9800D3F82834C2F84C354FF080535C4AD3F8D6
:109DA8002C34C2F850354FF08053594AD3F8303428
:109DB800C2F854354FF08053554AD3F83434C2F8BA
:109DC80060354FF08053524AD3F83834C2F86435BE
:109DD8004FF080534E4AD3F83C34C2F868354FF000
:109DE80080534B4AD3F84034C2F86C354FF0805357
:109DF800474AD3F84434C2F8703500F0A5F9034651
:109E0800002B05D0434B1B68434A03F04F031360F4
:109E180000F0C6F90346002B0DD04FF08043D3F86D
:109E2800003403F00103002B05D04FF080436FF09E
:109E38000102C3F8002400F0DFF90346002B05D027
:109E4800364B1B68354A43F480631360344BD3F8B0
:109E58008830334A43F47003C2F88830BFF34F8F19
:109E680000BFBFF36F8F00BF4FF01023D3F800324D
:109E7800002B05DB4FF01023D3F80432002B2BDA2C
:109E8800284B0122C3F8042500BF264BD3F8003421
:109E9800002BFAD04FF010231522C3F8002200BF80
:109EA800204BD3F80034002BFAD04FF010231522A2
:109EB800C3F8042200BF1B4BD3F80034002BFAD0A0
:109EC800184B0022C3F8042500BF164BD3F8003402
:109ED800002BFAD0FFF79CFEFFF7B0FE00BF08BDCD
:109EE800240300104035014074C007400DF0ADBA9E
:109EF800440200103C050040F0ED00E0A0050040E1
:109F0800105600408856004018560040145600402D
:109F180000C0004058020010E40E00403C1700400A
:109F280000ED00E000E00140124B1B68DBB2062B9D
:109F38001DD1114B1B6803F00F03002B17D10F4BDA
:109F48001B6803F0F003302B01D1012310E00B4B09
:109F58001B6803F0F003402B01D1012308E0074BF5
:109F68001B6803F0F003502B01D1012300E000230C
:109F780018467047E00F00F0E40F00F0E80F00F01B
:109F88000A4B1B68DBB2062B0DD1094B1B6803F08B
:109F98000F03002B07D1074B1B6803F0F003302B8E
:109FA80001D1012300E0002318467047E00F00F0BC
:109FB800E40F00F0E80F00F0124B1B68DBB2062B31
:109FC8001DD1114B1B6803F00F03002B17D10F4B4A
:109FD8001B6803F0F003302B01D1012310E00B4B79
:109FE8001B6803F0F003402B01D1012308E0074B65
:109FF8001B6803F0F003502B01D1012300E000237C
:10A0080018467047E00F00F0E40F00F0E80F00F08A
:10A018000A4B1B68DBB2062B0DD1094B1B6803F0FA
:10A028000F03002B07D1074B1B6803F0F003302BFD
:10A0380001D1012300E0002318467047E00F00F02B
:10A04800E40F00F0E80F00F0124B1B68DBB2062BA0
:10A058001DD1114B1B6803F00F03002B17D10F4BB9
:10A068001B6803F0F003302B01D1012310E00B4BE8
:10A078001B6803F0F003402B01D1012308E0074BD4
:10A088001B6803F0F003502B01D1012300E00023EB
:10A0980018467047E00F00F0E40F00F0E80F00F0FA
:10A0A8000A4B1B68DBB2062B0DD1094B1B6803F06A
:10A0B8000F03002B07D1074B1B6803F0F003302B6D
:10A0C80001D1012300E0002318467047E00F00F09B
:10A0D800E40F00F0E80F00F00A4B1B68DBB2062B18
:10A0E8000DD1094B1B6803F00F03002B07D1074B59
:10A0F8001B6803F0F003302B01D1012300E000239B
:10A1080018467047E00F00F0E40F00F0E80F00F089
:10A118000A4B1B68DBB2062B0DD1094B1B6803F0F9
:10A128000F03002B07D1074B1B6803F0F003502BDC
:10A1380001D1012300E0002318467047E00F00F02A
:10A14800E40F00F0E80F00F0124B1B68DBB2062B9F
:10A158001DD1114B1B6803F00F03002B17D10F4BB8
:10A168001B6803F0F003302B01D1012310E00B4BE7
:10A178001B6803F0F003402B01D1012308E0074BD3
:10A188001B6803F0F003502B01D1012300E00023EA
:10A1980018467047E00F00F0E40F00F0E80F00F0F9
:10A1A800124B1B68DBB2062B1DD1114B1B6803F049
:10A1B8000F03002B17D10F4B1B6803F0F003302B54
:10A1C80001D1012310E00B4B1B6803F0F003402B77
:10A1D80001D1012308E0074B1B6803F0F003502B63
:10A1E80001D1012300E0002318467047E00F00F07A
:10A1F800E40F00F0E80F00F0064B1B68062B05D1B2
:10A20800054B1B68062B01D1012300E000231846EB
:10A21800704700BF300100103401001000B583B052
:10A228000190019B1B682F2B04D90B4940F2CD10DC
:10A2380003F006F9019B1B681F2B02D84FF0A043BF
:10A2480006E0019B1B6803F01F02019B1A60034B89
:10A25800184603B05DF804FB5C32030000030050AD
:10A2680000B585B00190084611461A4603468DF898
:10A2780003300B468DF8023013468DF8013001ABE0
:10A288001846FFF7CBFF03909DF803209DF8023096
:10A298005B001A439DF801309B001A439DF8183063
:10A2A8001B0242EA03019DF81C301B04019A194362
:10A2B800039B02F5E07243F8221000BF05B05DF879
:10A2C80004FB00B585B0039000230193002300939D
:10A2D8000023012201210398FFF7C2FF00BF05B048
:10A2E8005DF804FB00B585B003900B468DF80B3084
:10A2F8009DF80B30002201920022009200220021DA
:10A308000398FFF7ADFF00BF05B05DF804FB00B58B
:10A3180085B0019001AB1846FFF780FF0390019BC1
:10A32800012202FA03F31946039800F02AF800BF45
:10A3380005B05DF804FB00B585B0019001AB184687
:10A34800FFF76CFF0390019B012202FA03F3194601
:10A35800039800F020F800BF05B05DF804FB00B5D5
:10A3680083B001900091009B002B03D10198FFF767
:10A37800E2FF02E00198FFF7CAFF00BF03B05DF8F3
:10A3880004FB82B001900091019B009AC3F8082554
:10A3980000BF02B0704782B001900091019B009A03
:10A3A800C3F80C2500BF02B07047000000B583B0A9
:10A3B8000190019B032B03D90749412003F040F882
:10A3C800064A019B13441B7800211846FFF7C7FF74
:10A3D80000BF03B05DF804FB8C320300DC320300DD
:10A3E80000B583B00190019B032B03D9074947208F
:10A3F80003F026F8064A019B13441B7801211846EE
:10A40800FFF7ADFF00BF03B05DF804FB8C3203001B
:10A41800DC32030000B583B00023019305E0019806
:10A42800FFF7DEFF019B01330193019B032BF6D954
:10A4380000BF00BF03B05DF804FB000000B583B0A7
:10A448000023019309E0094A019B13441B7818462D
:10A45800FFF737FF019B01330193019B032BF2D9CF
:10A46800FFF7D8FF00BF03B05DF804FBDC32030040
:10A4780000B583B0002301930AE0094A019B134405
:10A488001B7803211846FFF72DFF019B0133019329
:10A49800019B032BF1D900BF00BF03B05DF804FB9B
:10A4A800E032030000B583B00190019B03F0010383
:10A4B800002B01D0FFF7C2FF019B03F00203002B22
:10A4C80001D0FFF7D5FF00BF03B05DF804FB000023
:10A4D80082B003468DF807309DF8073003F01F025D
:10A4E80006499DF907305B09012000FA02F2203382
:10A4F80041F8232000BF02B0704700BF00E100E030
:10A5080008B507F0B1F8034683F00103DBB2002B6E
:10A5180003D10549792002F093FF00F043FB034B78
:10A5280000229A7000BF08BDEC320300A878002012
:10A5380000B583B000230193144B1B78002B02D085
:10A54800852301931CE0114B00229A600F4B0022D7
:10A558005A600E4B00221A610C4B0022DA600C483C
:10A5680000F0E6FA019007F07FF8034683F0010354
:10A57800DBB2002B01D000F001FB044B01221A7062
:10A58800019B184603B05DF804FB00BFA8780020C3
:10A5980071A6020084B00190019B1B680393039B82
:10A5A800002B03D0039B1A68019B1A60039B184673
:10A5B80004B0704700B583B0164B1B78002B04D14C
:10A5C80015494FF4857002F03BFF124BDB68002BF6
:10A5D80004D1114940F20B1002F032FF00238DF82C
:10A5E80007300DF107031846FDF7BEFB094BDB6882
:10A5F800013B084AD360074BDB68002B01D1FFF70A
:10A608007FFF9DF807301846FDF7C4FB00BF03B075
:10A618005DF804FBA8780020EC32030000B585B093
:10A6280003468DF807309DF80730002B02D10C4BFC
:10A63800039301E00B4B03930398FFF7ABFF0290E2
:10A64800029B002B06D0029B5B689DF807201046F2
:10A658009847F1E700BF00BF05B05DF804FB00BFF5
:10A66800B0780020B878002000B583B003468DF894
:10A6780007309DF80730002B05D10A4B01225A708C
:10A688000020FFF7CBFF9DF80730012B05D1054BC4
:10A6980001229A700120FFF7C1FF00BF03B05DF8E7
:10A6A80004FB00BFA878002000B583B0019000919A
:10A6B800019B002B05D1054B01225A700020FFF7A2
:10A6C800ADFF00BF03B05DF804FB00BFA878002011
:10A6D80000B585B0034600918DF807309DF8073026
:10A6E800032B29D0032B35DC002B02D0012B04D0FF
:10A6F80030E00020FFF7ECFE2DE000238DF80F304E
:10A708000DF10F031846FDF72FFB154B1B7883F04F
:10A718000103DBB2002B01D0FFF70AFF104BDB6807
:10A7280001330F4AD3600E4B01229A709DF80F3007
:10A738001846FDF72FFB0EE0094B1B78002B04D1C0
:10A74800084940F2452002F07BFE00F017FAFFF7B7
:10A7580031FF00E000BF00BF05B05DF804FB00BF9B
:10A76800A8780020EC32030000B589B00190009170
:10A77800009B0793019B1B788DF80C30019B5B684D
:10A788000493019B9B68DBB28DF81430019BDB6856
:10A798000693074A079B52F823300649079A51F84F
:10A7A800221003AA1046984700BF09B05DF804FBC1
:10A7B800BC780020C478002000B589B001900091D1
:10A7C800009B0793019B1B788DF80C30019B5B68FD
:10A7D8000493019B9B68DBB28DF81430019BDB6806
:10A7E8000693074A079B52F823300649079A51F8FF
:10A7F800221003AA1046984700BF09B05DF804FB71
:10A80800BC780020C478002030B58FB00390029146
:10A818000192039B1B780C932C490C9B019A41F8DD
:10A828002320029B1A692A490C9B41F823200C9B80
:10A83800012B07D1029B5B7F002B03D12549762092
:10A8480002F0FEFD029B5B7F1946234A0C9B1344D2
:10A858000A461A70029B04AC1D460FCD0FC495E83A
:10A868000F0084E80F000C9B089300230D93039BB3
:10A878001B781A46184B9B5C002B0DD0039B181DA8
:10A88800019B002B01D0154A00E0002204AB1946B9
:10A8980002F072F90D9014E0039B1B781A460E4BD8
:10A8A8009B5C002B0DD1039B03F10C00019B002B3B
:10A8B80001D00B4A00E0002204AB194601F0D2FA9D
:10A8C8000D900D9B18460FB030BD00BFBC7800201E
:10A8D800C478002048330300CC78002071A7020018
:10A8E800C1A7020082B003468DF807309DF80730F3
:10A8F80003F01F0205499DF907305B09012000FAA2
:10A9080002F241F8232000BF02B0704700E100E0E6
:10A9180082B0034600918DF807309DF90730002B6F
:10A928000CDA009BDAB20C499DF8073003F00F03EC
:10A93800043B5201D2B20B441A7609E0009BDAB20A
:10A9480006499DF907305201D2B20B4483F800231F
:10A9580000BF02B0704700BF00ED00E000E100E07A
:10A9680082B00190019B1B0B5BB2184602B0704786
:10A9780000B583B003460A468DF8073013468DF8B4
:10A9880006309DF80630012B03D99DF80630032BBD
:10A998000BD99DF80630042B03D99DF80630072BF8
:10A9A80003D908496B2002F04BFD9DF806209DF95C
:10A9B800073011461846FFF7ABFF00BF03B05DF83C
:10A9C80004FB00BFA433030000B583B003468DF831
:10A9D80007309DF907301846FFF784FF00BF03B022
:10A9E8005DF804FB82B003468DF807300F4A9DF9E5
:10A9F8000730002B00DA1F335B115BB252F82320BB
:10AA08009DF90730594203F01F0301F01F0158BF99
:10AA18004B425BB222FA03F303F00103002B14BF8D
:10AA280001230023DBB2184602B0704700E100E0C2
:10AA380082B001904FF08042019BC2F8083300BFFA
:10AA480002B0704782B003468DF807309DF8073092
:10AA580003F1804301221A6000BF02B0704784B03E
:10AA68000346ADF80630BDF8063003F180430022F6
:10AA78001A60BDF8063003F180431B680393039BFB
:10AA880000BF04B0704782B00346ADF80630BDF889
:10AA9800063003F180431B68002B14BF01230023F9
:10AAA800DBB2184602B0704782B001904FF0804286
:10AAB800019BC2F8183500BF02B070474FF08043C1
:10AAC800D3F818341B0C03F00103002B14BF012327
:10AAD8000023DBB21846704700B583B006238DF813
:10AAE80007304FF08040FFF73BFF03461846FFF75B
:10AAF80079FF034683F00103DBB2002B13D04FF03C
:10AB08008040FFF72DFF03461A469DF80730194687
:10AB18001046FFF72DFF4FF08040FFF721FF034657
:10AB28001846FFF751FF00BF03B05DF804FB0000B3
:10AB380000B585B00190019B002B03D10D49A420DD
:10AB480002F07EFC002303930B4B1B79002B02D0F1
:10AB58008523039308E0084A019B1360064B0122F2
:10AB68001A71054B00225A71039B184605B05DF80F
:10AB780004FB00BFDC330300D078002008B5074B86
:10AB88001B79002B03D10649BD2002F059FCFFF7C1
:10AB9800A3FF0120FFF788FF00BF08BDD078002081
:10ABA800DC33030008B50A4B1B79002B03D1094994
:10ABB800F72002F045FC0C20FFF744FF00BFFFF729
:10ABC8007DFF0346002BFAD100BF00BF08BD00BFC0
:10ABD800D0780020DC33030008B54FF48070FFF70D
:10ABE80052FF0346002B14D04FF48070FFF737FF55
:10ABF8000120FFF71DFF114B5B7983F00103DBB2E6
:10AC0800002B06D00D4B01225A710C4B1B680020FB
:10AC180098474FF48270FFF736FF0346002B0AD09F
:10AC28004FF48270FFF71BFF0220FFF701FF034B71
:10AC38001B680120984700BF08BD00BFD0780020DE
:10AC480082B003468DF807309DF8073003F01F02E5
:10AC580005499DF907305B09012000FA02F241F825
:10AC6800232000BF02B0704700E100E082B0034635
:10AC780000918DF807309DF90730002B0CDA009B06
:10AC8800DAB20C499DF8073003F00F03043B520178
:10AC9800D2B20B441A7609E0009BDAB206499DF954
:10ACA80007305201D2B20B4483F8002300BF02B030
:10ACB800704700BF00ED00E000E100E000B583B0A0
:10ACC80003460A468DF8073013468DF806309DF87E
:10ACD8000630012B03D99DF80630032B0BD99DF8BC
:10ACE8000630042B03D99DF80630072B03D90849F1
:10ACF8006B2002F0A5FB9DF806209DF90730114650
:10AD08001846FFF7B3FF00BF03B05DF804FB00BFB0
:10AD18003834030000B583B003468DF807309DF939
:10AD280007301846FFF78CFF00BF03B05DF804FB3F
:10AD380000B583B00346ADF80630BDF806301846B6
:10AD480000F026F803461B68012B0CBF01230023E3
:10AD5800DBB2184603B05DF804FB00B585B00346C6
:10AD6800ADF80630BDF80630184600F011F8034675
:10AD78001A4600231360BDF80630184600F008F89C
:10AD880003461B680393039B00BF05B05DF804FBF3
:10AD980082B00346ADF80630BDF8063003F18043B3
:10ADA80003F5C043184602B07047000082B0019016
:10ADB800034A019BC2F8043300BF02B0704700BFCA
:10ADC8000060004082B00190034A019BC2F808333A
:10ADD80000BF02B0704700BF0060004082B0019021
:10ADE800034BD3F80423019B1340184602B0704765
:10ADF8000060004082B00190084A019B03F5A273ED
:10AE080052F82330054923F00102019B03F5A27390
:10AE180041F8232000BF02B0704700BF0060004027
:10AE280084B00390029113468DF80730144A039BAF
:10AE380003F5A27352F82330114923F44F3323F456
:10AE48004073039A02F5A27241F822300C4A039B20
:10AE580003F5A27352F82320029B1B0203F47C51D2
:10AE68009DF807301B0403F440330B4304491A438D
:10AE7800039B03F5A27341F8232000BF04B0704779
:10AE88000060004082B00190054A019B03F5A2735F
:10AE980052F823301B0A03F03F03184602B07047EC
:10AEA8000060004082B00190064A019B03F5A2733E
:10AEB80052F823301B0C03F00303DBB2184602B030
:10AEC800704700BF0060004000B583B00190019B4F
:10AED8001B682F2B04D90B4940F2CD1002F0B0FAB1
:10AEE800019B1B681F2B02D84FF0A04306E0019B73
:10AEF8001B6803F01F02019B1A60034B184603B03E
:10AF08005DF804FB683403000003005000B585B009
:10AF18000190084611461A4603468DF803300B4641
:10AF28008DF8023013468DF8013001AB1846FFF753
:10AF3800CBFF03909DF803209DF802305B001A4375
:10AF48009DF801309B001A439DF818301B0242EA15
:10AF580003019DF81C301B04019A1943039B02F559
:10AF6800E07243F8221000BF05B05DF804FB00B59D
:10AF780085B003900B468DF80B309DF80B300022FE
:10AF8800019200220092002200210398FFF7BEFFE1
:10AF980000BF05B05DF804FB00B585B0019001ABBA
:10AFA8001846FFF791FF0390019A039B02F5E072A0
:10AFB80053F8223023F002030293019A039B02F50F
:10AFC800E072029943F8221000BF05B05DF804FB57
:10AFD80000B585B001900B468DF8033001AB1846DB
:10AFE800FFF772FF0390019A039B02F5E07253F892
:10AFF8002230019A23F44031039B02F5E07243F8B2
:10B008002210019A039B02F5E07253F822309DF852
:10B01800032012041146019A1943039B02F5E072BA
:10B0280043F8221000BF05B05DF804FB00B585B0F9
:10B03800019001AB1846FFF747FF0390039800F013
:10B0480020F80246019B22FA03F303F00103184695
:10B0580005B05DF804FB00B585B0019001AB18465A
:10B06800FFF732FF0390019A039B02F5E07253F851
:10B0780022301B0C03F00303DBB2184605B05DF861
:10B0880004FB82B00190019BD3F81035184602B03A
:10B098007047000000B589B0039002910192184AE8
:10B0A80005AB92E8030083E80300039A029B13446C
:10B0B800022B04D9134940F2FD2002F0C1F9039B89
:10B0C800079311E0079B9B0008AA134453F80C3C14
:10B0D8001846FFF7D6FF0246019B1A60019B04330E
:10B0E8000193079B01330793039A029B1344079A22
:10B0F8009A42E7D300BF00BF09B05DF804FB00BF68
:10B10800983403006834030084B001900091009BD8
:10B118000393019BDB080293019B03F00703019350
:10B128000122019B02FA03F30399029A0A44127856
:10B138001340184604B0704784B001900091009BFA
:10B148000393019BDB080293019B03F00703019320
:10B15800039A029B13441B785AB20121019B01FAFE
:10B1680003F35BB2134359B2039A029B1344CAB266
:10B178001A7000BF04B0704782B001900C4A019B5E
:10B188001344303393F90030002B09DB084A019B44
:10B198001344303393F90030072B01DC012300E01E
:10B1A800002303F00103DBB2184602B0704700BF6A
:10B1B800D878002082B00190064A019B13443033AE
:10B1C80093F90030072BCCBF01230023DBB21846CC
:10B1D80002B07047D878002082B00190064A019BDF
:10B1E8001344303393F90030DB43DBB2DB09DBB2C5
:10B1F800184602B0704700BFD878002084B003908A
:10B20800029101928DF80330029B59B20E4A039BBA
:10B21800134430330A461A700B49029B019A41F8CD
:10B2280023209DF8033083F00103DBB2002B08D004
:10B23800029B083B039A51B2034A13440A4683F817
:10B24800602000BF04B07047D878002082B0019019
:10B25800044A019B13443033FF221A7000BF02B026
:10B26800704700BFD878002000B583B0019004492A
:10B278000198FFF761FF00BF03B05DF804FB00BF52
:10B288003C79002082B00190044A019B134430337A
:10B2980093F90030184602B0704700BFD8780020F4
:10B2A80082B00190034A019B52F82330184602B03D
:10B2B800704700BFD878002000B589B0039002918C
:10B2C80013468DF80730FF238DF81F309DF807309F
:10B2D800002B01D0002300E0082305939DF80730D8
:10B2E800002B01D0082300E00C230493059B069350
:10B2F80014E00F4A069B52F82330B3F1FF3F0AD1FE
:10B308009DF80730029A06990398FFF777FF069B86
:10B318008DF81F3006E0069B01330693069A049BBE
:10B328009A42E6D39DF91F30184609B05DF804FB30
:10B33800D878002082B003468DF807309DF8073092
:10B34800094A4FF0FF3142F823109DF80730072BC8
:10B3580007D99DF80730083B034A1344FF2283F8B6
:10B36800602000BF02B07047D878002000B583B0D5
:10B37800254B93F86A30002B03D008230193019BD7
:10B388003EE000238DF8033009E09DF803301846AD
:10B39800FFF75CFF9DF8033001338DF803309DF80B
:10B3A80003302F2BF1D900238DF8033009E09DF8E5
:10B3B80003301846FFF7BEFF9DF8033001338DF8C0
:10B3C80003309DF803300B2BF1D9062200210F48DA
:10B3D80006F080FC06210620FFF770FC0620FFF728
:10B3E80099FC4FF4BE70FFF7B8FC4FF00040FFF730
:10B3F800DDFC054B012283F86A2000230193019BA1
:10B40800184603B05DF804FBD87800203C7900208A
:10B41800044B93F86A30002B14BF01230023DBB2DE
:10B4280018467047D878002000B587B0039002917D
:10B438000192039B2F2B04D9364940F2072001F0D3
:10B44800FFFF002305930398FFF7C6FE0346002B72
:10B4580002D00823059357E0029B9B78C3F340036F
:10B46800DBB21A4601990398FFF726FF03468DF8C9
:10B4780013309DF91330B3F1FF3F43D0029B9B7803
:10B48800C3F38003DBB283F00103DBB2002B13D0DC
:10B49800029B9B7803F00103DBB2002B03D00398D7
:10B4A800FFF77AFD05E0029B5B7819460398FFF7E2
:10B4B8005EFD0398FFF7D8FE029B9B7803F002031A
:10B4C800DBB2002B08D09DF91300029B1B781A46AB
:10B4D8000399FFF7A5FC17E09DF91330083B0E4AC6
:10B4E800134493F96010029B1B789B015AB29DF993
:10B4F8001330083B0A4351B2074A13440A4683F8FB
:10B50800602001E004230593059B184607B05DF809
:10B5180004FB00BFA8340300D878002000B585B02C
:10B528000190019B2F2B04D91A494FF4197001F08F
:10B5380087FF0198FFF750FE0346002B04D11549F9
:10B5480040F2652001F07CFF0198FFF733FE0346C7
:10B55800002B04D000210198FFF73AFD15E001986F
:10B56800FFF70AFE0346002B0FD00198FFF78AFE6B
:10B5780003460393039B1846FFF73CFC0122039BF9
:10B5880002FA03F31846FFF71DFC00BF05B05DF88B
:10B5980004FB00BFA834030000B583B00190019BF1
:10B5A8002F2B04D908494FF4227001F049FF019864
:10B5B800FFF73CFD0346002B14BF01230023DBB239
:10B5C800184603B05DF804FBA834030000B599B031
:10B5D8000023149306AB00221A605A604FF480735C
:10B5E800ADF84A30012316930023139321E0BDF8E8
:10B5F8004A301846FFF79CFB0346002B0ED01698DE
:10B60800FFF7ECFB0346002B08D0BDF84A3018467C
:10B61800FFF7A3FB149A169B13431493169B5B0026
:10B628001693BDF84A300433ADF84A30139B013302
:10B638001393139B072BDAD94FF4BE70FFF778FBEF
:10B648000346002B0DD04FF4BE70FFF786FB149B0A
:10B6580043F00043149306AB1A4602210020FFF77B
:10B6680019FD149BDBB2002B29D00123169300236C
:10B67800139321E0169A149B1340002B16D01398AD
:10B68800FFF700FC11901398FFF70CFC03468DF8A8
:10B6980043301398FFF704FE0F900F9B002B05D043
:10B6A8009DF843200F9B114611989847169B5B0005
:10B6B8001693139B01331393139B072BDAD9149B0F
:10B6C800002B80F2F08000238DF85F3004AB00225D
:10B6D8001A605A60002315930AE0159B9B0018AA6C
:10B6E80013444FF0FF3243F8582C159B0133159340
:10B6F800159B012BF1D900238DF85F30002313939C
:10B7080078E06B4A139B1344603393F900308DF84B
:10B718003B309DF83B3023F0C0030D93644A139BE4
:10B728001344603393F90030B3F1FF3F5FD002ABAD
:10B7380019460D98FFF7E8FC0346002B57D09DF8F3
:10B748003B309B098DF833300D98FFF79BFD03467E
:10B758001846FFF7A5FD0B900B9B002B03D19DF816
:10B768003330032B43D19DF83330032B04D104AB82
:10B7780019460D98FFF7E0FC0D98FFF76CFC03469F
:10B788008DF82B3006AB19460D98FFF7BDFC0990D4
:10B79800099B002B03D09DF82B30022B06D0099B68
:10B7A800002B24D19DF82B30032B20D19DF833306A
:10B7B800032B13D19DF82B30022B01D1032300E07A
:10B7C80002238DF823309DF8233019460D98FFF792
:10B7D800FFFB9DF85F3001338DF85F300B9B002B2A
:10B7E80005D09DF833200B9B11460D989847139B65
:10B7F80001331393139B032B83D99DF85F30002BE0
:10B808004CD001238DF85E306B461A460221002089
:10B81800FFF740FC0023159314E0159B9B0018AA22
:10B82800134453F8602C159B9B0018A90B4453F83C
:10B83800483C9A4203D000238DF85E3005E0159B02
:10B8480001331593159B012BE7D99DF85E30002B2A
:10B8580003D000238DF85F3020E0002315931AE011
:10B86800159B9B0018AA134453F8602C159B9B004A
:10B8780018A90B4443F8482C159B9B0018AA13449D
:10B8880053F8502C159B9B0018A90B4443F8582CCF
:10B89800159B01331593159B012BE1D99DF85F305A
:10B8A800002B7FF428AF00BF19B05DF804FB00BF80
:10B8B800D878002008B5064B1B68002B03D1054932
:10B8C800512001F0BDFD024B1B68984700BF08BD21
:10B8D800447900200835030082B00190019B044A96
:10B8E800934201D1034B00E00023184602B0704791
:10B8F800002000404479002000B587B001900091F5
:10B90800019B002B03D11C49772001F099FD019878
:10B91800FFF7E2FF0590059B002B25D000238DF84B
:10B92800133000238DF80B300DF10B031846FCF78C
:10B938001BFA059B1B79002B03D001238DF81330CC
:10B9480005E0059B009A1A60059B01221A719DF873
:10B958000B301846FCF71EFA9DF81330002B03D065
:10B9680011230393039B02E000230393039B1846D0
:10B9780007B05DF804FB00BF0835030082B003463A
:10B988008DF807309DF8073003F01F0205499DF92F
:10B9980007305B09012000FA02F241F8232000BFBA
:10B9A80002B0704700E100E082B0034600918DF8D4
:10B9B80007309DF90730002B0CDA009BDAB20C49EE
:10B9C8009DF8073003F00F03043B5201D2B20B4439
:10B9D8001A7609E0009BDAB206499DF90730520150
:10B9E800D2B20B4483F8002300BF02B0704700BFF7
:10B9F80000ED00E000E100E082B00190019B1B0B2C
:10BA08005BB2184602B0704700B583B003460A46D9
:10BA18008DF8073013468DF806309DF80630012B57
:10BA280003D99DF80630032B0BD99DF80630042B5B
:10BA380003D99DF80630072B03D908496B2001F07C
:10BA4800FFFC9DF806209DF9073011461846FFF7C0
:10BA5800ABFF00BF03B05DF804FB00BF6435030013
:10BA680000B583B003468DF807309DF907301846B6
:10BA7800FFF784FF00BF03B05DF804FB84B00190BA
:10BA88000B46ADF80230BDF80230019A134400228B
:10BA98001A60BDF80230019A13441B680393039B94
:10BAA80000BF04B0704782B001900B46ADF8023079
:10BAB800BDF80230019A13441B68002B14BF012300
:10BAC8000023DBB2184602B0704782B001900091A3
