:020000022000DC
:10600000000001205D630200456302004763020057
:10601000496302004B6302004D6302000000000070
:106020000000000000000000000000004F630200BC
:106030005163020000000000536302005563020038
:106040005981020057630200C185020057630200B4
:106050005763020057630200158402005763020071
:106060005763020057630200576302005763020040
:106070005763020057630200576302005763020030
:106080005763020055720200576302005763020013
:106090005763020057630200C9AF02005763020052
:1060A0005763020057630200576302005763020000
:1060B0005763020057630200000000000000000068
:1060C00057630200576302005763020057630200E0
:1060D000576302005763020057630200000000008C
:1060E00000000000000000000000000000000000B0
:1060F00000000000000000000000000000000000A0
:10610000000000000000000000000000000000008F
:10611000000000000000000000000000000000007F
:10612000000000000000000000000000000000006F
:10613000000000000000000000000000000000005F
:10614000000000000000000000000000000000004F
:10615000000000000000000000000000000000003F
:10616000000000000000000000000000000000002F
:10617000000000000000000000000000000000001F
:10618000000000000000000000000000000000000F
:1061900000000000000000000000000000000000FF
:1061A00000000000000000000000000000000000EF
:1061B00000000000000000000000000000000000DF
:1061C00000000000000000000000000000000000CF
:1061D00000000000000000000000000000000000BF
:1061E00000000000000000000000000000000000AF
:1061F000000000000000000000000000000000009F
:10620000314932480A1A02D0072291438D4630495B
:1062100030480A1A06D00722914381F309880222E6
:1062200082F314882C482D492D4A00F03CF82D4863
:106230002D492E4A00F037F82D482E492E4A00F0FD
:1062400032F82E482E492F4A00F02DF82E482F49BB
:106250002F4A00F028F82F482F49304A00F023F841
:106260002F483049304A00F01EF8304830490022AB
:1062700000F024F82F483049002200F01FF82F4A80
:1062800090471F481F49884205D00268043003B474
:10629000904703BCF7E700208646EC46002000212B
:1062A000274A9047FEE7884207D0521A05D0037864
:1062B00001300B700131013AF9D17047884202D0A8
:1062C00002700130FAE770470000012000E0002072
:1062D00000000120000001208CC40200984300202F
:1062E00068720020B8630200B863020060B4020064
:1062F0008CC4020098430020984300204CB6020052
:106300004CB602004CB602004CB602004CB602007D
:106310004CB602004CB602004CB602008CC402001F
:106320005CF302006872002068720020687200202E
:1063300040860020408600204086002085630200C1
:1063400091960200FEE7FEE7FEE7FEE7FEE7FEE7C6
:10635000FEE7FEE7FEE7FEE700F002B8FFF7FCBF4E
:106360000F484FF00701884385460E4880470E4886
:10637000016841F470010160BFF34F8FBFF36F8F6D
:10638000FFF73EBF09480A490A4A884207D0521A15
:1063900005D0037801300B700131013AF9D1704713
:1063A00000000120017C020088ED00E04CB60200F4
:0863B0009843002098430020EF
:1063B800037813F0040216D003F00303012B03D073
:1063C800022B09D0012070470A6800880232C0F306
:1063D800831002440A60F5E70B684288023303EB36
:1063E80092130B60EEE71046704700002DE9F04F5E
:1063F80087B000230446861C0DF107000F4615469A
:106408008DF8073000F0B2FD454801683960D0E9E1
:106418000132134401335B1A824600F21C4700F52F
:10642800836900F21448B3421CD30020002D73D0B6
:1064380004F00F039B0143F0050363F30F00DAF840
:106448000020DAF808301340033316444AF82300D2
:106458009DF80700CAF8006000F0ACFD012007B005
:10646800BDE8F08F0121384600F0CDFF484600F026
:10647800E2FF404600F0DFFFDAF80400DAF808B07F
:10648800029000EA0B0003300AEB800002A9FFF734
:106498008FFF029B50BB0BEA03020AEB820203F157
:1064A800020CD2680392013303EA0B0B0AEB8B0B45
:1064B80002F00302012ADBF80C10CDF808C023D043
:1064C800022A16D08346404600F0B8FF10B1029B5E
:1064D800CAF804305946384600F095FFDAE9012336
:1064E8001344DAF8002001339B1A9CE70BEA0300F7
:1064F800C9E7BDF80E30C3F3891303334FEA114BD4
:106508000CEB93030293DEE7BDF80C30C3F383135F
:106518004FEA114B6344F5E7A40544F006008EE703
:1065280038730020034BD3E90030C31A584258414E
:10653800704700BF387300202DE9F04387B0FFF79C
:10654800F1FF0646002840F0F9807D4DC5F8180493
:10655800BFF34F8F6B68AC6802932340033305EB9E
:10656800830002A9FFF724FF029B18B1D5F818246D
:10657800002A5FD004EA0302991C013305EB82026A
:10658800234005EB8303D268DB68049302F003031E
:10659800022B0392029160D1BDF80E306948C3F313
:1065A8008917502FB84628BF4FF0500868F38F134B
:1065B80008F10801ADF80E3000F0F3FF0646002898
:1065C80000F0A78001F01CF80023082203A9304638
:1065D80001F029F8029924EA01020132B8EB820F8E
:1065E8004FEA820332D95FFA88F85BB32140DCB204
:1065F800A8EB040803315FFA88F9A046524C05EB72
:10660800810108234246304601F00DF834B108F103
:1066180008034A462146304601F005F8029B033735
:1066280003EB97070297D5F81834002B49D1D5F812
:10663800104459E02A689A428FD86A60304607B0F9
:10664800BDE8F08340491C469946DAE70C40E11C56
:106658000823424605EB8101DDE7012B59D1BDF83E
:106668000C303848C3F38311062928BF062161F38B
:10667800891302318900ADF80C3000F092FF06460C
:10668800002846D000F0BCFF0023082203A93046AA
:1066980000F0C9FF0027BDF80C20C2F38312BB002D
:1066A800974203F10803BED202994A1C21400331E4
:1066B800029205EB81010422304600F0B4FF013755
:1066C800E9E7304600F0A0FFFFF72CFF80F001005B
:1066D800C6B2B3E7E3685B7923B1236831461B6828
:1066E80020469847E3681C68002CF3D1304600F038
:1066F8008BFF0DF107008DF8074000F037FCD5F847
:1067080018340BB9029B6B609DF8070000F052FC2F
:10671800DAE7D5F8104454B90C4B0D480D49C01AA6
:10672800C008000440F0020000F062F8CCE72368DB
:1067380020469B689847E3681C68ECE700267DE7DD
:1067480038730020F8B502004473002058B50200E1
:1067580080B502004CB602002DE9F74F224D0446E1
:106768000F46924601A901221846D5F808909B4683
:10677800FFF73CFE20B3019E4FF00008B21CD8453D
:1067880008EB020126D11948002100F00DFE80F324
:106798001000000440EA1440E400731C04F03804BC
:1067A80003EA090306EA090644F0010405EB83033A
:1067B800033644EA881444EA8724D86045F826401A
:1067C80095F820341BB1FFF7B7FE0028FBD103B0C2
:1067D800BDE8F08F09EA010105EB81015AF828307C
:1067E800CB6008F10108CAE738730020547700200D
:1067F80000231A46FFF7B0BF07B50123019201AA8B
:10680800FFF7AAFF03B05DF804FB07B5CDE9002345
:1068180002236A46FFF7A0FF03B05DF804FB1FB52B
:10682800CDE90123069B039301AA0323FFF794FFF5
:1068380005B05DF804FB7FB5CDE90023089B029302
:10684800099B03930A9B04930B9B05936A460623B3
:10685800FFF782FF07B05DF804FB0000094A38B56E
:106868000123D2F8104482F820341D4604B938BDFB
:10687800E3685D71236820465B689847E3681C6895
:10688800F4E700BF38730020C30710B507D4F0231E
:10689800054A4008145C23401943115410BD0901EE
:1068A800C9B20F23F4E700BF9077002030B5094B39
:1068B8001C78094B196800239C4202DC0022104610
:1068C80030BD11F83350854201EBC302F7D00133D4
:1068D800F2E700BF5C770020B077002013B50446CC
:1068E8000191FFF7E3FF38B143682BB101992046C6
:1068F80002B0BDE81040184702B010BD034B044871
:1069080019680022490800F040BA00BF60770020EB
:106918006877002010B5C0B2FFF7C8FF04460078BA
:1069280001F066FD63785A1E53425341834208D1F1
:10693800044BD3E90023134303D1BDE81040FFF70C
:10694800DDBF10BD8877002037B54308354AD35CD2
:10695800C2074CBF1B0903F00F0304460D46042B66
:1069680035D8DFE803F003252C383C0079B3012142
:10697800FFF78AFF00230DF107008DF8073000F0BC
:10698800F5FA0120A4F12003C4F12001264A20FAD7
:1069980001F100FA03F30B43A040D2E90041204380
:1069A8000B43C2E900039DF8070000F003FB0EE06B
:1069B800002918BF02212046FFF766FF07E041B112
:1069C8000321FFF761FF01212046FFF787FF03B08E
:1069D80030BD0121EFE70029F9D10421EBE709B126
:1069E8000321E8E7FFF750FF29462046FFF776FF27
:1069F8000DF107008DF8075000F0B8FA0120A4F156
:106A08002003C4F12001084A20FA01F100FA03F337
:106A18000B43A040D2E9004124EA000021EA030325
:106A2800BFE700BF90770020887700202DE9F0416C
:106A3800124E134F00243378A34208DC114BD3E9DC
:106A48000023134318D0BDE8F041FFF757BF3D6856
:106A580005EBC40815F8340001F0CAFC98F80130B9
:106A68005A1E53425341181A4142414115F8340005
:106A7800FFF76AFF0134DEE7BDE8F0815C770020AC
:106A8800B077002088770020092AF7B505460C461C
:106A980016463CD901F004FCD8B11E4B1E481D60B7
:106AA8001E4B1F4F1C701F4B002120221E6004F03C
:106AB80049FC1D4B00200021C3E90001013CE4B260
:106AC8000326FF2C0BD1194A1948002100F052F96E
:106AD80003E001F0ADFB0028DFD003B0F0BD9DF866
:106AE800063015F834008DF8046005EBC40223F075
:106AF80007038DF8063001A993788DF805303A46DA
:106B080001F0D8FB013CE4B20028DAD0E5E7072021
:106B1800E3E700BFB0770020907700205C77002083
:106B28001D6902006077002088770020356A02001E
:106B38006CB6020073B5114D114E00242B789C429F
:106B480014D300230DF107008DF8073000F00EFA7A
:106B58000C4B00210020C3E900019DF8070000F05C
:106B680029FA094800F029F902B070BD336813F812
:106B7800340001F01BFC0134E0E700BF5C77002023
:106B8800B077002088770020687700201FB50021A3
:106B9800039001AA44F20100CDE9011100F004F8C4
:106BA80005B05DF804FB000010B572B6FFF756FE9D
:106BB800FFF7C2FC0028FBD1104B114C1149E41A15
:106BC800E408240444F00100FFF712FE0E4B1B6892
:106BD800DB0700D500BE0D4944F00200FFF708FEB0
:106BE800BFF34F8F0A490B4BCA6802F4E0621343A4
:106BF800CB60BFF34F8F00BFFDE700BF58B5020061
:106C080080B5020070B60200F0ED00E07CB602002C
:106C180000ED00E00400FA05D0E90223D1E9020101
:106C2800994208BF90422CBF012000207047000005
:106C380008B50B4800F0F5FA0A4B0B49D3E90023D5
:106C48001218D1E9000143F100038B4208BF8242C8
:106C580003D212F1807243F100031046194608BDB1
:106C680098430020B87700203078002037B50546D3
:106C78000C460A4801A900F006FB60B105704460A3
:106C880001A9064800F029FB18B1054800F0CEFA22
:106C9800002003B030BD0420FBE700BF1C780020B3
:106CA8009843002038B5184B1B78044613B90025C3
:106CB800284638BD0028FAD0037F03F0FF05002BD3
:106CC800F5D0FFF7B5FFD4E90223994208BF9042F7
:106CD80014D3236903B92377D4E905309847216988
:106CE8000029E4D0237F03F0FF05002BDFD0D4E98F
:106CF8000223521843F10003C4E902230348214642
:106D080000F0B4FDD4E700BFC077002098B60200B9
:106D180013B5114B114918680190082310485822DF
:106D280000F09EFA044698B90E4A0F4801A900F0EF
:106D380065F9044660B90C48012100F055FA0123B1
:106D48000A4A0948194600F0B7F9094B01221A7096
:106D5800204602B010BD00BF94B60200C4770020E0
:106D68001C780020DD6D020098430020FFFF7F00A3
:106D7800C07700203AB103685A614A1E5142514116
:106D88001961002070470720704738B5037F044613
:106D98000D4683B98261FFF74BFF2369401941F122
:106DA8000001C4E9020103B1256121460020BDE8C4
:106DB8003840FFF75BBF002038BD0023014603774A
:106DC8000120FFF753BF0000014800F02ABA00BFB6
:106DD800984300202DE9F04F85B0804600F00CFA6A
:106DE80040B15A4AD2E9003113F1807341F10001F0
:106DF800C2E900310021404600F00DFA38B1544E86
:106E0800336823B13068FFF74DFF00233360012159
:106E1800404600F000FA20B1FFF70AFF4D4BC3E9E6
:106E280000014D484A4F4D4EDFF8389103A900F054
:106E380064FA002845D1DFF82491454EDFF828A1EF
:106E4800484600F029FD3368002875D07BB13368C7
:106E5800D0E90201D3E90223994208BF90422DD21A
:106E680033681B7F1BB13168484600F0FFFC484679
:106E780000F00CFDD0E902B307460193FFF7D8FEF6
:106E8800019BBBEB000463EB0105012C75F10003CA
:106E980045DBB4F5350F40D3FFF796FF304A02447F
:106EA8004FF496030021504600F026F900283ED101
:106EB800336813B9404600F0F7F8376005B0BDE80D
:106EC800F08F0378012B1DD0022B09D14FF0000A57
:106ED800304600F0DBFC002834D080F81CA0F7E72F
:106EE8003BB941680B7F23B901230B77304600F08B
:106EF800BDFC03A9184800F02BFA03A9164800F0B6
:106F0800FCF996E741683B68994202D100233B604F
:106F1800EFE7304600F0C3FCEBE7BA68C0E70021B2
:106F2800504600F06EF93846FFF7BCFE01E00D2828
:106F3800F9D00023336083E7002BBFD1404600F02F
:106F4800B7F8BBE7012389F80030D2E7B87700200B
:106F580038780020307800201C78002098B602008D
:106F6800FFFFB400C07700209843002070B5EFF30E
:106F7800108672B60C4A946801239CB993600B4B37
:106F88000B4DD3F8801029401160C3F88050D3F816
:106F9800841051604FF0FF32C3F88420047006B9A2
:106FA80062B670BD0370FAE73C78002000E100E0AB
:106FB800FC06FFBD084B9A6810B55AB150B9EFF3FB
:106FC800108172B6054A1C6814605C685460986049
:106FD80001B962B610BD00BF3C78002000E100E0B6
:106FE800435882B03BB10023435043580193019B5F
:106FF800012002B070471846FBE70000F8B5224BA5
:107008004679224C43F82620214A224B9B1A04EB4E
:10701800C602DB0812791B04F70032B143F0020004
:107028001D49FFF7E5FB0820F8BD02680D88C2F886
:10703800085590F9045002798978002DADBF05F103
:10704800604CDFF85CC002F00F0E0CF5614C4FEAA3
:107058004111C9B2B4BF0CF80E108CF800136D09B9
:107068000121DFF840C002F01F0201FA02F24CF8D9
:107078002520E21944F83600117143F0030007494E
:10708800FFF7B6FB0020CFE75078002048780020B3
:1070980058B5020090B50200A4B60200C6B60200B8
:1070A80014ED00E000E100E0036801221A60704777
:1070B800036801225A60704773B501F15005AD00AD
:1070C8000068ADB24FF480348C400026C0F8084305
:1070D800C0F84843465101F5A8714559019522F079
:1070E8007F42019D40F82120C0F844430BB1C0F80D
:1070F800044302B070BD00002DE9F74F0D4622F0A1
:107108007F4402684FF4803705F150068F4080466F
:10711800B60002EB8500C2F84873B6B2C2F808732D
:10712800D2F8041599464FF0000BD0F84035C0F856
:10713800401542F806B05B1A9259009223F07F433B
:10714800012B009A4FEA850A0CD1264B4FF4806038
:1071580043F001039847D8F8003043F806B09B592C
:107168000193019BD8F80010D1F80465C1F8447365
:10717800A31B23F07F43012B1CD11A4B05F5A875DF
:10718800013443F0010341F825404FF480609847EB
:10719800D8F80030D3F804359E4209D1D8F8003029
:1071A8000020C3F84473C3F8047303B0BDE8F08F3C
:1071B8000D20FAE78A44C9F1FF13CAF84045D1F80F
:1071C8000405221A013A22F07F4203F57F439342D5
:1071D800EED3002AE2D10134CAF84045D1F804358B
:1071E8009842DAE7E0B6020003680222C3F84423B3
:1071F80009B1C3F80423704700684FF48271FFF7A0
:10720800EFBE4FF4803303FA01F10368C3F8481363
:10721800C3F80813704750318900006889B2FFF736
:10722800DFBE0368D3F804057047000090F9043006
:1072380001215A0903F01F0301FA03F340320249FE
:1072480041F82230704700BF00E100E0024B034ADA
:107258001B681068184700BF507800204878002045
:1072680010B561B1B2FBF3F403FB1424A4B244B922
:10727800C0E9001484608281C381204610BD0E20BD
:10728800FCE70920FAE737B550E8013F9DB2C48909
:1072980025448489A54228BF2D1B0489A54202BF25
:1072A800BFF32F8F002207E0C5EA030540E8015429
:1072B800002CE9D14FF001028DF803200193019BC6
:1072C8009DF803200B6002F0FF0322B10B880068D1
:1072D800184403B030BD1846FBE70A884B889A4229
:1072E80009D150E8012FC2EA024240E80123002BED
:1072F800F7D1012070470020704737B550E8023FAA
:107308001FFAA3F5C488A54202BFBFF32F8F00223E
:107318000DE0C48925448489A54228BF2D1BC3EAF2
:10732800054540E80254002CE8D14FF001028DF8E1
:1073380003200193019B9DF803200B6002F0FF03DB
:1073480022B14B880068184403B030BD1846FBE7EB
:107358000A884B889A4209D150E8022FC2EA224291
:1073680040E80223002BF7D1012070470020704726
:1073780001F01F024B090121914000EB830000F04E
:107388001EB801F01F0301229A404B0900EB83004D
:10739800D14300F02CB84B0901F01F0150F823002D
:1073A800C84000F00100704710B5034653E8000FCD
:1073B8000A4643E8002494F0000FF7D110BD10B539
:1073C800034653E8002F42EA010043E8000494F022
:1073D800000FF6D110BD10B5034653E8000F00EAC0
:1073E800010243E8002494F0000FF6D110BD10B557
:1073F800034653E8002F02EA010043E8000494F032
:10740800000FF6D110BD10B5034653E8002F02EB6C
:10741800010043E8000494F0000FF6D110BD10B548
:10742800034653E8002FA2EB010043E8000494F060
:10743800000FF6D110BD0121FFF7C1BF0021FFF7F2
:10744800CABF10B590B1D0E9012301689B1ADBB21D
:107458000A60013BDBB2FF2B026802D100201071E9
:1074680010BD11684C1C14600B70F2E70E20F7E792
:1074780037B5054600240DF107008DF80740FFF7E2
:1074880075FD2A686B68116899420ED9481E10600C
:1074980011F8014CEB68298A01FB0434AB681179B7
:1074A8001B1ADBB2994238BF13719DF80700FFF72A
:1074B80081FD204603B030BD37B5054600230DF1E8
:1074C80007000C468DF80730FFF750FD2A6813684F
:1074D800591C1160E968641A298AB4FBF1F41C701C
:1074E8009DF80700FFF766FD03B030BD2DE9F84FA2
:1074F800B0F806A04579D2F800B09DF828900AFBAC
:1075080005F5043D88460BEB0301A94203F1040489
:1075180088BFA5EB030BB4FBFAF607460AFB164433
:10752800C2F800B04EB9AAEB04055D4528BF5D4618
:10753800BBF1000F04D1BDE8F88F3F68013EF1E7C9
:10754800043408EB06003C442A46B9F1000F0DD07C
:107558002146ABEB050B03F0CCFEDA452E443F6821
:1075680055464FF0000428BF5D46E1E70146204636
:10757800EFE7FFF766BFF8B546790146721E054684
:10758800002393422D6803D30024A64202D8F8BDF5
:107598000133F6E70F682846FFF78EFF01343946B6
:1075A800F3E72DE9F843068ACD1C0746FFF760FF8D
:1075B800043E35440446B5FBF6F5F0B14FF480734C
:1075C800EDB28380C680013D076081464FF0000818
:1075D800A84512D23846FFF74BFF064648B16379F3
:1075E8000133637108F10108C9F80000076081469A
:1075F800EEE72046FFF7BFFF34462046BDE8F88394
:1076080001210430FFF7FFBE10B501210446043004
:10761800FFF705FF10F0FF0F04D12046BDE810402A
:10762800FFF7A9BF10BD1FB503920022009203AA5D
:10763800FFF75CFF05B05DF804FB1FB5039201225C
:10764800009203AAFFF752FF05B05DF804FB41DF83
:1076580070470000064B10B500241C70054B1C60D9
:10766800BFF35F8F0449054800F0EAF8204610BDD3
:107678005C78002060780020F0B602005478002082
:1076880007B500230DF107008DF80730FFF76EFCF2
:10769800F1EE103A23F09F03E1EE103ABFF35F8F4B
:1076A800094B4022C3F884219DF80700FFF782FCAC
:1076B80003F06CFC20B1FFF7CAFF03B05DF804FBD0
:1076C80020BF40BF20BFF8E700E100E00268136870
:1076D8005268934291BFD01A80680130801888BFE1
:1076E800C01A7047036881681A685B688B4234BFA8
:1076F80001330023D31A584258417047F7B5002385
:1077080004460DF107000D468DF80730FFF72EFCF3
:107718002046FFF7E7FF10B1237C002B3CD12268FD
:10772800A66853685168B14234BF013100215160E5
:1077380030B11168A068814234BF01310021116065
:10774800E2686068511E072920D8DFE801F00410BC
:107758001F141F1F1F182A78C2542046FFF7B6FFB0
:1077680023689A68824200D29860002415E02A882B
:1077780020F81320F1E72A6840F82320EDE7D5E93F
:10778800006700EBC300C0E90067E6E7294602FB93
:10779800030003F0AEFDE0E704249DF80700FFF7BF
:1077A80009FC204603B0F0BD036818685B68C31A7B
:1077B80058425841704773B5002305460DF107003C
:1077C8000C4616468DF80730FFF7D0FB2846FFF722
:1077D800EBFF002832D129680B682EB90A68A8681F
:1077E800824238BF561C0E60EA686968501E072836
:1077F8001ED8DFE800F0040E1D121D1D1D16CB5CFF
:10780800237000249DF80700FFF7D4FB204602B040
:1078180070BD31F813302380F3E751F8233023602B
:10782800EFE701EBC301D1E90023C4E90023E8E74E
:1078380003FB0211204603F05CFDE2E70524E1E7C3
:107848000B684A684360934208BF0023016008BF81
:1078580043607047436843B10268916852680B44BB
:107868009342436004BF00234360704770B5446887
:1078780006460D46206818B1B3682946984718B9D6
:1078880023682B60256070BD2468F3E74368186897
:1078980008B102681A6070474368186870474368FF
:1078A800186800B97047884203D102681A6001203D
:1078B800704703460068F4E710B50D49A1F59472C6
:1078C800914201D800200FE08C1AE30F03EBE40388
:1078D8005B1002EBC30452F83330834205D802D25E
:1078E80004F10802ECE7606810BD2146E8E700BF34
:1078F800FCBB020008B5FFF7DFFF024B002808BFFA
:10790800184608BDBFBA020049B152B1531E1A4009
:1079180007D1826001608380C260104670470E20E4
:1079280070470920704710B58468C2688388121BA5
:10793800934208D3C26813400268D154C368013324
:10794800C360002010BD0420FCE78268C3689A4227
:107958000AD08268838813400268D35C0B708368FE
:107968000133836000207047052070470648074AA6
:1079780003780749D35C012213B1043001F0ACBA93
:107988000C3001F055B800BFA0430020B4780020A7
:107998008C7800200648074A03780749D35C0122FF
:1079A80013B1043001F044BA0C3000F0EFBF00BF4F
:1079B800A0430020B47800208D78002037B50578E2
:1079C800012D0BD0022D2ED065B91E491E48FFF798
:1079D800BCFF002832D1FFF7DDFF03E0037A1BB9B3
:1079E800FFF7C4FF03B030BD4368184C1978204630
:1079F800FFF799FF80B18DF800500190144B68464D
:107A08001B689847A168E368A2885B1A9A42E7D284
:107A1800104B01221A70E5E7A268E3689A42F1D098
:107A28008DF80000EAE7C3688DF800500193FFF76E
:107A38009DFF074B68461B689847D3E703238DF8DB
:107A48000030F6E78D7800207C78002068780020E8
:107A58006478002078780020F0B51F46234B89B061
:107A680004461A600D4600293DD08A8820480968D6
:107A7800FFF74AFF002834D1AA89A9681D48FFF7F3
:107A880043FF00282DD11C4E0FCE6D460FC596E83A
:107A98000F0085E80F0063690693237C174A18488E
:107AA8008DF81C70003B18BF01238DF81430637CDF
:107AB800002B14BF0E2300238DF81530E3680293C2
:107AC800A36803932368019369466368009300F0F1
:107AD800D7FA30B90B4B18702368013301D0FFF780
:107AE80045FF09B0F0BD0720FBE700BF6478002020
:107AF800687800207C780020FCBB0200C579020071
:107B0800A04300207878002070B5084D0146084849
:107B18002E78FFF71AFF044636B100232B70FFF7C3
:107B280025FF08B1FFF732F8204670BD78780020AD
:107B38006878002010B501460E48FFF7F4FE0446A9
:107B4800A8B90D480D4A0378D35C63B1043001F03D
:107B5800B7F960B90A490748FFF7F7FE38B9BDE831
:107B68001040FFF717BF0C3000F056FFF1E7204632
:107B780010BD00BF7C780020A0430020B47800200E
:107B88008D7800200C4B1B78062B10D10B4B1B68F3
:107B98001A070CD10A4B186800F0F003302B08D0F4
:107BA80000F0E000A0F1400358425841704700201F
:107BB80070470120704700BFE00F00F0E40F00F0AD
:107BC800E80F00F0094B1B78062B0CD1084B1B68FB
:107BD8001A0708D1074B186800F0F000A0F130032D
:107BE8005842584170470020704700BFE00F00F02E
:107BF800E40F00F0E80F00F008B5FFF7C3FF28B165
:107C08007D4B7E4A1B68C3F304231360FFF7DAFF3A
:107C180010B17B4B7B4A1A60FFF7B4FF28B17A4B4F
:107C28007A4A1B68C3F342331360FFF7CBFF20B1D6
:107C3800774AD36823F08073D360FFF7A3FF40B17E
:107C48004FF080430022C3F80C21C3F81021C3F879
:107C58003825FFF7B7FF10B16E4B03221A60FFF704
:107C6800B1FF40B16C4B05221A6001229A670022CD
:107C78009A603F225A60694B1B78062B50D1684B9B
:107C88001B6819074CD1674B1B6803F0F003502B96
:107C980046D14FF08052644BD2F80414C3F8201533
:107CA800D2F80814C3F82415D2F80C14C3F8281510
:107CB800D2F81014C3F82C15D2F81414C3F83015E0
:107CC800D2F81814C3F83415D2F81C14C3F84015A8
:107CD800D2F82014C3F84415D2F82414C3F8481570
:107CE800D2F82814C3F84C15D2F82C14C3F8501540
:107CF800D2F83014C3F85415D2F83414C3F8601508
:107D0800D2F83814C3F86415D2F83C14C3F86815CF
:107D1800D2F84014C3F86C15D2F84424C3F870257F
:107D2800FFF730FF28B1414B414A1B6803F04F036E
:107D38001360FFF727FF48B14FF08043D3F80024C2
:107D4800D20744BF6FF00102C3F80024394B1B6807
:107D5800062B08D1384B1B68062B01BF374A13681E
:107D680043F480631360364AD2F8883043F47003D2
:107D7800C2F88830BFF34F8FBFF36F8F4FF01023D7
:107D8800D3F80022002A03DBD3F80432002B2FDAC1
:107D98002C4B0122C3F80425D3F80024002AFBD079
:107DA8004FF010221521C2F80012D3F80024002A3F
:107DB800FBD04FF010231522C3F80422214B1A469A
:107DC800D3F800140029FBD00021C3F80415D2F819
:107DD8000034002BFBD0BFF34F8F19491A4BCA68E8
:107DE80002F4E0621343CB60BFF34F8F00BFFDE79F
:107DF800164B174A1A6008BD24030010403501408D
:107E080074C007400DF0ADBA440200103C050040B4
:107E1800F0ED00E0A005004010560040E00F00F033
:107E2800E40F00F0E80F00F000C000405802001016
:107E3800E40E004030010010340100103C170040EF
:107E480000ED00E000E001400400FA05B443002022
:107E58000090D003074B1B5C1F2B86BF064903F01D
:107E68001F034FF0A041012202FA03F3C1F80C35B9
:107E7800704700BF1CBC020000030050074B1B5C8E
:107E88001F2B86BF064903F01F034FF0A0410122B4
:107E980002FA03F3C1F80835704700BF1CBC0200A2
:107EA8000003005008B50020FFF7E8FF0120FFF7A6
:107EB800E5FF0220FFF7E2FFBDE808400320FFF7D7
:107EC800DDBFC20710B504460CD54FF0A04303220E
:107ED800C3F83427C3F83827C3F83C27C3F840272A
:107EE800FFF7E0FFA3070AD54FF0A0430C22C3F821
:107EF8002C27C3F83027C3F86027C3F8642710BDC0
:107F080038B5074C051E04F1080318BF1C46236842
:107F18002BB11A6822605B6828469847F7E738BD96
:107F28009878002020B9054B01225A70FFF7E8BF66
:107F3800012802D1014A9070F8E770479078002034
:107F480020B9034B01225A70FFF7DABF704700BF10
:107F58009078002038B50B4C237883B90A486360C1
:107F6800A3602361E36000F0C9F8054603F00EF84A
:107F780008B900F0CFF801232370284638BD8525BD
:107F8800FBE700BF907800202D7F020037B50B4C2F
:107F980000230DF107008DF80730FEF7E7FFE368CF
:107FA800013BE360E56815B900F0C6F8A5709DF8D7
:107FB8000700FEF7FFFF03B030BD00BF9078002038
:107FC800012813B508D003281CD018B9104B01227A
:107FD800C3F8802002B010BD0E4C00230DF107003D
:107FE8008DF80730FEF7C2FF23780BB9FFF7B2FF11
:107FF800E3689DF807000133E3600123A370FEF7EF
:10800800D9FFE7E700F086F8FFF7C0FFE2E700BF17
:1080180000E100E0907800201FB503788DF800306B
:108028004368019383688DF80830C368054A039351
:10803800054B684653F8213052F82110984705B08F
:108048005DF804FBA4780020AC7800201FB5037805
:108058008DF800304368019383688DF80830C36851
:10806800054A0393054B684653F8213052F821100E
:10807800984705B05DF804FBA4780020AC78002090
:10808800F0B5194B90F800C0DFF86CE043F82C20ED
:10809800164B16460A6943F82C204B7F0EF80C3015
:1080A8000C4607460FCC89B06D460FC594E80F0003
:1080B80085E80F001EF80C30CDF810C04BB1002E2B
:1080C8000B4A694608BF3246381D00F0CDFD09B09D
:1080D800F0BD002E074A694608BF324607F10C007A
:1080E80000F07EFBF3E700BFAC780020A478002006
:1080F8002180020055800200B4780020044A1379D8
:1081080023B9012110609180184670478520704777
:10811800B8780020074B1A68D2075FBFC02283F8DF
:10812800002301221A604FF080430122C3F818256A
:10813800704700BF00E100E0044B01221A604FF0D5
:108148008042D2F81834DB03FBD470470C0000409F
:10815800154B07B51A687AB100221A601B6800939C
:10816800009B4FF080430122C3F808230F4B587936
:1081780010B95A711B6898470D4B1A6882B10022D2
:108188001A601B680193019B4FF080430222C3F8D9
:108198000823064B1B68012003B05DF804EB184761
:1081A80003B05DF804FB00BF00010040B878002070
:1081B8000401004000F1804000F5C040002382B077
:1081C800036003680193019B02B0704703681F2B8B
:1081D80083BF03F01F03036001484FF0A0407047BE
:1081E8000003005007B5019001A8FFF7EFFF019BBE
:1081F80000EB8300D0F8003723F44033C0F8003791
:10820800D0F8003743EA0141C0F8001703B05DF821
:1082180004FB0000054B4FF0FF32072843F82020ED
:1082280084BFC01880F85820704700BFC07800206D
:1082380010B5174C94F86A3043BB04F13003302171
:10824800FF22013911F0FF0103F8012BF9D1C8B25F
:10825800FFF7E0FF01310C29F9D1062200210D4872
:1082680003F070F80C4BC02283F8062340221A60F2
:108278004FF4BE70FFF79EFF084B4FF00042C3F863
:108288000423012384F86A30002010BD0820FCE78D
:10829800C07800202479002000E100E00060004060
:1082A800034B93F86A00003818BF0120704700BFDD
:1082B800C0780020F7B53B4E3318054693F93030A7
:1082C800002B6CDA8B78C3F34003002B0BBF082418
:1082D80000240C200820844202D1042003B0F0BD01
:1082E80056F82470013743D1701946F8242080F8D5
:1082F800304013B9331983F858508B785A0717D47C
:10830800D80737D501A80195FFF760FF019B00EB5F
:108318008300D0F8003723F00203C0F80037224862
:10832800EA0805F007070123BB40875C3B438354F9
:108338008B780A7813F0020328D0A40004F1804453
:1083480004F5C0442D02D4F8103523F44F3323F438
:108358004073C4F810351204D4F8103505F47C5570
:1083680002F4403215431D43C4F810550020B5E708
:108378000134B0E701A84A780195FFF727FF019B70
:1083880003F5E073920040F82320C8E7083C344422
:1083980094F8605045EA821284F86020E6E70820E5
:1083A8009CE700BFC0780020247900200E4B0344CE
:1083B80093F93020072A02DD0021FFF713BFD3B25B
:1083C800072B10D8930003F1804303F5C043D3F87B
:1083D800101521F00101C3F81015012303FA02F268
:1083E800024BC3F808237047C078002000600040A3
:1083F80007B5019001A8FFF7E9FE019BD0F8100529
:10840800D84000F0010003B05DF804FB2DE9F04FFF
:10841800002489B0CDE90244624D4FF480720121F5
:1084280002F1804303F5C04390B21B68012B06D1CB
:10843800D5F804330B4202D0FFF7BCFE0C430432DC
:10844800B2F5907F4FEA4101EAD1574B1B68012BE7
:108458000ED14FF4BE70FFF7ADFE4FF0A04344F0CD
:108468000044D3F810350293504BD3F810350393DA
:1084780014F0FF0F1AD04E4F00250126344210D0B9
:10848800AB0003F1804303F5C043D3F81005D3F8DC
:10849800101557F8253023B1C1F30141C0F3052069
:1084A80098470135082D4FEA4606E7D1002C75DAC2
:1084B80004AF002304937B604FF0FF33CDE906330C
:1084C800DFF8EC90DFF8EC800026354618F9012B30
:1084D800531C4AD0C2F3C2000123D4B202F03F0BAE
:1084E80002F0070203FA02F208AB191811F8083C67
:1084F80013423AD009EB0B03A40993F9303059F829
:1085080023A0BAF1000F08D1032C2ED117F800C010
:108518004CEA020C07F800C001E0032CF6D001A8D1
:10852800CDF804B0FFF752FE019B11F8181C03F5B3
:10853800E07C114250F82C00C0F3014005D002281D
:1085480013D1032C0BD1214604E003280DD1032CB1
:1085580005D102215846FFF745FE0135EDB2BAF1C3
:10856800000F02D021465846D0470136042EADD11F
:10857800A5B14FF0A0430299D3F8102503F5407335
:108588009142D3F8103502D10399994206D002924C
:108598000393049A059B0692079393E709B0BDE8F5
:1085A800F08F00BF006000407C6100400003005075
:1085B800C078002020790020014B1B68184700BFB5
:1085C8002C7900200E4B984237B50C4602D000207B
:1085D80003B030BD00230DF107008DF80730FEF71A
:1085E800C5FC084B1D7915B901221C601A719DF84C
:1085F8000700FEF7DFFC002DE9D01120E8E700BFF7
:10860800002000402C7900200023435082B04358BA
:108618000193019B02B070470A4610B54FF48E7162
:10862800FFF7F2FF136A9168C95C136A013313629A
:10863800C0F81C1510BD024608B500684FF49271C9
:10864800FFF7E2FF4FF484711068FFF7DDFF13684E
:1086580001221A6008BD8B690A4610B54FF484716F
:1086680023B9FFF7D1FFD0F8183510BDFFF7CCFFBD
:10867800536AD168D0F81805C854536A0133536255
:10868800F3E700001FB501238DF80030044BCDE956
:108698000110D3E900126846904705B05DF804FB65
:1086A8003479002030B54C48D0F8043313F4007FF7
:1086B80085B005464DD0D0F82431002B49D04FF471
:1086C8009271FFF7A1FF4FF40173C0F80833434BD1
:1086D80093F829200AB9012242603F4902228DF805
:1086E8000020D1F88024C1F8802403929A6902926C
:1086F800DA6801920022C3E906226846D3E900122B
:1087080090473548D0F81C315BB134494A690B6A47
:108718009A420A464AD991F82830002B46D1FFF7E9
:108728007BFF2D48D0F844318BB14FF4A271FFF78D
:108738006BFF2A4B93F829200AB1012202609A693B
:108748002AB10022586AD9689A61FFF79BFF05B0E1
:1087580030BDD5F804335B07D3D5D5F80831002BE5
:10876800CFD01E4C1C482146FFF775FF636AA269EB
:108778009A422346C5D1E269E1684AB12369E360B8
:108788000023606AA261E3616362FFF77BFFB8E7D9
:1087980094F829200AB901226A600F4A4FF401703F
:1087A800C2F808030022586A9A61EEE70A484FF4B3
:1087B8008E71FFF729FF5369002BB2D051690291DE
:1087C800002391688DF80030019153616846D2E921
:1087D80000139847A5E700BF002000403479002027
:1087E8002DE9F843634B057991462C2202FB0532AB
:1087F800064692F82A200C469846002A40F0B68091
:108808005D490068FFF7DEFE0746002840F0B080AB
:1088180021684A1C10D01F2987BF584A01F01F033E
:108828000B464FF0A0420120984003F5E073C2F8D0
:108838000805032042F823006068431C0DD01F2858
:108848008BBF00F01F0303464C4A4FF0A04203F5CC
:10885800E0734FF0000C42F823C03368A269C3F8F4
:10886800242594F814C0627DBCF1010F4CEA020281
:10887800C3F86C25C3F81405C3F80C152BD1A168EF
:10888800481C0DD01F298BBF01F01F020A463B4828
:108898004FF0A04002F5E0724FF0000C40F822C003
:1088A800E068421C13D01F2887BF344A00F01F0C11
:1088B80084464FF0A0424FF0010E0EFA0CFE0CF564
:1088C800E07CC2F808E54FF0030E42F82CE0C3F84C
:1088D8000805C3F810152C236B4308EB0302C2F8F4
:1088E8000490226948F80320B9F1000F2BD03068B2
:1088F800247F4FF48E71FFF787FE30684FF4A27122
:10890800FFF782FE32681E4BC2F80433110B42F3A4
:108918000732002AA8BF02F160404FEA4413BABFE9
:10892800184801F00F0400F56140DBB2B4BF0355ED
:1089380080F8003301F01F01012303FA01F1520905
:10894800114B43F8221033680422C3F800252C2366
:1089580003FB05830022C3E9062283F829205A6114
:10896800012283F82A203846BDE8F8830827FAE769
:108978001127F8E734790020AD8602000003005083
:108988008000020014ED00E000E100E02DE9F0476E
:10899800204F90F804904FF02C0808FB0974054606
:1089A8006669002E34D162610068A16026624FF4C6
:1089B8008E7184F82860FFF727FE286801238360FA
:1089C8002146FFF729FE6368A0468BB92868D4F8CA
:1089D80014A0236A9A4511D82A68D2F81C31002BB2
:1089E800FBD00123D3602C2303FB097300225A61B7
:1089F8003046BDE8F08794F828303BB9D0F81C31F0
:108A0800002BF8D04146FFF707FEE2E70F26EAE71A
:108A18001126EDE7347900200379044A2C2101FB63
:108A280003235869003818BF0120704734790020A3
:108A38002DE9F843394F05792C2303FB05730646C6
:108A48005C6824B103684FF40170C3F808032C2351
:108A580003FB0573986950B1D86900283ED024B14A
:108A680033684FF40172C3F80423112433E09A6188
:108A7800D9605862D8612C2303FB057393F8293019
:108A88001BB910B93046FFF7D6FD4FF02C0909FB8A
:108A980005783068D8F80430002B34D14FF4A2712F
:108AA800C146FFF7B1FD3068D0F82431D0F808216D
:108AB800D0F84441B2B90CB9002BF4D02C2202FBF7
:108AC80005750022AA6123BB2CBB95F829103368D1
:108AD8000122B1B11A602046BDE8F8831961DA6154
:108AE8000120C8E7002BE9D1002CE7D14946FFF760
:108AF800B2FDD8F82430D8F818209A42D3D82346A3
:108B0800DCE75A60E7E74FF40173C0F80433002448
:108B1800E1E70324DFE70F24DDE700BF3479002015
:108B28000023435082B043580193019B02B0704721
:108B38001FB501238DF80030044BCDE90110D3E9AE
:108B480000126846904705B05DF804FB6079002084
:108B58007FB5434AD2F82461002E60D010464FF406
:108B68009271FFF7DDFF02238DF80030D2F88034D0
:108B7800C2F880340393D2F83C350293394BDA6853
:108B880001920022C3E906226846D3E90012904701
:108B98003348D0F8443173B14FF4A271FFF7C0FFE6
:108BA800304B9A693AB10022C3E90622D968D0F855
:108BB8003C05FFF7BDFF2A48D0F82031ABB14FF490
:108BC8009071FFF7ADFF0123C360264B5A6962B16C
:108BD800D0F84C150291002299688DF80020019177
:108BE8005A616846D3E9001290471D48D0F85831B9
:108BF8009BB14FF4AC71FFF793FF1A4B5A6962B1FE
:108C0800D0F84C150291002299688DF80020019146
:108C18005A616846D3E90012904704B070BDD2F893
:108C28001031002BB4D04FF488711046FFF778FF4D
:108C38000C4BD2F83C0599698842A9D1DC69D968FE
:108C480064B1D2F8005225F02005C2F800521A6922
:108C58009C61DA60DE61FFF76BFF99E79C61FAE7D8
:108C680000200040607900202DE9F8436A4B06791E
:108C78009146242202FB0632044692F820200D4633
:108C88009846002A40F0C38064490068FFF79AFCC0
:108C98000746002840F0BD802868421C10D01F28D5
:108CA80087BF5F4A00F01F0303464FF0A04201212F
:108CB800994003F5E073C2F80815032142F8231020
:108CC80069684B1C0DD01F298BBF01F01F030B4691
:108CD800534A4FF0A04203F5E0734FF0000C42F8FE
:108CE80023C02368AA69C3F8242595F814C06A7DAF
:108CF800BCF1010F4CEA0202C3F86C25C3F80C055D
:108D0800C3F814152BD1A968481C0DD01F298BBF97
:108D180001F01F020A4642484FF0A04002F5E072F7
:108D28004FF0000C40F822C0E868421C13D01F28FE
:108D380087BF3B4A00F01F0C84464FF0A0424FF01B
:108D4800010E0EFA0CFE0CF5E07CC2F808E54FF0B7
:108D5800030E42F82CE0C3F80805C3F810152423C5
:108D6800734308EB0302C2F804902A6948F8032009
:108D7800B9F1000F3AD020682A7F4FF48871FFF7C5
:108D8800CFFE20684FF49071FFF7CAFE20684FF4B9
:108D98009271FFF7C5FE20684FF4A271FFF7C0FE7D
:108DA80020684FF4AC71FFF7BBFE23681D49C3F878
:108DB8000413190B43F30733002BAEBF03F16040D4
:108DC80001F00F0518484FEA4212A8BF00F56140AC
:108DD800D2B2B4BF425580F8002301F01F0101222E
:108DE80002FA01F15B09114A42F8231023680822AC
:108DF800C3F80025242303FB06830022C3E90622C7
:108E08005A61012283F820203846BDE8F8830827F4
:108E1800FAE71127F8E700BF60790020598B0200B4
:108E2800000300501003420014ED00E000E100E0F0
:108E380001F06043B3F1005F2DE9F041064638D1F7
:108E48001E4B0779242505FB073598466C69002CCD
:108E580031D16A610068A9604FF49071FFF760FE34
:108E68004FF4AC713068FFF75BFE33686A69A96834
:108E7800C3F84415C3F8482501229A606A68AAB95C
:108E8800D3F82021D3F858411AB9002CF8D00F2470
:108E980007E0002CFBD10122DA60D3F85821002A20
:108EA800FBD0242303FB078700237B612046BDE812
:108EB800F0811024FAE71124F8E700BF6079002058
:108EC8000379044A242101FB03235869003818BF99
:108ED8000120704760790020F8B501F06043B3F1D4
:108EE800005F04460F465ED10379304D242101FB13
:108EF8000351496821B100684FF40476C0F808634B
:108F0800242000FB03539E6956B1D869002839D044
:108F180021B123684FF40472C3F80423112030E010
:108F28009A61DF60DE6120684FF48871FFF7F8FD11
:108F380020684FF4A271FFF7F3FD2368C3F8347576
:108F4800C3F8382516BB01221A602179242202FBB6
:108F5800015252680ABBD3F81041D3F84421D3F820
:108F68002401144302D10028F5D02246242303FB10
:108F780001550023984218BF03209A42AB6118BFDD
:108F88000F20F8BD1F61DA610126CCE7D3F8002273
:108F980042F02002C3F80022D7E74FF40472C3F866
:108FA80004230020EDE71020EBE700BF60790020E4
:108FB800032811D8012A0AD101290FD100F10E0284
:108FC800D2B20D4B00EB40001A5400207047012923
:108FD800F7D0022904D049B1072070470022F8E7EA
:108FE800054B00EB400018444270EEE7024B00EBE3
:108FF800400018448270E8E78479002008B501220F
:1090080002210020FFF7D4FF08B1072810D107225A
:1090180002210120FFF7CCFF08B1072808D1002161
:109028000A220846FFF7C4FF10B1072808BF00202E
:1090380008BD00000388102B10B502D0112B1ED0DC
:1090480010BD1A4C2168B1B901220846FFF7B0FFDC
:1090580008B1072824D1072202210120FFF7A8FF21
:1090680008B107281CD1042202210020FFF7A0FF25
:1090780008B1072814D1236801332360E0E70B4ABD
:109088001368013B1360002BDAD1FFF7B7FF002804
:10909800D6D0074B1B68002BD2D0BDE8104018472C
:1090A800034B1B68002BE6D09847E4E7947900202F
:1090B8009079002075DF704776DF70478FDF704743
:1090C800FDF764BD4288034B0146182000FB0230BF
:1090D80001F094BD0080002008B50B480B4B0C4AEA
:1090E8000C49C01AC008000440F00300FDF784FBD7
:1090F800094801F02FFC08B1FDF748FDBDE808401C
:109108000020FEF7A7BE00BF80B5020058B50200D8
:1091180090BE020042BC0200CC8100200388212BB3
:1091280013B5044670D007D8112B46D01F2B61D039
:10913800102B0AD002B010BD3B2B01D0562BF9D111
:10914800A0881321FFF7B8FF59E0334B3348A288B2
:109158003349C01AC008000440F00300FDF74CFB77
:10916800A388072B02D90020FDF710FDA1882D4BFD
:109178001820002200FB013001F072FE08B1FDF753
:1091880005FDA188284B4FF4BA6000FB013000F0C0
:1091980025FE08B1FDF7FAFC0120FEF75BFE00F0A2
:1091A80037FC08284FF0000002D1FEF767FEC1E740
:1091B800FEF750FEFFF790FFBCE7174B1748A28851
:1091C8001A49C01AC0080004237A40F00300FDF7CA
:1091D8001CFB00F01DFC38B9FDF7ACFC08B1FDF72D
:1091E800D5FC0120FEF74AFEFFF776FF0020FEF7C8
:1091F80031FE9FE700F108018088FFF75BFF002838
:1092080098D0FDF7C3FC95E7002301A98088ADF845
:109218000430FFF753FFF2E758B5020080B50200AB
:1092280067BC020000800020E84300209DBC0200CB
:109238000B2873B50A4620D1134D002443F20206C9
:1092480011462846019201F0A3FC30F00803019A68
:1092580001D0B04216D10134082C05F11805EFD120
:109268000A4B0B480B49C01AC008000440F0030021
:1092780002B0BDE87040FDF7BFBA02B0BDE870406B
:10928800FDF784BC02B070BD0C81002058B5020007
:1092980080B50200D1BC02001FB50378062B03D0AD
:1092A800072B09D004B010BD40680028FAD004B0DC
:1092B800BDE81040FDF76ABC41680A4C0A488B7843
:1092C8004A78001B8C7903944C7902940C790194A8
:1092D800C008C97800910004044940F00300FDF774
:1092E800AAFADFE758B5020080B50200EABC02001E
:1092F8002DE9F84391F80080B8F1010F06460D46B4
:109308002AD0B8F1020F00F0BF80B8F1000F2DD1BC
:10931800644B654C6549E41AE408240444F00304EA
:109328002046FDF765FA6988614B182005F10E02A1
:1093380000FB013001F094FD08B1FDF727FC304631
:1093480001F00CFD08B1FDF721FC6A885949204657
:10935800BDE8F843FDF750BADFF86C918E6899F8CC
:1093680000408D894F461CB1012C39D0BDE8F883E7
:1093780033783F2B27D1FA224F49504801F0A1FFFB
:109388004E4A89F80080023DE3B2AB4204F1010481
:1093980007DB4A4E0024AC4207D1494B02221A602F
:1093A800E4E7F1188978D154EEE73078FEF7C2FB8C
:1093B8000028FAD101340136EDE7305DFEF7BAFB3B
:1093C8000028FAD10134AC42F7D30D20FEF7B2FBE6
:1093D8000028FAD10A20FEF7ADFB0028FAD1C5E72C
:1093E8003378212B28D134493448FA2201F069FF17
:1093F80032490023023DDAB2AA4203F101030FDB2E
:109408002E4E0024A5420FD10D20FEF793FB002815
:10941800FAD10A20FEF78EFB0028FAD13870A5E7AA
:10942800B01880788854E6E73078FEF783FB002888
:10943800FAD101340136E5E73A2B97D1204C7278FE
:1094480023689A4292D11C491C48FA2201F039FF3C
:109458001A490023023DDAB2AA4203F1010307DBED
:10946800164F0026AE4207D12368013323607DE7FB
:10947800B01880788854EEE73878FEF75BFB002850
:10948800FAD101360137EDE7064B07480D49C01AF6
:10949800C008000440F00300FDF7AAF9BDE8F8434E
:1094A800FFF71ABE58B5020080B502001ABD0200C7
:1094B8000080002030BD020065BD02003883002016
:1094C8003482002066BD0200328400202B4A10B589
:1094D800002113466C204524013120291070547056
:1094E80002F10202F8D11422012183F8402083F806
:1094F80042100022D22183F8412083F8432083F8C8
:10950800441004222E2483F84A10112183F84520A0
:1095180083F8464083F84B201624D72283F84D1051
:1095280083F85110082183F8474083F84C20A3247E
:1095380083F84E2083F853101E22572183F84840A1
:1095480083F84F20232483F8541083F857201521DB
:109558003C2283F8494083F8551083F85820D324D7
:109568000622AC2183F8592083F8504083F8520032
:1095780083F85610024B5A221A7010BD338400200B
:109588009879002070B50C4D0C4E00243378A34216
:109598000AD80D20FEF7CEFA0028FAD10A20FEF7E5
:1095A800C9FA0028FAD170BD2878FEF7C3FA002856
:1095B800FAD101340135E9E7338400209879002095
:1095C800F8B50378012B044646D0022B35D0F3B901
:1095D800254D264C28882044FEF796FA2B8801331F
:1095E8009BB2E2182B8012F8012C0A2A05D00D2A0A
:1095F80003D01F4A12889A4209D823782A2B07D108
:1096080063783B2B04D1FFF7BDFF00232B80F8BD07
:10961800184E164F00242A883946304601F0D0FBF0
:10962800082804D01328F6D008B1FDF7AFFA0134A2
:10963800082C06F11806EED1E7E70F4B0F48104942
:109648001B1ADB081B0443F00100FDF7D1F8606822
:10965800BDE8F840FDF79ABA074B084809491B1AB4
:10966800DB081B04EFE700BFAE79002099790020E2
:10967800E44300200080002080B5020058B50200B5
:1096880076BD0200AABD020000B5534B8BB0002284
:109698001A70FFF71BFFFDF73BFB08B1FDF776FAE1
:1096A8004E4D0FCD04AC0FC495E803004C4B4D4A0A
:1096B80000934FF4807384E80300CDE902230193FB
:1096C800494A0723694604A8FEF7C6F908B1FDF719
:1096D8005DFA0120FEF7F5FB444840F233320121E0
:1096E800FDF7D2F908B1FDF751FAFDF7B3FF08B15C
:1096F800FDF74CFA01F00CFC08B1FDF747FA00231E
:1097080004A90120049301F08BFC08B1FDF73EFA8F
:1097180004A801F037FD08B1FDF738FA34480021F4
:1097280000F02AFD08B1FDF731FA3148172100F0A1
:109738003CFD08B1FDF72AFA0822002104A801F02F
:1097480001FE2C4C2C4B049304A8059400F008FB54
:1097580008B1FDF71BFA294B0493294B294DCDE994
:109768000534002404A9284601F092FA08B1FDF74F
:109778000DFA0134082C05F11805F3D100F046F96B
:10978800102200210DEB020001F0DCFD01231E4A2E
:109798001E488DF8143004A98DF81C3001F08AF8A1
:1097A80008B1FDF7F3F91A4A1848002101F03CF80E
:1097B80008B1FDF7EBF915480022012101F062F824
:1097C80008B1FDF7E3F9FFF787FCFCF7B5FE0028C1
:1097D800FBD1FDF755FFF8E732840020D8BD020021
:1097E8003882002097840020C9950200B8430020E1
:1097F800C0800020C0430020CD900200F9920200F2
:10980800C990020000800020A1920200CC810020B3
:1098180090BE020070B5E8B14AB116880024B4427F
:1098280003D305196D789D4208D0A14201D80020C4
:1098380010E0055D01352C44A4B2F0E7A142F6D949
:10984800005D0138A31C80B29DB210FA83F38B42ED
:10985800EDDC158070BDF7B500230646ADF806307F
:10986800144612B9002003B0F0BD09230DF1060219
:10987800FFF7D0FFBDF806700546002FF2D000288C
:10988800F0D0204601F0B8FDA8420246EAD1F1190D
:10989800204601F0E3FCB0FA80F04009E3E70AB1A2
:1098A800FDF766BDFDF76DBD02487C22002101F081
:1098B80049BD00BF9885002073B50191019C0646FB
:1098C8006CB100252C46294601A8FDF764FD18B1A6
:1098D80006EB440301349D800135142DF3D1304645
:1098E800346002B070BD00002DE9F0470388848819
:1098F800103B8CB005460A2B1FD8DFE803F0063F63
:109908001E1E1E1E1E1E1E604400314EB368DB4321
:10991800009371686846FDF76AFD009901A8FFF792
:10992800CBFF0DF108094FF00008019B984507D3BC
:10993800132C13D90420FDF729F90CB0BDE8F087E2
:1099480039F802AB00270137514606EB8700FDF7CF
:1099580018FD1E2FF7D108F10108E6E71D4821463A
:10996800FDF706FD1C482146FDF702FDEB7B012BA8
:10997800E3D01A482146FDF7FBFCDEE715482146EF
:10998800FDF7FFFCD9E7027A15483F2A4FEA12157E
:10999800214694BF00220122FFF781FF022D94BFC8
:1099A800002201220F482146FFF779FF012D0E48BA
:1099B80094BF002201222146FFF771FFBDE7037A19
:1099C800002BBAD1427A0648C2F3C0022146F3E717
:1099D80098850020A08500209C850020A485002073
:1099E800B0850020AC850020A885002037B500246C
:1099F80001902546214601A8FDF7CDFC00B10135AF
:109A08000134142CF6D1284603B030BDFFF74CBF03
:109A180007B5064BDA680192996801A8FDF7E7FCDB
:109A28000198FFF7E3FF03B05DF804FB9885002079
:109A380030B50B4B19680B4B0022914201D1002025
:109A480009E09D788478A54206D11D880488A5423E
:109A580002D1054B186830BD01320433EDE700BF71
:109A68001C86002020860020148600202DE9F84F4F
:109A780090F8C6A24FF0760B04460AFB0B00884606
:109A88009146FFF7D5FF074670B3D4F8CC52052DA1
:109A98002AD804EBC5165A46A6F8D2920BFB0A41FF
:109AA80006F5357001F025FCB8F1000F14BF00234E
:109AB800022386F8D0320D4BC6F84C731A6801356C
:109AC8009542C4F8CC521D460ED104F534760027D1
:109AD800F36F304698472B6801379F4206F180069E
:109AE800F6D30023C4F8CC32BDE8F88F1C860020DA
:109AF80030B5A1B004460D467C22002101A801F032
:109B080021FC03238DF80430044BADF806501B6884
:109B180002940BB101A8984721B030BD14860020EB
:109B28002DE9F041074691F8C60276234FF0000868
:109B3800A0B081F8C88200FB03100C461546FFF759
:109B480077FF064660B17C22414601A801F0FAFB86
:109B580001238DF80430ADF80650029701A8B047EC
:109B680029462046FFF7C4FF20B0BDE8F081000079
:109B780030B58BB0044620220D4602A8002101F022
:109B8800E1FB04220DEB0200002101F0DBFB94F85D
:109B9800C53294F8C62213B3013B7621DBB2514398
:109BA800122000FB031323445B8A01339BB2ADF8F8
:109BB8000430762303FB024202A91389ADF806306C
:109BC80003238DF80830019BCDE90543064B049328
:109BD800064B2A46186800F0F9FC0BB030BD762316
:109BE80003FB0243DB88E2E7299B0200388600205A
:109BF800F0B5044689B020220D466846002101F0E0
:109C0800A1FB94F8C7321E4A01331268DBB29342B3
:109C180084F8C7324FF000022BD294F8C632194F9D
:109C280084F8C5220133DBB2762113FB01F057F823
:109C3800237084F8C6322618275001FB034332717B
:109C48001B68CDF81230104B029302220F4B8DF88F
:109C580000200122ADF81020186803942A466946AE
:109C680000F0B4FC18B12A462146FFF759FF09B0A5
:109C7800F0BD84F8C82229462046FFF739FFF6E7E9
:109C88001C86002020860020299B020038860020A0
:109C98002DE9F047044688B00D46164600212022DB
:109CA800684601F04FFB94F8C62294F8C512762353
:109CB80012FB03F2A018122790F804C017FB012327
:109CC80001F1010E0A33E645234411D004F11C09C1
:109CD80000F1220E0CF1FF389144CAB294450BD919
:109CE80088451B890ED102899A421BD1002312E0B4
:109CF8001B890289934215D101232B70002008B0DB
:109D0800BDE8F08707FB01FA01333EF80A209342C9
:109D18001DD109EB0A0394F8C522013284F8C52243
:109D28000131DAE701339BB2ADF810300A4B0293E8
:109D380000210A4B297004218DF80010ADF812207B
:109D4800186803943246694600F040FCD7E7013AA8
:109D58009BB292B2E8E700BF299B02003886002038
:109D680010B570B1026862B1436853B1064900206A
:109D78000860064901240C7005490A60054A136009
:109D880010BD0E20FCE700BF1C86002018860020AE
:109D9800148600203886002010B5044680B10C4B8C
:109DA8001B787BB1FFF744FE70B90A4A1368052B8C
:109DB8000CD80949246841F823400133136010BDC9
:109DC8000E20FCE70820FAE70020F8E70420F6E771
:109DD800188600201C86002020860020F0B50D463D
:109DE8008BB0044600283BD0204B1B78002B39D081
:109DF8001F4B1B68002B35D090F8C812002933D1AF
:109E08004FF4BA621B4F019101F09CFA019920228C
:109E180002A801F097FA3868294600F077FCE8B9FB
:109E2800154BC4F8CC0284F8C502A4F8C602186819
:109E3800206002238DF808300126104BCDF81A0057
:109E4800A4F8CA523868ADF818602A4602A90594E1
:109E5800049300F0BBFB08B984F8C8620BB0F0BDEE
:109E68000E20FBE70820F9E71120F7E71886002005
:109E78001C8600203886002020860020299B0200AE
:109E88002DE9FF410C46054660B159B1904B1B784E
:109E980043B10388322B64D007D8112B00F00A8114
:109EA800302B20D004B0BDE8F081332BFAD1828862
:109EB800B1F8CA329342F5D1C68891F8C6C291F872
:109EC800C572002E00F0C080762101FB0C4C0023E7
:109ED8009CF804108DF80F307B1C8B4200F0E48056
:109EE80084F8C532A2E08388B1F8CA229A42D9D14F
:109EF800C3886BBB91F8C632762202FB0313026952
:109F0800C3F8062091F8C432827A1344062B0CDC7D
:109F180081F8C432A9882046FFF72AFE0028C1D05C
:109F2800AA882146FFF7FCFDBCE7062381F8C43266
:109F38006848694B6949C01AC008000440F002002B
:109F48000190FCF755FC66490198FCF751FCE1E7E4
:109F580000212046FFF78AFDA9882046FFF748FE22
:109F6800A0E78288B1F8CA329A429BD1C388002BF5
:109F780058D191F8C672762317FB03F701EB07084F
:109F8800837A98F804603344062B26DC88F804307A
:109F9800334603EBC30207EB420205F10C062244E9
:109FA800002198F80400834206F10A0602F1120221
:109FB80027D31222013B02FB034394F8C6227621E1
:109FC8003B4401FB0242598A138999422AD2062846
:109FD80028D0A98884F8C5029DE7062388F80430AC
:109FE8003C483D4BCA5B3F49C01AC008000440F0DA
:109FF80002000190FCF700FC3B490198FCF7F8FBD4
:10A00800C6E73046013350F80ACD42F808CCD0F8FC
:10A0180004C042F804CC0089108051809180D1801E
:10A028001181BEE7002384F8C532AA880DF10F011B
:10A038002046FFF72DFE00287FF472AF9DF80F3001
:10A04800002B3FF42FAF32E0762303FB0CF11223F1
:10A0580003FB0713B0F80AE023447645BFF434AF96
:10A06800C189A1F52451082908D8DFE801F014179F
:10A078000507070707071A0081899982998A39B164
:10A08800D98A29B1198B19B1598B00297FF41CAFD2
:10A0980001360630E1E78189D982EFE781891983A2
:10A0A800ECE781895983E9E701238DF80F30AA8805
:10A0B80001214EE7B1F8CA3282889A4201BF0023D3
:10A0C80081F8C8324FF6FF73A1F8CA32EAE600BF3A
:10A0D8001886002098B5020058B502009CBE020000
:10A0E800BBBE020000BF020046BF020090DF7047FF
:10A0F800A5DF7047B5DF70477FB50023ADF80810BE
:10A10800ADF80A106A4602A9064603930093ADF813
:10A118000430FFF7EBFF054600B3124B124CE41A6C
:10A12800E408FDF7E7FB240444F0010403460F4963
:10A1380032462046FCF769FBBDF80020BDF8023026
:10A1480052EA030103D00A492046FCF75EFBBDF83A
:10A1580004201AB107492046FCF74EFB284604B0F4
:10A1680070BD00BF58B50200C0B50200ACBF020008
:10A17800F6BF020035C0020010B5A0B14FF01713AA
:10A1880003601B238164037100F14004172100223E
:10A19800C18001818272C272037343730830A04286
:10A1A800F6D1002010BD0E20FCE720B1172904D1FC
:10A1B8004180002070470E2070470720704700003C
:10A1C800F7B58588072D0C461AD80388242B4FEA43
:10A1D800C50700F0A48015D8112B79D0232B00F0E7
:10A1E800B180102B42D03C44A37A4BB1E188284679
:10A1F800FFF77EFF002840F0AC800123A072E372D5
:10A2080003B0F0BD3A2B6DD0552BECD1C388CE19D5
:10A21800172BF18838BF17238B4228BF0B46338191
:10A228000023B3722846FFF765FF60B1FDF762FBB4
:10A23800504B5149024651481B1ADB081B0443F096
:10A248000100FCF7D9FAF37A002BCCD1A36C002BD0
:10A25800C9D040F67722ADF800203289ADF8025017
:10A26800ADF80420694620469847BCE7CE190B791B
:10A278003373C37B012B13D0022B14D0F18833899D
:10A288008B4205D22846FFF733FF70B90123F372DA
:10A29800317B737B8B42A6D22846FFF72DFFA2E7BE
:10A2A8000B88F380EAE74B88FBE7112802D10123EA
:10A2B800B372EDE7FDF71EFB2E4B314902462F48DE
:10A2C8001B1ADB081B0443F00100FCF795FADFE7D3
:10A2D800CB191722DA801A8100225A8141F61B32E3
:10A2E8009A8180E7CE194389F288934228BF1346A2
:10A2F800172B8A6C38BF1723338162B1F17A51B1B9
:10A3080040F67721ADF80010ADF80250ADF80430F2
:10A318006946204690470023F372B37263E7CB196E
:10A32800027A5A738B6C002B3FF45DAF00218DF8D5
:10A3380005104DF67A21ADF80010ADF802508DF8F1
:10A3480004208FE7CB19017A1B7B994228BF194655
:10A35800A2E711283FF454AFFDF7CCFA054B0849A2
:10A36800024606481B1ADB081B0443F00100FCF7F1
:10A3780043FA45E7C0B50200BCC0020058B5020068
:10A388008BC002009BDF70479DDF70479EDF7047E0
:10A39800A1DF7047A3DF7047AEDF704730B5048890
:10A3A80000239AB2944206D9456835F813508D4275
:10A3B80003F10103F5D1104630BD8B6910B50C4689
:10A3C8001988102912D80231FDF7EBF8606078B1CE
:10A3D800A16900230222FDF726F9A26960681288A4
:10A3E800E1690223FDF71FF9002010BD0920FCE7F1
:10A3F8000420FAE710B50C46C98A10290AD8FDF7D7
:10A40800D0F8606040B1E28AA1690023FDF70BF93A
:10A41800002010BD0920FCE70420FAE7F0B58BB056
:10A42800002204460DF10601C068124EFDF7C3F97B
:10A43800142502460AB10BB0F0BDBDF80670A3683A
:10A4480005FB073702A93846FDF7B5F938B10022F0
:10A45800E0680DF10601FDF7AEF90246EAE79DF85E
:10A46800083056F8233013B10398FDF784F800221A
:10A47800E8E700BF68C10200F7B505460C4C0D4877
:10A488000092241AE40824040B460F4616460A498B
:10A498002A7844F00100FCF7C2F9AB6833B1E968E7
:10A4A8003A46304603B0BDE8F040184703B0F0BD67
:10A4B800C8B5020058B50200F8C00200F0B58FB068
:10A4C8000D46012206A90646FDF775F9044690B91E
:10A4D8009DF81830052B65D8DFE803F0030F1C241E
:10A4E800292EBDF82A20BDF828102846FFF750FF6E
:10A4F8000446112C40D10FB0F0BD02A90798BDF851
:10A508002E200C910023FDF798F80AA92846FFF79A
:10A5180041FFEDE7BDF828100DF12A022846FFF7A4
:10A5280031FFE5E70AA92846FFF72EFFE0E70AA969
:10A538002846FFF72BFFDBE70DF1060402AB2146A7
:10A5480007980D9302220023FDF777F8BDF806203F
:10A558000D9907980C940223FDF76FF80AA928466D
:10A56800BDF80670FFF718FF04460028C1D1BDF8F2
:10A578000630BB4218BF0C249DF818200F4B53F827
:10A58800223013B10798FCF7F6FF002206A93046DF
:10A59800FDF711F9002CAED02246294606A8FFF790
:10A5A8006BFFA8E70648074B07491B1ADB081B0483
:10A5B80043F00200FCF71CF9DEE700BF68C10200A7
:10A5C80058B50200C8B5020042C102002DE9F8439F
:10A5D8000F461446054620B94FF00E084046BDE820
:10A5E800F8830029F8D0FFF719FF3B78052B6AD8C4
:10A5F80021462846FFF7D2FE2B88834263D01426D3
:10A608004643A8683044FDF7CFF8002860D03B786F
:10A61800052B3BD8DFE803F00311171E242A7A8A9A
:10A62800398A2046FFF7B4FE112851D058B30246A4
:10A6380021463846FFF720FF25E007F110012046A4
:10A64800FFF7A8FEF0E7398A07F112022046FFF764
:10A6580099FEE9E707F110012046FFF795FEE3E7C9
:10A6680007F110012046FFF791FEDDE7BB6907F10E
:10A6780010012046B3F80080FFF78EFE30BBBB699F
:10A688001B8843450DD14FF00008A7E71B4B1C481A
:10A698001C49C01AC008000440F00200FCF7A8F8E2
:10A6A800F1E70C20C3E72869002895D03946984778
:10A6B8008046A0B192E73B7859F82330BBB178685F
:10A6C800FCF759FF13E04FF0070887E71128AED1D0
:10A6D8000D4A3B7852F823309146002BE3D1A86805
:10A6E80039463044FDF70AF880460028E3D1A868C7
:10A6F80021463044FFF7E2FE70E700BF58B502007C
:10A70800C8B5020042C1020068C10200F8B50D4692
:10A71800044678B3FFF782FE29462046FFF73EFE3F
:10A728002288824211D00020F8BD616831F81310E8
:10A73800814203F101030BD0208800234FF6FF76F6
:10A748009AB282420BD30420EEE700234FF6FF7043
:10A7580099B28A42E9D82069FCF70BFFECE76168F7
:10A768005A0001EB43078A5AB24203F10103E7D1C9
:10A778003D80D8E70E20D7E737B50C4608B301B3BC
:10A788000588112D15D181882046FFF707FE2388FB
:10A79800ADF80600834214D0112D14D163684FF62A
:10A7A800FF7223F810200DF10601E068FCF7A6FF00
:10A7B80007E0A5F130031F2BE5D9A5F150031F2BA6
:10A7C800E1D903B030BDA368142202FB0030FFF7C3
:10A7D80075FEF6E78ADF70478BDF70478CDF7047BE
:10A7E80030B590F8233089B004460D46D3B190F8BF
:10A7F8002C300193FFF7F0FF1422002103A800F08A
:10A80800A1FD019B04F1240204F12E01A81CFFF70D
:10A81800E5FF06238DF80C30049018B1E36B0BB1FB
:10A8280003A8984709B030BD70B51546044618B35B
:10A8380012B319BB104600F0DFFD0138C0B21F2863
:10A848001ED894F820600EB1042014E02946204652
:10A8580000F0ABFD78B194F82000431C84F8203058
:10A8680004EB4014284600F0C7FD2946024620465E
:10A8780000F03FFD304670BD0E20FCE70720FAE7E8
:10A888000C20F8E768B1CB060DD011F0010116BF16
:10A89800012380F8211080F8213080F82220002040
:10A8A80070470E2070470720704790F82E00C0F3BD
:10A8B800C000704738B50D460446002843D0C2632F
:10A8C8000021232200F03EFD65B32B7984F8233064
:10A8D8002B7B84F82C302B68D3B104F12E0203F1C2
:10A8E8000C0153F8040B42F8040B8B42F9D11B8876
:10A8F8001380AA680AB31068516804F1240303C3DB
:10A9080004F1400323661F23A4F86430002038BDF7
:10A91800E28DA38602F0E30242F48272E2850B4ADA
:10A928002263E6E7E38DA58603F0E30343F482732D
:10A93800E385064B236384F82350054A4FF0C87318
:10A94800C4E90923DCE70E20E1E700BFA0005000BE
:10A958000600180010B5044686B048B3142200213A
:10A9680001A800F0EFFCFFF737FF2046FFF79DFF37
:10A9780030B1E36B23B101228DF8042001A8984778
:10A9880004F1600104F12E00FFF724FF044630F0C3
:10A9980008000BD00748084B08491B1ADB081B04A2
:10A9A80043F001002246FBF727FF204606B010BD02
:10A9B8000E20FBE758B50200B0B5020080C10200C6
:10A9C8002DE9F04F054687B035F8083B1D2B0646A4
:10A9D8000C4620D007D8102B00F095801B2B7AD07E
:10A9E80007B0BDE8F08F202BFAD11422002101A86E
:10A9F80000F0A8FCE26B002AF2D0286869680523F9
:10AA08008DF8043002AB03C32E34297A05941970EB
:10AA180001A89047E4E71422002101A800F092FC65
:10AA280004F12E0320460593FFF73FFF04F1600869
:10AA380078B102238DF8043001A8E36B029598479A
:10AA480041460020FFF7C6FE29462046FFF7C8FE0C
:10AA5800C6E794F8210094F8229088B394F820A0CF
:10AA6800B6F824B0274604EB4A1A574518D10020F7
:10AA7800034601220295B9F1000F24D09A4226D14B
:10AA880000238DF8043029462046FFF7A9FEE36B22
:10AA98000BB101A8984741460020FFF79BFE9FE7AE
:10AAA8003A46306A5946FEF7D6FE20370028DCD0F1
:10AAB8009DF80C3043F001038DF80C300123D8E7E2
:10AAC80003460246D6E710B18DF80490DBE703236E
:10AAD8008DF80430DBE71422002101A800F032FCD5
:10AAE800327A012A7FF47CAFE36B002B3FF478AF16
:10AAF80004212E348DF8041005948DF808200DEBF0
:10AB0800010098476CE71422002101A800F01AFC04
:10AB180007238DF80430B388ADF80C3004F12E0308
:10AB28000593E36B0295002B3FF45AAF01A8E8E7C1
:10AB3800CB6803B1184770471FB503460846D9B11B
:10AB4800D3B11A88112A19D0392A15D109889A88B7
:10AB58008A4211D15C8981888C420DD1D989012919
:10AB68000AD11B7C8DF8083002218DF80410836807
:10AB7800ADF8062001A9984704B010BD9A880B8843
:10AB88009A4202BF4FF6FF720023C1E90023F3E7A0
:10AB980010B58AB004468DF8071010B302884FF636
:10ABA800FF739A421FD02022002102A800F0CAFB9E
:10ABB80001238DF808300D4B22886069CDE90434F3
:10ABC800E388ADF81A300DF1070308934FF480338A
:10ABD800079302A902238DF81830FFF7F7FC0AB093
:10ABE80010BD0E20FBE70820F9E700BF39AB0200D3
:10ABF80062DF70470B6903B118477047F0B50C4620
:10AC080087B014220546002101A800F09BFB22789A
:10AC180052BBA388012B27D1A1792B78994223D144
:10AC280094F808C0BDF81260BDF81400BDF816709D
:10AC3800122111FB0C4123469446994216D1BCF1CE
:10AC4800000F01D0ADF816701AB1ADF81260ADF86A
:10AC58001400EB6843B16288ADF8062000228DF835
:10AC6800042001A92846984707B0F0BDB3F80EE0C4
:10AC7800BEF1020F04D0BEF1030F05D01233DCE79A
:10AC8800DF8A4FF0010CF9E7DE8A188B0122F5E71D
:10AC9800F0B5184B87B002AA04460D4603F1100C14
:10ACA800174618685968164603C60833634532467E
:10ACB800F7D1ECB1E5B1AB68D3B121463846FFF71F
:10ACC80097FF98B923788DF806300123ADF8043042
:10ACD8004FF6FF7363802B68E3606B682361AB6892
:10ACE800A0802081636101A8FFF756F807B0F0BD86
:10ACF8000E20FBE7EEC1020010B5034686B00846F9
:10AD0800F9B1F3B149884FF6FF72914219D09C8886
:10AD18008C4216D11988112915D0392911D1828868
:10AD28007AB1598991420CD1C26852B101218DF88A
:10AD3800041003F11001DB890391ADF8103001A96B
:10AD4800904706B010BDC368002BFAD002218DF8D9
:10AD58000410428001A99847F3E7000010B50446A3
:10AD68008AB030B342884FF6FF739A4223D0C38823
:10AD78000BB32022002102A800F0E4FA0123ADF869
:10AD880004308DF808300D4B62886069CDE90434D1
:10AD9800E388ADF81A304FF40033079301AB0893FA
:10ADA80002A940F20113ADF81830FFF70FFC0AB002
:10ADB80010BD0E20FBE70820F9E700BFFDAB02003D
:10ADC80070B50E4688B01546044600283CD02022AF
:10ADD8000021684600F0B6FA142D0CD91B4B1C480C
:10ADE8001C49C01AC008000440F00200FBF700FD2F
:10ADF800072008B070BD62884FF6FF739A420BD1E6
:10AE0800124B13481449C01AC008000440F002004D
:10AE1800FBF7EEFC0820ECE701238DF800300F4B20
:10AE28006069ADF81650CDE902342389ADF81230C7
:10AE38000023ADF8143069464FF481730696ADF8D7
:10AE48001030FFF7C3FBD4E70E20D2E758B5020055
:10AE5800A8B50200B7C10200C9C10200FDAB0200DB
:10AE680050B141802AB15388C38013888380938866
:10AE780003814069FFF74ABC0E20704710DF704716
:10AE880013B5044609496846FCF7DAFC019808B985
:10AE980002B010BDD0E900212046904718B168469D
:10AEA800FCF7D8FCF2E71120F2E700BF0CC2020061
:10AEB80013B5044607496846FCF7C2FC019B0BB969
:10AEC80002B010BD2046D3E9002190476846FCF740
:10AED800C1FCF3E724C202000B4991F816335A0962
:10AEE800EC231341DB0706D5084B9A683AB94FF4AF
:10AEF80080030B60704742F20200FBF747BE1A68F6
:10AF080042F480021A60704700E100E03C780020BB
:10AF1800F7B5194F3C7864BB184E012520463570AB
:10AF2800FFF7AEFF112821D02046FFF7C1FF144BD1
:10AF38008DF80340186801900DF10300FCF716F82E
:10AF4800104901A8FFF79AFF0446B0FA80F04009BB
:10AF580038709DF80300FCF72DF83CB90A4B3470A3
:10AF68001C70FFF7B9FF2846FFF7A2FF204603B081
:10AF7800F0BD0824FAE700BF3D8600203C8600208B
:10AF880006C20200B16B02003E860020014B187811
:10AF9800704700BF3D86002007B508496846FCF7A2
:10AFA8004FFC019B13B903B05DF804FBD3E9002003
:10AFB80090476846FCF74EFCF3E700BF18C2020052
:10AFC800FFF7EABF60DF704769DF704761DF7047EE
:10AFD80030B5114B1B7891B0E3B1104D34240DF10D
:10AFE800020103A8ADF80240FFF7F0FF70B9294647
:10AFF80001A8FCF725FC029B002BF0D003A8D3E99D
:10B008000021904701A8FCF725FCF4E7052801D0AA
:10B01800FBF7BCFD11B030BD3F86002068C40200BC
:10B0280030B5054685B00C46002900F099804D4B97
:10B038000B600C22002101A800F084F908238DF888
:10B04800063022688DF80450062301A92020ADF8A7
:10B058000830FFF7B9FF60B1FCF74CFC424B43499D
:10B06800024643481B1ADB081B0443F00100FBF7A8
:10B07800C3FB0C22002101A800F064F900238DF81D
:10B08800053022684FF4847301A94020ADF80630DA
:10B09800FFF79AFF60B1FCF72DFC334B35490246A8
:10B0A80033481B1ADB081B0443F00100FBF7A4FB21
:10B0B8000C22002101A800F045F9012022688DF832
:10B0C800040001A9FFF780FF60B1FCF713FC264BD1
:10B0D8002949024626481B1ADB081B0443F00100D5
:10B0E800FBF78AFB0C22002101A800F02BF94FF492
:10B0F800B0632268019301A9A120FFF765FF60B141
:10B10800FCF7F8FB184B1D49024619481B1ADB08C7
:10B118001B0443F00100FBF76FFB0C22002101A880
:10B1280000F010F99DF8043022686FF3000301A9BC
:10B13800A0208DF80430FFF747FF034668B1FCF7FD
:10B14800D9FB094B0E49024609481B1ADB081B04A8
:10B1580043F00100FBF750FB0023184605B030BD53
:10B168000E23FAE798430020D8B5020030C2020047
:10B1780058B5020076C20200C2C202000EC3020025
:10B188005FC3020073B505460668FFF71BFF2B680F
:10B19800B34204461DD91A481A4B1B491B1ADB082F
:10B1A8001B0443F002000190FBF722FB2B681749B0
:10B1B80001983246FBF729FB4FF080532A68D3F8F1
:10B1C8000C31134901989B0203F100539A1AFBF7BB
:10B1D80013FB2CB90F4B01221A70204602B070BD28
:10B1E8002046FCF787FB074B0B49024604481B1A0D
:10B1F800DB081B0443F00100FBF7FEFAEDE700BF94
:10B2080058B50200D8B50200B2C30200E1C302007B
:10B2180012C402003F8600203CC402004BDF704786
:10B228001FB50D4C01A8FFF7F9FF70B9214602A818
:10B23800FCF706FB039B002BF4D00198D3E900210F
:10B24800904702A8FCF706FBF4E7052801D0FBF7B6
:10B258009DFC04B010BD00BF80C402007AB370B476
:10B2680014460F2A15D902460B4640EA010515F087
:10B27800030F01D0013C0EE0194610460432043396
:10B2880006680D68AE4204D110461946043C042CE9
:10B29800F2D8013C0ED00A4603460444114618462B
:10B2A8000133013206780D78AE4203D118461146B3
:10B2B800A342F3D100780B78C01A70BC7047002005
:10B2C8007047AAB130B41446013903461D4611F837
:10B2D800012F03F8012B1AB1013CF7D130BC70479C
:10B2E800012CFBD92C4403F8012BA342FBD1F5E731
:10B2F8007047844640EA010313F0030F18D18446CF
:10B30800202A0BD32DE9F007B1E8F807A0E8F807E1
:10B31800A2F12002202AF7D2BDE8F007042A07D3B9
:10B3280051F8043B40F8043BA2F10402042AF7D286
:10B33800002A05D011F8013B00F8013B013AF9D188
:10B34800604670478446002A2DD010F0030F04D0C1
:10B3580000F8011B013A26D0F7E7C9B241EA0121FA
:10B3680041EA0141202A12D3A2F120022DE9F0037B
:10B378000B460C460D460E460F4688468946A0E801
:10B38800FA03203AFBD2BDE8F00320320BD0042A9E
:10B3980005D340F8041B043A05D0042AF9D200F872
:10B3A800011B013AFBD16046704710F0030F19D119
:10B3B80011F0030F16D12DE970004FF001364FF050
:10B3C800803350F8044B51F8045BAC4205D1A4EB30
:10B3D800060525EA04051D40F3D0A0F10400A1F1FB
:10B3E800040170BC10F8012B11F8013BD21A01D1ED
:10B3F800002BF7D11046704700F1010110F0030F40
:10B4080011D010F8012B002A23D010F0030F0AD016
:10B4180010F8012B002A1CD010F0030F03D010F8ED
:10B42800012B002A15D02DE970004FF001324FF0A2
:10B43800803350F8044BA4EB020525EA04051D40AF
:10B4480000D1F6E7A0F1040070BC10F8012B002A27
:08B45800FBD1A0EB01007047DD
:08B46000497F0200000000001A
:10B46800F1980200000000003D900200000000007A
:10B4780081A70200C0430020C9A90200CC81002096
:10B48800899E0200E8430020899E0200B8490020F6
:10B49800899E0200884F0020899E0200585500208E
:10B4A800899E0200285B0020899E0200F860002027
:10B4B800899E0200C8660020899E0200986C0020C0
:10B4C800C9A10200C080002041AB02000C8100200D
:10B4D80041AB02002481002041AB02003C810020E6
:10B4E80041AB02005481002041AB02006C81002076
:10B4F80041AB02008481002041AB02009C81002006
:10B5080041AB0200B481002001AD020000800020A0
:10B5180001AD02001880002001AD0200308000203B
:10B5280001AD02004880002001AD020060800020CB
:10B5380001AD02007880002001AD0200908000205B
:10B5480001AD0200A8800020259102000000000043
:10B5580026BC0200000000002CBC02000000000015
:10B5680033BC02000000000037BC020000000000ED
:10B578003CBC0200000000005DB6020000000303AE
:10B5880061B602000000000089B602000000000059
:10B59800A0BF020000000303ADC1020000000303C6
:10B5A800E4C1020000000303A4C102000000030379
:10B5B80020BC020000000000EBC0020000000303F2
:10B5C8005DC1020000000303FEC102000000030386
:10B5D80059C402000000030374C4020000000303FE
:10B5E800E6B6020000000000FCB602000000000001
:10B5F80068720020307300203873002070720020B9
:10B6080018000000B0790020787A0020807A0020A5
:08B61800B879002018000000C1
:10B62000947A0020807A00200800000002000000C8
:04B630000100000015
:08B63400C97F020000000000C4
:10B63C00D9AF02000000000029B202000000000097
:10B64C004261636B656E647320666C7573686564C8
:10B65C0000617070006170705F627574746F6E0061
:10B66C0068770020466174616C206572726F72009D
:10B67C0053797374656D20726573657400617070B5
:10B68C005F74696D65720000010006000000000027
:10B69C00B4770020216C020052544320696E7374FD
:10B6AC00616E636520616C726561647920696E6995
:10B6BC007469616C697A65642E005254433A20694E
:10B6CC006E697469616C697A65642E000000000013
:10B6DC00000000000338FDD870477077725F6D670B
:10B6EC006D74000068B4020068B40200040000002D
:10B6FC00736F72746C697374004E52465F5355438A
:10B70C0043455353004E52465F4552524F525F537E
:10B71C0056435F48414E444C45525F4D4953534943
:10B72C004E47004E52465F4552524F525F534F4662
:10B73C00544445564943455F4E4F545F454E414234
:10B74C004C4544004E52465F4552524F525F494E53
:10B75C005445524E414C004E52465F4552524F5248
:10B76C005F4E4F5F4D454D004E52465F4552524F16
:10B77C00525F4E4F545F464F554E44004E52465FFB
:10B78C004552524F525F4E4F545F535550504F528B
:10B79C00544544004E52465F4552524F525F494EFB
:10B7AC0056414C49445F504152414D004E52465F08
:10B7BC004552524F525F494E56414C49445F535487
:10B7CC00415445004E52465F4552524F525F494ECE
:10B7DC0056414C49445F4C454E475448004E5246E6
:10B7EC005F4552524F525F494E56414C49445F4659
:10B7FC004C414753004E52465F4552524F525F499F
:10B80C004E56414C49445F44415441004E52465FB0
:10B81C004552524F525F444154415F53495A45007F
:10B82C004E52465F4552524F525F54494D454F550B
:10B83C0054004E52465F4552524F525F4E554C4C3F
:10B84C00004E52465F4552524F525F464F5242494C
:10B85C004444454E004E52465F4552524F525F494A
:10B86C004E56414C49445F41444452004E52465F4F
:10B87C004552524F525F42555359004E52465F4506
:10B88C0052524F525F434F4E4E5F434F554E5400F2
:10B89C004E52465F4552524F525F5245534F55528E
:10B8AC00434553004E52465F4552524F525F4D4FE7
:10B8BC0044554C455F4E4F545F494E495449414C99
:10B8CC00495A4544004E52465F4552524F525F4DC5
:10B8DC00555445585F494E49545F4641494C45447F
:10B8EC00004E52465F4552524F525F4D555445588B
:10B8FC005F4C4F434B5F4641494C4544004E5246CA
:10B90C005F4552524F525F4D555445585F554E4C02
:10B91C004F434B5F4641494C4544004E52465F45B0
:10B92C0052524F525F4D555445585F434F4E445FF2
:10B93C00494E49545F4641494C4544004E52465F7E
:10B94C004552524F525F4D4F44554C455F414C52FE
:10B95C00454144595F494E495449414C495A454423
:10B96C00004E52465F4552524F525F53544F524114
:10B97C0047455F46554C4C004E52465F4552524F20
:10B98C00525F4150495F4E4F545F494D504C454DAD
:10B99C00454E544544004E52465F4552524F525FFD
:10B9AC00464541545552455F4E4F545F454E4142BA
:10B9BC004C4544004E52465F4552524F525F494FE0
:10B9CC005F50454E44494E47004E52465F455252D9
:10B9DC004F525F4452565F5457495F4552525F4F26
:10B9EC0056455252554E004E52465F4552524F529A
:10B9FC005F4452565F5457495F4552525F414E4126
:10BA0C00434B004E52465F4552524F525F44525682
:10BA1C005F5457495F4552525F444E41434B004E71
:10BA2C0052465F4552524F525F424C455F4950530C
:10BA3C00505F52585F504B545F5452554E434154D3
:10BA4C004544004E52465F4552524F525F424C4560
:10BA5C005F495053505F4348414E4E454C5F414CFB
:10BA6C0052454144595F455849535453004E524630
:10BA7C005F4552524F525F424C455F495053505FA5
:10BA8C004C494E4B5F444953434F4E4E45435445EE
:10BA9C0044004E52465F4552524F525F424C455FF6
:10BAAC00495053505F504545525F52454A454354A7
:10BABC00454400556E6B6E6F776E206572726F72B7
